:1000000000800020913C0000BD3C0000BD3C000091
:10001000BD3C0000BD3C0000BD3C0000BD3C0000FC
:10002000BD3C0000BD3C0000BD3C0000BD3C0000EC
:10003000BD3C0000BD3C0000BD3C0000BD3C0000DC
:10004000211D00000D400000BD3C0000BD3C000033
:10005000BD3C0000BD3C0000BD3C0000BD3C0000BC
:10006000BD3C0000BD3C0000BD3C00003540000030
:10007000BD3C0000BD3C0000BD3C0000BD3C00009C
:10008000BD3C0000BD3C0000BD3C0000BD3C00008C
:10009000BD3C0000BD3C0000BD3C0000BD3C00007C
:1000A000BD3C0000BD3C0000BD3C0000BD3C00006C
:1000B000BD3C0000BD3C0000D52B0000BD3C000055
:1000C000BD3C0000BD3C0000BD3C0000BD3C00004C
:1000D000BD3C0000BD3C0000BD3C0000BD3C00003C
:1000E00010B5054C237833B9044B13B10448AFF372
:1000F00000800123237010BD0001002000000000DB
:10010000D8460000084B10B51BB108480849AFF3AA
:1001100000800848036803B910BD074B002BFBD0D3
:10012000BDE81040184700BF00000000D84600009E
:10013000040100207800002000000000154B002B77
:1001400008BF134B9D46A3F5803A00218B460F460E
:100150001348144A121A04F089FA0F4B002B00D0EE
:1001600098470E4B002B00D0984700200021040038
:100170000D000D48002802D00C48AFF3008004F0B9
:100180004FFA2000290000F007FA04F035FA00BF0A
:1001900000000800008000200000000000000000B7
:1001A0000001002000060020000000000000000008
:1001B00080B483B000AF0346FB71084997F907305C
:1001C0005B09FA7902F01F02012000FA02F241F8FD
:1001D00023200C37BD465DF8047B704700E100E04A
:1001E00080B483B000AF0346FB71094997F907302B
:1001F0005B09FA7902F01F02012000FA02F2603373
:1002000041F823200C37BD465DF8047B704700BFE2
:1002100000E100E080B483B000AF03463960FB71B9
:1002200097F90730002B0BDA0D49FB7903F00F0328
:10023000043B3A68D2B25201D2B20B441A7609E0BA
:10024000084997F907303A68D2B25201D2B20B444A
:1002500083F800230C37BD465DF8047B704700BF70
:1002600000ED00E000E100E080B483B000AF786012
:10027000044A7B68C2F81C310C37BD465DF8047B2C
:10028000704700BF0060004080B483B000AF78606A
:100290000649064BD3F810217B68DB431340C1F8B5
:1002A00010310C37BD465DF8047B7047006000409C
:1002B00080B483B000AF78600649064BD3F81021B4
:1002C0007B681343C1F810310C37BD465DF8047BE1
:1002D000704700BF0060004080B400AFBD465DF8CD
:1002E000047B704780B500AF524B38221A70514BD7
:1002F0000C225A704F4B10229A704F4B1B681846B5
:100300004C49032203F046F84A4B39221A70494BF4
:10031000E1225A70474B00229A70474B1B681846DF
:100320004449032203F036F8424B3A221A70414BFB
:1003300005225A703F4B06229A703F4B1B681846A5
:100340003C49032203F026F83A4B3B221A70394B02
:1003500007225A70374B08229A70374B1B68184691
:100360003449032203F016F8324B3C221A70314B09
:1003700009225A702F4B0A229A702F4B1B6818467D
:100380002C49032203F006F82A4B3D221A70294B10
:1003900023225A70274B0A229A70274B1B68184653
:1003A0002449032202F0F6FF224B3E221A70214B11
:1003B00023225A701F4B0A229A701F4B1B68184643
:1003C0001C49032202F0E6FF1A4B41221A70194B16
:1003D00000225A70174BC8229A70174B1B68184698
:1003E0001449032202F0D6FF124B42221A70114B1D
:1003F0000E225A700F4BFF229A700F4B1B68184643
:100400000C49032202F0C6FF0C4B06221A700A4B5D
:100410001B6818460949012202F0BCFF074B052260
:100420001A70054B1B6818460449012202F0B2FFFE
:1004300080BD00BFFC03002000000020F803002066
:10044000B0B588B000AF094B3C1D1D460FCD0FC4A1
:1004500095E8070084E80700054B1A683B1D104625
:10046000194602F02DFE2037BD46B0BD984600006B
:100470000000002080B586B000AF2648012100F0C2
:10048000F3FE2548012100F0EFFE2448012100F091
:10049000EBFE022000210422012301F053FF022081
:1004A00001210122002301F04DFF3B4600221A608A
:1004B000043300221A60043300221A60043300223D
:1004C0001A60043300221A60043300221A600433D5
:1004D0004FF4E133BB6005237B734FF480533B82C1
:1004E0003B460F48194602F0F7F80D4B40F2035215
:1004F0005A650420FFF774FE0420FFF759FE0848F0
:10050000052102F0B1F804200121FFF783FE18371E
:10051000BD4680BD408104000002040000D20400FA
:1005200000C0004080B500AF1020FFF7ADFE074BC4
:10053000FE221A70064B1B6818460449054A03231D
:1005400002F0F4FE1020FFF78FFE80BDF8030020BC
:1005500000000020E603002080B582B002AF032037
:1005600004210122012301F0EDFE01230093012368
:100570000193032004210422012301F079FE03F0FA
:10058000F7FC0420034903F003FD1020FFF790FE61
:10059000BD4680BD2505000080B582B000AFFFF7E5
:1005A0009BFEFFF74DFFFFF765FFFFF79BFEFFF791
:1005B000D3FF2F4B02221A702E4B1B6818462C4972
:1005C000012202F0E7FE2A4BFE221A70294B1B681B
:1005D00018462749284A032302F0A8FE244BB122DB
:1005E0001A70244B1B6818462149244A032302F041
:1005F0009DFE234BDB7803F01003DBB2002B29D0E8
:100600001B4BE2221A701B4B1B68184618491D4AE7
:10061000032302F08BFE164BE3221A70154B1B6866
:1006200018461349184A032302F080FE1748462152
:1006300002F06AF9124B00225A701020FFF738FEC0
:100640000B4B02221A700B4B1B68184608490122FB
:1006500002F0A0FE00237B6002E07B6801337B6038
:100660007B68B3F57A7FF8DB00237B60B6E700BFD9
:10067000F803002000000020E6030020F203002021
:10068000E4030020EA030020EE03002000C0004045
:1006900080B483B000AF03463960FB7197F907302F
:1006A000002B0BDA0D49FB7903F00F03043B3A688A
:1006B000D2B25201D2B20B441A7609E0084997F936
:1006C00007303A68D2B25201D2B20B4483F8002309
:1006D0000C37BD465DF8047B704700BF00ED00E0BD
:1006E00000E100E080B584B000AF78603960254B50
:1006F0001B7883F00103DBB2002B01D0224B3DE0DD
:100700007B68002B01D1214B38E001F07DF9B86006
:100710000023FB602BE01E49FA6813469B0013443C
:100720009B000B4410331B7883F00103DBB2002BDA
:100730001AD0FA687B681A601549FA6813469B005C
:1007400013449B000B44103301221A701049FA68BD
:1007500013469B0013449B000B4400221A60B868A8
:1007600001F062F9002309E0FB680133FB60FB68DC
:100770000B2BD0DDB86801F057F9064B184610373F
:10078000BD4680BD1C010020028000F0018000F009
:1007900020010020048000F080B584B000AF01F09B
:1007A00033F9B860194B1B78002B04D0B86801F0FE
:1007B0003BF9174B25E0154B01221A70B86801F080
:1007C00033F90023FB600CE01249FA6813469B00E2
:1007D00013449B000B44103300221A70FB68013352
:1007E000FB60FB680B2BEFDD00200421FFF750FFBF
:1007F00000233B70084B7B603B46184601F0CCFB66
:10080000002318461037BD4680BD00BF1C010020E4
:10081000038000F0200100200004002080B58CB08F
:1008200008AFF860B9607A603B607B6800933B6812
:100830000193002302933B7E0393FB69049397F893
:10084000203005937B6A0693BB6A07930020002142
:10085000FA68BB6800F096F8034618461037BD46A4
:1008600080BD00BF80B58CB008AFF860B9607A6019
:100870003B607B6800933B680193002302933B7EBF
:100880000393FB69049397F8203005937B6A0693E2
:10089000BB6A079300200121FA68BB6800F072F878
:1008A000034618461037BD4680BD00BF80B586B0F0
:1008B00000AFF8600B467A60FB72FA6813469B0043
:1008C00013449B000B4A13447B617B691B68002B1C
:1008D0000CD07B699B685A1C7B699A607B691B689A
:1008E0007A6991687A695268F86898471837BD46FE
:1008F00080BD00BF2001002080B58AB004AFF86041
:100900000B467A60FB720123FB75FA6813469B0065
:1009100013449B001A4A13443B613B691B68002B3C
:100920001AD03B699B685A1C3B699A603B691B68FB
:100930003A6991683A695268F86898470346002B0B
:1009400014BF01230023DBB283F00103DBB2FB758C
:10095000FB7D03F00103FB753B69DB68013B194636
:10096000FA7A002300930191FB7D02930020114647
:100970000022002301F03AFB1837BD4680BD00BFBE
:100980002001002080B58EB004AFBA607B600346C2
:10099000FB730B46BB73864B1B7883F00103DBB202
:1009A000002B01D0834BFEE0BB680B2B0FD83B6BB9
:1009B000002B0CD07B6B002B09D03B6CB3F5806F08
:1009C00005DCFB7B012B04D1BB6B002B01D17A4BE7
:1009D000E9E0BA6813469B0013449B00774A13442E
:1009E0007B627B6A1B7C83F00103DBB2002B01D0AE
:1009F000734BD8E0FB7B002B09D17249BA681346D0
:100A00005B0013449B000B446F4A1A6008E06D4979
:100A1000BA6813465B0013449B000B446B4A1A6090
:100A20006849BA6813465B0013449B000B440022DC
:100A30005A6000233B76BB6C002B02D1FB7B012B61
:100A400002D101237B7601E000237B767B68FB618A
:100A5000BA6813465B0013449B005A4A13443B6236
:100A600007F11803B868194601F016FABB7B002B92
:100A700019D197F83C30002B10D097F84430002B58
:100A800002D100237B740BE097F84430012B02D194
:100A900001237B7404E002237B7401E003237B7455
:100AA00003233B7418E097F83C30002B10D097F8E4
:100AB0004430002B02D100233B740BE097F8443004
:100AC000012B02D101233B7404E002233B7401E0BB
:100AD00003233B7403237B7497F84430BB740023D7
:100AE000FB7400233B7507F11003B86801211A4617
:100AF00001F01AFAFB7B012B06D107F11003B8684D
:100B000000211A4601F010FA7B6ABA6C1A607B6AFF
:100B1000FA6C5A607B6A00229A607B6A3A6CDA60EF
:100B20002B4ABB68012101FA03F3194602F58053F1
:100B300008331960FB7B002B0CD13B6C013B1A4640
:100B40007B6B00930192B868012100223B6B01F09E
:100B500053F927E0BB7B002B12D13B6C013B1946BC
:100B60003B6C013B1A4600913B6B0193BB6B0293BC
:100B70000392B86800213A6B7B6B01F05FF911E0DA
:100B80003B6C013B19463B6C013B1A4600917B6B69
:100B90000193BB6B02930392B86800213A6BBB6B65
:100BA00001F04CF9002318462837BD4680BD00BF30
:100BB0001C010020028000F0018000F020010020D4
:100BC000078000F010020020AD080000F9080000C6
:100BD00000200C4080B487B000AFF860B9607A6044
:100BE000FB6803F10473DA00BB6813449B007B616C
:100BF0007B697A681A601C37BD465DF8047B7047D4
:100C000080B485B000AF786039607B6803F104730D
:100C1000DA003B6813449B00FB60FB681B681846C6
:100C20001437BD465DF8047B704700BF80B485B0C3
:100C300000AF78607B68002B04D07B68B3F5004F71
:100C400000D800BF7B68B3FA83F3C3F11F03FB60D6
:100C5000FB6818461437BD465DF8047B704700BF3B
:100C600080B400AF044BDB6C1B0EDBB21846BD46F4
:100C70005DF8047B704700BFB081E00F80B584B0A1
:100C800000AF78600123FB607B68114A934204D86F
:100C90000023FB600023BB6008E07B680D4A9342A1
:100CA00002D80123BB6001E00223BB600A481E2179
:100CB000FA68FFF78FFF0849074B5B6823F48072DF
:100CC000BB681B0213434B601037BD4680BD00BF9D
:100CD00000366E01006CDC0200800C4080B582B0F2
:100CE00000AF05481E21FFF78BFF78607B68184630
:100CF0000837BD4680BD00BF00800C4080B582B083
:100D000000AF214B5B6903F4E063B3F5007F1CD0B7
:100D1000B3F5007F05D8002B25D0B3F5807F1FD019
:100D20002AE0B3F5C06F24D0B3F5E06F1ED0B3F561
:100D3000407F21D1FFF794FF0346122B02D9134BBA
:100D40007B601CE0124B7B6019E0FFF789FF0346D4
:100D5000122B02D90F4B7B6011E00F4B7B600EE032
:100D60000E4B7B600BE00E4B7B6008E00D4B7B6015
:100D700005E00D4B7B6002E000237B6000BF7B68D9
:100D800018460837BD4680BD00800C40804F1200D9
:100D900040420F0040B56400C0CF6A00C0D8A70031
:100DA000809FD500406F4001003FAB0180B582B00D
:100DB00000AF0D4800F0ACFB0346FB70FB78072B3F
:100DC00005D0092B07D102F0ADFF786006E0FFF7F0
:100DD00095FF786002E000237B6000BF7B681846C7
:100DE0000837BD4680BD00BF06000C0080B485B04A
:100DF00000AF78603960284BDB6B002B14BF0123F8
:100E00000023BB72244B41F67132DA63224B5B68DC
:100E100003F00703FB60FB68012B01D9042B02D10F
:100E20000023FB7202E00123FB7200BF7B681B4AB8
:100E3000934207D9FB7A002B01D0052300E004235D
:100E4000FB6016E07B68154A93420BD87B68144A16
:100E5000934207D9FB7A002B01D0032300E0012342
:100E6000FB6006E0FB7A002B01D0022300E00023A8
:100E7000FB600949084B5B6823F00702FB681343DA
:100E80004B60BB7A002B02D0034B0022DA6314378D
:100E9000BD465DF8047B704700000C400048E80147
:100EA0000024F40080B500AF02F032FF034618467C
:100EB0000021FFF79BFF80BD80B582B000AF786056
:100EC000396078683968FFF791FF0837BD4680BD03
:100ED00090B585B000AF78600023BB607B68344A72
:100EE000934203D0334A934200D000E000BF7868B9
:100EF00000F00EFB0346FB607B682D4A934203D053
:100F00002C4A934206D00CE02B4B9B6A03F0030360
:100F1000FB6006E0284B9B6A03F00C039B08FB6018
:100F200000BFFB68032B3AD801A252F823F000BFA0
:100F3000670F0000410F0000490F0000510F000033
:100F400002F08CFFB8602DE002F09CFFB86029E051
:100F500002F0C4FE0446FFF7C1FE0346013324FA43
:100F600003F3BB601EE00023BB607B68104A934222
:100F700003D07B680F4A934210D10F4B9A6A7B686B
:100F80000B498B4201D1102300E0142322FA03F312
:100F9000002B03D002F06CFFB86003E002E00023F6
:100FA000BB6000BFBB6818461437BD4690BD00BF8C
:100FB00002001A0003001C0000800C4080B483B0C3
:100FC00000AF7860094B5B6D03F00103002B00D08C
:100FD00006E000BF054B1A6D7B681340002BF9D16A
:100FE0000C37BD465DF8047B704700BF00800C40A5
:100FF00080B582B000AF104800F08AFA0346FB705B
:10100000FB78032B07D0092B09D0022B0BD102F060
:1010100039FF78600AE002F021FF786006E002F014
:1010200081FE786002E000237B6000BF7B68184689
:101030000837BD4680BD00BF07232200B0B584B08D
:1010400000AF786039607B681B0903F00F03FB6019
:10105000FB68013B062B00F2F48001A252F823F05A
:101060007D1000004312000043120000B310000086
:10107000DD1000002B110000EF1100003B68002B79
:1010800003D03B68082B00D800BFFFF70BFF6F4968
:101090006E4B1B6823F4E0323B68013B9B03134318
:1010A0000B6002F01BFEB860B8680021FFF704FF78
:1010B000C8E03B68002B04D03B68B3F5007F00D844
:1010C00000BF3868FFF7B2FD386060495F4B9B682E
:1010D00023F00F023B6813438B60B3E03B68002BA7
:1010E00004D03B68B3F5007F00D800BFFFF7DAFEFD
:1010F00002F018FE02463B68B2FBF3F31846FFF716
:10110000BDFD3868FFF792FD386050494F4B5B6872
:1011100023F00F023B6813434B6002F0DFFDB86021
:10112000B8680021FFF7C8FE8CE07B68484A93420C
:101130001ED0474A934203D8464A934207D055E00F
:10114000454A934225D0454A93423FD04EE0042081
:10115000FFF734FF3868FFF769FD38603B493B4BC8
:101160009B6E23F0F0023B681B0113438B663DE04E
:101170000420FFF723FF3868FFF758FD3860334934
:10118000324B9B6E23F470623B681B0213438B66E9
:101190002CE03B680F2B03D93B68802B00D800BFA5
:1011A0000420FFF70BFF3868FFF740FD3860274D3C
:1011B000264B9B6E23F440541020FFF737FD024668
:1011C0003B689B1A1B032343AB660FE00420FFF729
:1011D000F5FE3868FFF72AFD38601C491B4B9B6EF3
:1011E00023F003023B6813438B6600BF2AE07B6851
:1011F0001B4A934203D01B4A934210D020E0402068
:10120000FFF7DCFE3868FFF711FD38600F490F4B20
:101210001B6F23F003023B6813430B6710E0402071
:10122000FFF7CCFE3868FFF701FD38600749074B30
:101230001B6F23F030023B681B0113430B6700BF99
:1012400000E000BF1037BD46B0BD00BF00800C40BD
:1012500060261400601610006000260060062A0058
:10126000700716007017180080B586B000AF786060
:101270000B46FB7000233B617B681B0A03F00F03E6
:10128000013B092B45D801A252F823F0C9120000F6
:10129000CF120000B512000013130000131300005A
:1012A000D5120000DF12000013130000131300001A
:1012B000E9120000194B7B61194800F03DF8034624
:1012C0001846FFF7DBFC12E0164B7B610FE0164B74
:1012D0007B610CE0154B7B6101233B6107E0144B04
:1012E0007B6110233B6102E0124B7B6100BF7B6896
:1012F0001B0B03F01F03FB603B69002B02D0386916
:10130000FFF75CFEFB787869F9681A46FFF762FC24
:1013100000E000BF1837BD4680BD00BF40800C40D4
:101320000043020008800C4044800C4058800C4070
:1013300060800C4078800C4090B585B000AF78603C
:101340007B6803F47813B3F5B01F00F0AB80B3F5FE
:10135000B01F1AD8B3F5402F00F0BF80B3F5402F6F
:1013600008D8B3F5003F3CD0B3F5802F2DD0002B2B
:1013700027D0BEE0B3F5801F3CD0B3F5A01F47D007
:10138000B3F5602F00F0AD80B3E0B3F5081F00F0B7
:10139000AC80B3F5081F0AD8B3F5D01F25D0B3F53C
:1013A000E01F7AD0B3F5C01F00F08980A1E0B3F54B
:1013B000201F4ED0B3F5281F62D0B3F5181F35D0CB
:1013C00097E002F0AFFCF86096E002F0ABFCF8604A
:1013D0004C4B9B6803F00F031A46FB68D340FB603D
:1013E0008AE002F07BFCF86086E04748FFF770FD7A
:1013F000F86081E04448FFF76BFDF860414B9B6E5D
:1014000003F0F0031B091A46FB68D340FB6073E04E
:101410003D48FFF75DFDF8603A4B9B6E03F4706347
:101420001B0A1A46FB68D340FB6065E03648FFF7AD
:101430004FFDF860334B9B6E03F440531C0B1020A0
:10144000FFF7F4FB034623441A46FB68D340FB60D6
:1014500052E02D48FFF73CFDF8602A4B9B6E03F4E9
:1014600040531B0B1A46FB68D340FB60254BDB6FD8
:1014700003F007030133FA68B2FBF3F3FB603BE0D0
:101480002148FFF725FDF8601E4B9B6E03F0030318
:101490001A46FB68D340FB602EE01C48FFF718FD9E
:1014A000F86029E01948FFF713FDF860154B1B6F32
:1014B00003F003031A46FB68D340FB601CE01348AB
:1014C000FFF706FDF8600F4B1B6F03F030031B099D
:1014D0001A46FB68D340FB600EE0FFF767FCF8603C
:1014E0000AE0FFF70BFCF86006E0FFF781FDF8600B
:1014F00002E00023FB6000BFFB6818461437BD46BE
:1015000090BD00BF00800C4002001A0003001C00C8
:1015100080B485B000AF78600123FB737B6803F073
:101520000F03BB60BB68013B062B00F2938001A256
:1015300052F823F05115000087150000C315000074
:101540005516000055160000FF150000211600007A
:10155000454BDB6A03F47053B3F5805F09D0B3F5F4
:10156000005F03D0B3F5006F06D008E00223FB73E1
:1015700008E00323FB7305E00423FB7302E005236B
:10158000FB7300BF69E0384B9B6A03F00303022B37
:1015900006D0032B07D0012B08D10323FB730FE0E8
:1015A0000223FB730CE00623FB7309E02E4B9B6ABE
:1015B00003F48033002B02D00A23FB7300E000BF4A
:1015C0004BE0294B9B6A03F00C03082B06D00C2B35
:1015D00007D0042B08D10323FB730FE00223FB7316
:1015E0000CE00623FB7309E01F4B9B6A03F4801396
:1015F000002B02D00A23FB7300E000BF2DE01A4B42
:101600001B6803F08053002B03D0B3F1805F03D03D
:1016100023E00723FB7302E00923FB7300BF1CE0F8
:10162000114BDB6A03F46033B3F5803F08D0B3F5A8
:10163000003F08D0B3F5004F08D10923FB7308E041
:101640000223FB7305E00323FB7302E00123FB731A
:1016500000BF02E00023FB7300BFFB7B184614377A
:10166000BD465DF8047B704700800C4080B588B0B3
:1016700000AF78600B46FB700323FB610323FB760E
:1016800000233B617B6803F00F03FB60FB68013BB9
:10169000062B00F2208101A252F823F0B9160000B7
:1016A0007F1700007F170000D7180000D718000030
:1016B000451800006F180000FB78023B082B00F271
:1016C0000C8101A252F823F0ED160000F71600007D
:1016D000011700003B170000DB180000DB180000BA
:1016E000DB180000DB180000DB1800000423FB619E
:1016F0000023FB7629E00323FB610123FB7624E032
:101700000223FB610223FB767748FFF7B7FA02F06A
:1017100089FB0246754B9A4206D9754A744B1B6881
:1017200043F06003136010E0714A714B1B6823F0B3
:10173000600343F02003136007E00123FB610323F0
:10174000FB766948FFF79AFA00BFFB7E1846012135
:10175000012200F0D3F8FFF7A5FB654AFB6953624D
:101760006448FFF7E9FD03461846FFF787FA02F0E1
:10177000B5FAB860B8680021FFF79EFBB0E0FB78CF
:10178000013B092B00F2AB8001A252F823F000BF0D
:10179000B9170000BF170000CF170000DF180000C6
:1017A000DF180000DF170000DF180000DF1800005E
:1017B000DF180000FB17000000237B6122E00020FF
:1017C0000121012200F09AF802237B611AE0012036
:1017D0000121012200F092F801237B6112E002F066
:1017E0007DFAB860B868FFF749FA4348042101223E
:1017F000FFF7F0F903237B6104E000237B61012301
:101800003B6100BFFB68022B0DD13949384B9B6A05
:1018100023F4803323F003037A691A433B691B04E2
:1018200013438B625CE03249314B9B6A23F4801393
:1018300023F00C037A6992001A433B691B0513439A
:101840008B624DE0FB78072B02D0092B07D047E0D5
:10185000274A274B1B6823F08053136006E0244A75
:10186000234B1B6843F08053136000BF38E0FB78C4
:10187000032B14D0092B22D0022B00D030E0002003
:101880000121012200F03AF8194B40225A6200BFB0
:10189000174BDB6A03F48033002BF9D01AE00120E8
:1018A0000121012200F02AF8114B60225A6200BF88
:1018B0000F4BDB6A03F40033002BF9D00AE00C4B2A
:1018C00020225A6200BF0A4BDB6A03F40043002B5C
:1018D000F9D000BF04E000BF02E000BF00E000BF9D
:1018E0002037BD4680BD00BF01366E010048E801CB
:1018F00000800C400043020040800C4080B586B060
:1019000000AF0346FB710B46BB7113467B71FB793D
:10191000042B48D801A252F823F000BF6919000037
:101920005B1900003F190000311900004D1900003B
:1019300001233B610223FB6001237B611DE0042343
:101940003B610823FB6003237B6116E010233B61AE
:101950002023FB6005237B610FE040233B61802354
:10196000FB6007237B6108E04FF480733B614FF419
:101970000073FB6009237B6100BFBB79002B0ED095
:101980000B4A3B6913627B79002B0DD000BF0948DD
:101990007969FFF735F90346002BF8D004E0044AD3
:1019A000FB68136200E000BF1837BD4680BD00BF72
:1019B00000800C402C800C4080B483B000AF034604
:1019C000FB7197F90730002B0ADA0D4AFB7903F017
:1019D0000F03043B13441B7EDBB25B09DBB208E060
:1019E000084A97F90730134493F80033DBB25B09D8
:1019F000DBB218460C37BD465DF8047B704700BF6C
:101A000000ED00E000E100E080B483B000AFEFF350
:101A100010833B603B687B6072B67B6818460C376E
:101A2000BD465DF8047B704780B483B000AF78603A
:101A30007B68002B00D162B60C37BD465DF8047B95
:101A4000704700BF80B588B000AF0346FB7197F9BF
:101A5000073013F10C0F04DB97F90730272B00DC5C
:101A600000BFEFF310833B613B6903F00103002BE0
:101A700001D0012336E097F90730184600F038F816
:101A80000346002B01D001232CE097F907301846BC
:101A9000FFF792FFF861EFF31183FB60FB68BB6116
:101AA000BB69002B06D0BB695A09FB699A4201D871
:101AB000012317E00D4B5B68C3F308037B617B696F
:101AC000002B0ED07B69DBB2103BDBB2DBB25BB22A
:101AD0001846FFF771FF0246FB699A4201D80123BD
:101AE00000E0002318462037BD4680BD00ED00E031
:101AF00080B485B000AF0346FB7197F90730002B27
:101B000004DB97F90730272B00DC00BF0D4BFB608F
:101B100097F907305B11DBB25AB2FB6853F82230F9
:101B2000FA7902F01F02012101FA02F21340002BA0
:101B30000CBF01230023DBB218461437BD465DF805
:101B4000047B704700E100E080B483B000AF03463F
:101B5000FB71084997F907305B09FA7902F01F0217
:101B6000012000FA02F241F823200C37BD465DF84F
:101B7000047B704700E100E080B483B000AF03460F
:101B8000FB71094997F907305B09FA7902F01F02E6
:101B9000012000FA02F2203341F823200C37BD4621
:101BA0005DF8047B704700BF00E100E080B483B0C3
:101BB00000AF0346FB71094997F907305B09FA79D1
:101BC00002F01F02012000FA02F2603341F82320E4
:101BD0000C37BD465DF8047B704700BF00E100E0B4
:101BE00080B487B000AFF860B9607A60FB6803F139
:101BF0000473DA00BB6813449B007B617B697A68DD
:101C00001A601C37BD465DF8047B704780B489B00C
:101C100000AF7860084611461A460346FB700B4633
:101C2000BB7013467B707B681A013C4B9B68134466
:101C3000BB61BB78002B02D0BB69FB6105E07B6810
:101C40001A01364BDB681344FB61BB69DB687B61BF
:101C50007B69002B02D0BA787B691A72FB6A002B71
:101C600014D0FB699B6803F040639B0E3B613B69AA
:101C7000032B03D1FB69FA6A1A6007E03B693A6BF0
:101C80009A40FB6A13441A46FB691A60BB6A002B30
:101C900012D0FB699B689B0F3B613B69032B03D10F
:101CA000FB69BA6A5A6007E03B693A6B9A40BB6AC3
:101CB00013441A46FB695A607B68012202FA03F357
:101CC000FB607B78002B03D0144AFB68936102E031
:101CD000124AFB68D361BB78002B03D00F4AFB6824
:101CE000536302E00D4AFB681363FB699B6823F4AE
:101CF0007F5323F03703BB603B6B1B01BA68134370
:101D0000BB60FB78BA681343BB60FB69BA689A6032
:101D10002437BD465DF8047B704700BF00200C40AF
:101D200080B58AB000AF334B03F580531B68BB61AD
:101D3000304B03F580530C331B68BA691340BB6109
:101D40002C4B9B6B7B61BA697B6913403B62002320
:101D5000FB6149E000237B623BE03B6A03F0010347
:101D6000002B30D0234B9B683B6101227B6A02FA37
:101D700003F3FB601F4B03F580530833FA681A60C6
:101D80007B6A1B013A691344DB68BB60BB68002BAC
:101D900019D0BB681B7A7B60BB681B7A83F0010398
:101DA000DAB2BB681A72BB681B68002B0BD0BB6829
:101DB0001B68786A7A68002A14BF01220022D1B217
:101DC000BA68526898473B6A5B083B627B6A01339A
:101DD0007B623B6A002BC0D17B69DA43BB6913404D
:101DE0003B62FB690133FB61FB69012BB2DD2837E4
:101DF000BD4680BD00200C4090B589B004AFF860AE
:101E00007B600B46FB721346BB72FA7ABC7A7B6826
:101E100000933B6A01937B6A0293F8680121234691
:101E2000FFF7F4FE044AFB68012101FA03F3936211
:101E30001437BD4690BD00BF00200C4090B589B05E
:101E400004AFF8607A603B600B46FB72FC7A7B6AF9
:101E50000093BB6A0193FB6A0293F8680321002296
:101E60002346FFF7D3FEFC7A7B6800933B6801931F
:101E70003B6A0293F868032101222346FFF7C6FE5E
:101E8000044AFB68012101FA03F393621437BD464B
:101E900090BD00BF00200C4080B584B000AF7860DA
:101EA00039601F4B9B68FB607B681B01FA68134419
:101EB0003A689268DA603B681B78002B06D0184AB3
:101EC0007B68012101FA03F3936305E0144A7B6800
:101ED000012101FA03F3D36311493B685A687B6817
:101EE00003F5886341F823203B685B78002B0FD013
:101EF0000B4A7B68012101FA03F3194602F580536E
:101F000008331960074879680122FFF769FE04E089
:101F1000044879680022FFF763FE1037BD4680BD94
:101F200000200C400C300C4080B487B000AFF8604B
:101F30000B467A60FB72FB7A002B03D0154B9B6833
:101F40007B6102E0134BDB687B61FB681B017A69F4
:101F500013447B617B681B789A077B689B781B071F
:101F60001A437B685B789B061A437B689B781B0649
:101F700013431A467B681B799B0413437A68D27813
:101F800092031A437B699A601C37BD465DF8047B57
:101F9000704700BF00200C4080B582B000AF786071
:101FA00010480121FFF760F900F09CF80020FFF7CE
:101FB000FDFD0020FFF7C8FD0B4B03F580530C33EC
:101FC0004FF000421A60084A7B685B689360064ADB
:101FD0007B681B785B0143F0010353600837BD4603
:101FE00080BD00BF0003020000200C4080B48BB015
:101FF00000AFF8607B600B46FB721346BB7297F82C
:102000003830002B03D0012387F8273002E0032368
:1020100087F82730FB7A002B06D0FB681A01304B7B
:102020009B6813443B6205E0FB681A012C4BDB689C
:1020300013443B623B6B002B14D03B6A9B6803F05C
:1020400040639B0EFB61FB69032B03D13B6A3A6B38
:102050001A6007E0FB697A6B9A403B6B13441A469F
:102060003B6A1A607B68002B12D03B6A9B689B0F0F
:10207000FB61FB69032B03D13B6A7A685A6007E076
:10208000FB697A6B9A407B6813441A463B6A5A6034
:10209000FB68012202FA03F3BB61BB7A002B03D079
:1020A0000F4ABB69936102E00D4ABB69D3613B6A89
:1020B0009B6823F47F5323F037037B617B6B1B0109
:1020C0007A6913437B6197F827307A6913437B6100
:1020D0003B6A7A699A602C37BD465DF8047B70478D
:1020E00000200C4080B582B000AF0020FFF744FD17
:1020F0001C4B00225A601B4B40F6FF72DA61194BF1
:1021000040F6FF725A62174B40F6FF72DA62154BC7
:1021100040F6FF725A63134B40F6FF72DA63114BBD
:102120000122DA640F4B03F580530C3300221A604E
:102130000C4B03F5805308330B4A1A6000237B6075
:1021400009E0084A7B6803F58863002142F8231000
:102150007B6801337B607B680B2BF2DD0837BD4663
:1021600080BD00BF00200C40FF0F008080B487B00E
:1021700000AFF860B9607A60FB6803F10473DA00BD
:10218000BB6813449B007B617B697A681A601C37CB
:10219000BD465DF8047B704780B485B000AFF86041
:1021A000B9607A60FB681A68BB68DB431A407B68D9
:1021B0001A43FB681A601437BD465DF8047B70470C
:1021C00080B483B000AF03463960FB71FB79002B0C
:1021D0000DD0FB79012B0AD0FB79022B07D0FB79BC
:1021E000032B04D0FB79042B01D0FB79052B094983
:1021F000FA793B68012000FA03F318461346DB0026
:1022000013449B000B44103358600C37BD465DF8F7
:10221000047B70470060004080B483B000AF034689
:102220003960FB71FB79002B0DD0FB79012B0AD0B3
:10223000FB79022B07D0FB79032B04D0FB79042B0D
:1022400001D0FB79052B0949FA793B68012000FA96
:1022500003F318461346DB0013449B000B44103372
:1022600018600C37BD465DF8047B70470060004085
:1022700080B586B000AFB9607A601A460346FB733A
:102280001346BB7300237B61FB7B002B0DD0FB7BD4
:10229000012B0AD0FB7B022B07D0FB7B032B04D046
:1022A000FB7B042B01D0FB7B052B7B68072B0ED817
:1022B0007B689B001A46072303FA02F1FB7B7A68CE
:1022C0009200934019481A46FFF766FF10E07B68BA
:1022D000083B7B617B699B001A46072303FA02F1E6
:1022E000FB7B7A699200934011481A46FFF754FF2E
:1022F000BB7B104879681A46FFF738FF97F8203003
:102300000D4879681A46FFF731FF0C4A7B680121B6
:1023100001FA03F3C2F81C3197F8243008487968B1
:102320001A46FFF723FF1837BD4680BD0061004005
:1023300004610040086100400C6100400060004002
:102340001061004090B585B000AFB9607B60034676
:10235000FB731346BB73FB7B002B0DD0FB7B012B68
:102360000AD0FB7B022B07D0FB7B032B04D0FB7B2B
:10237000042B01D0FB7B052BBB7B002B0DD07B6896
:10238000002B05D0FB7B1846B968FFF745FF04E03A
:10239000FB7B1846B968FFF713FFBB68072B1CD8F7
:1023A0002A4CFA7B2948F97B0B46DB000B449B0047
:1023B00003445968BB689B0018460F238340DB43E6
:1023C0000B40B97BB8688000814019431346DB009D
:1023D00013449B002344596024E01C4CFA7B1B48A7
:1023E000F97B0B46DB000B449B0003440833196860
:1023F000BB6803F18043083B9B0018460F238340D2
:10240000DB431940B87BBB6803F18043083B9B006A
:1024100000FA03F319431346DB0013449B002344E3
:1024200008331960BB7B002B0DD17B68002B05D0D6
:10243000FB7B1846B968FFF7EFFE04E0FB7B18460C
:10244000B968FFF7BDFE1437BD4690BD006000407F
:1024500080B487B000AFF860B9607A60FB6803F1C0
:102460000473DA00BB6813449B007B617B697A6864
:102470001A601C37BD465DF8047B704780B485B098
:1024800000AF78607B68002B02D0012B04D007E0FE
:10249000084B9B68FB6006E0064BDB68FB6002E0D4
:1024A0000023FB6000BFFB6818461437BD465DF88B
:1024B000047B70470000084080B485B000AF7860AE
:1024C00039607B68002B02D0012B03D008E0074B5A
:1024D000FB6002E0064BFB6000BFFB683A681A60D5
:1024E0001437BD465DF8047B704700BF0800084004
:1024F0000C00084080B582B000AF0346FB71FB7949
:10250000034800211A46FFF7A3FF0837BD4680BDE8
:102510000000084080B485B000AF78607B681B780D
:10252000002B02D00123FB6001E00023FB607B68ED
:102530005B78002B03D0FB6843F00203FB607B68F1
:102540009B78002B03D0FB6843F00403FB60044A34
:10255000FB6813601437BD465DF8047B704700BF0D
:102560000000084080B500AF0020FFF7C3FF012046
:10257000FFF7C0FF80BD00BF80B586B000AFF86038
:10258000B9607A60FB70BB68002B03D12448FEF76A
:10259000D3FEB860FB78202B0CD0202B02DC002B64
:1025A00005D03AE0402B08D0602B09D035E010234D
:1025B0007B6108E008237B6105E006237B6102E084
:1025C00004237B6100BFBB689A007B69796801FBCB
:1025D00003F35B0813443B617B697A6802FB03F3F6
:1025E0003A69B2FBF3F33B613B69043B3B613B69F6
:1025F0009B013B613A690B4B13403B61FB681B68D5
:1026000023F06002FB681A60FB681A68FB781A43C3
:10261000FB681A60FB683A695A611837BD4680BD8D
:1026200040810400C0FF1F0080B586B000AFF86095
:10263000B9607A60BB68002B03D10A48FEF77CFEC4
:10264000B860BB685A1E7B685B00B2FBF3F37B612A
:102650007B691B027B61FB687A695A611837BD464A
:1026600080BD00BF4081040080B485B000AF7860B9
:102670000B46FB707B68134A93420FD07B68124A6B
:1026800093420BD07B68114A934207D07B68104A73
:10269000934203D07B680F4A934200D100BFFB787E
:1026A000DB43FB60FB6803F00503FB60FB685A003B
:1026B0007B68DA60FA787B68DA601437BD465DF8CB
:1026C000047B704700C0004000C4004000C80040C8
:1026D00000E0004000E4004080B582B000AF7860C8
:1026E00039607B68244A93420FD07B68234A934227
:1026F0000BD07B68224A934207D07B68214A9342E1
:1027000003D07B68204A934200D100BF786800F074
:10271000A3F83B689B7C002B05D07B681B6843F0CB
:1027200080427B681A603B68DB7C002B07D03B68EB
:102730001B7D43F01003DBB21A467B689A653B6849
:102740005B7B1A463B681B8A13433A68D2891A435B
:102750007B685A603B6859683B689A683B681B7B9A
:102760007868FFF709FF3B681B781A467B68DA60D8
:102770000837BD4680BD00BF00C0004000C4004017
:1027800000C8004000E0004000E4004080B582B096
:1027900000AF786039607B682C4A934207D07B6831
:1027A0002B4A934203D07B682A4A934200D100BF50
:1027B000786800F051F87B681A683B681B8A43F020
:1027C00001039BB219463B689B7B002B02D04FF460
:1027D000806300E000230B431A437B681A607B6828
:1027E0001A683B681B7D002B02D04FF0005300E0BD
:1027F00000231A437B681A603B689B7C002B07D040
:102800003B68DB7C43F01003DBB21A467B689A65B9
:102810003B681B7B43F480527B685A603B685A6874
:102820003B689B68786811461A46FFF7FDFE3B68D7
:102830005B7B002B02D07B681022DA603B681B7840
:102840001A467B68DA600837BD4680BD00C000408C
:1028500000C4004000C8004080B483B000AF78607E
:102860007B68244A93420FD07B68234A93420BD063
:102870007B68224A934207D07B68214A934203D067
:102880007B68204A934200D100BF7B6840F6AA6271
:10289000DA607B6800221A607B6841F205025A60A8
:1028A0007B6800229A607B6800225A617B68002264
:1028B000DA647B6841F6F9729A647B6800225A6593
:1028C0007B680C4A934202D17B6800221A657B68C0
:1028D00000229A657B68084A934203D07B68074AC6
:1028E000934202D17B680022DA650C37BD465DF861
:1028F000047B704700C0004000C4004000C8004096
:1029000000E0004000E4004080B483B000AF786095
:102910000B46FB7000BF7B681B6903F04003002B74
:10292000F9D0FA787B685A630C37BD465DF8047BB2
:10293000704700BF80B483B000AF0346FB71084905
:1029400097F907305B09FA7902F01F02012000FABB
:1029500002F241F823200C37BD465DF8047B704736
:1029600000E100E080B483B000AF0346FB71094989
:1029700097F907305B09FA7902F01F02012000FA8B
:1029800002F2603341F823200C37BD465DF8047B2A
:10299000704700BF00E100E080B400AF034B5B680C
:1029A0001846BD465DF8047B704700BF0000084034
:1029B00080B483B000AF7860034A7B6893610C37C2
:1029C000BD465DF8047B70470000084080B483B0CA
:1029D00000AF78600549054BDA697B68DB4313403B
:1029E000CB610C37BD465DF8047B704700000840A2
:1029F00080B483B000AF78600549054BDA697B6825
:102A00001343CB610C37BD465DF8047B704700BFB4
:102A10000000084080B483B000AF064BDB697B60E8
:102A2000044B1A697B68134018460C37BD465DF8A5
:102A3000047B70470000084080B586B000AF786026
:102A400000237B6100233B61FEF7DEFFF86002E0BC
:102A50007B6901337B617B69032B0ADC16497A6948
:102A600013469B001344DB000B4418339B79002B67
:102A7000EED17B69042B02D1104B3B6114E07B68E3
:102A8000002B0FD00C497A6913469B001344DB00DE
:102A90000B44183301229A717A697B681A6000230B
:102AA0003B6101E0064B3B61F868FEF7BDFF3B6907
:102AB00018461837BD4680BDA0020020011000F066
:102AC000041000F080B500AF1D4B1B78002B01D027
:102AD000002332E01A4B01221A701A480121FEF736
:102AE000C3FB19480221FEF7C1FD18480821FEF773
:102AF000A5FA16480121FEF7B7FB1548FFF70AFDB6
:102B00000720FFF763FF0720FFF752FFFFF72AFDBB
:102B10001E20FFF727FF1E20FFF70CFF0D480021A6
:102B2000A02201F0A3FD0C4B00221A700B4B0022D7
:102B30001A700B4B00221A600023184680BD00BF9C
:102B40004A0300200043020002001A006016100031
:102B5000B4460000A00200204803002049030020E2
:102B60004403002080B584B000AF78607B68032BFD
:102B700001D9154B23E0FEF747FFF86013497A6847
:102B800013469B001344DB000B4418339B7983F0FE
:102B90000103DBB2002B04D0F868FEF745FF0C4BB5
:102BA0000DE00A497A6813469B001344DB000B448E
:102BB000183300221A71F868FEF736FF0023184612
:102BC0001037BD4680BD00BF021000F0A0020020FB
:102BD000031000F080B586B000AFFEF715FF386136
:102BE000FFF718FFF860FB6823F003031846FFF7B0
:102BF000DFFEFB6803F00203002B39D01F4B0122DC
:102C00001A70FFF7C9FE78610220FFF7DFFE7B69CB
:102C10001A021B4B1B681B02D31A1B0ABB60B86845
:102C200000F032F800F094F9786900F0C3F9FFF78A
:102C3000B3FE78617B691A02114B1B681B02D31A21
:102C40001B0ABB600020FFF719FC03461A020C4B5D
:102C50001B681B02D31A1B0A7B600A4B1B78002BD4
:102C600003D0BA687B689A42CED8044B00221A700F
:102C70003869FEF7D9FE1837BD4680BD48030020ED
:102C80004003002049030020B0B586B000AF786053
:102C900000237B6153E1AD497A6913469B001344DD
:102CA000DB000B44183300225A71A8497A69134695
:102CB0009B001344DB000B4418331B79002B00F0FE
:102CC0003B81A2497A6913469B001344DB000B4405
:102CD000D3E90023796808464FF00001994208BF04
:102CE000904219D299497A6913469B001344DB003C
:102CF0000B44D3E900017B681A464FF00003801AA9
:102D000061EB0301914C7A6913469B001344DB008D
:102D10002344C3E900010FE18C497A6913469B0003
:102D20001344DB000B441833DB79002B0AD18749AD
:102D30007A6913469B001344DB000B4418330022CE
:102D40001A71E4E07B6818464FF000017F4C7A6905
:102D500013469B001344DB002344D3E90023821A6B
:102D600061EB0303C7E9022378497A6913469B00A4
:102D70001344DB000B440833D3E9004573497A69F7
:102D800013469B001344DB000B440833D3E90023B4
:102D9000D7E9020101F062F920462946801A61EB69
:102DA00003016A4C7A6913469B001344DB002344F9
:102DB000C3E9000165497A6913469B001344DB00AF
:102DC0000B4410331B68002B50DD60497A691346B1
:102DD0009B001344DB000B44103359685B487A694D
:102DE00013469B001344DB00034410331B68194453
:102DF00056487A6913469B001344DB0003441033A2
:102E0000596052497A6913469B001344DB000B4416
:102E100010335B68F32B7AD94C497A6913469B00CF
:102E20001344DB000B44D3E90023501C43F10001A1
:102E3000464C7A6913469B001344DB002344C3E9E4
:102E4000000142497A6913469B001344DB000B449E
:102E500010335B68A3F1F4013C487A6913469B0088
:102E60001344DB0003441033596050E037497A695A
:102E700013469B001344DB000B441033596833485E
:102E80007A6913469B001344DB00034410331B682C
:102E9000C91A2E487A6913469B001344DB00034489
:102EA0001033596029497A6913469B001344DB00AB
:102EB0000B4410335B68F32B29D924497A691346F4
:102EC0009B001344DB000B44D3E9002312F1FF30D5
:102ED00043F1FF311D4C7A6913469B001344DB001C
:102EE0002344C3E9000119497A6913469B0013443E
:102EF000DB000B4410335B68A3F1F40113487A69DB
:102F000013469B001344DB000344103359600F4900
:102F10007A6913469B001344DB000B4418331B688B
:102F2000002B09D009497A6913469B001344DB0042
:102F30000B44183301225A717B6901337B617B6931
:102F4000032B7FF7A8AE1837BD46B0BDA002002006
:102F500090B583B000AF00237B6022E014497A680B
:102F600013469B001344DB000B4418335B79002BA2
:102F700014D00F497A6813469B001344DB000B44BE
:102F800018331C6878680A497A6813469B00134412
:102F9000DB000B4420331B681946A0477B680133D4
:102FA0007B607B68032BD9DD0C37BD4690BD00BF2D
:102FB000A002002080B58AB000AF78604FF0FF32E9
:102FC0004FF0FF33C7E9062300237B6227E0374930
:102FD0007A6A13469B001344DB000B4418331B79B9
:102FE000002B19D031497A6A13469B001344DB0049
:102FF0000B44D3E90001D7E90623994208BF904268
:103000000AD22A497A6A13469B001344DB000B4418
:10301000D3E90023C7E906237B6A01337B627B6A1D
:10302000032BD4DD224B00221A70D7E90623B3F11B
:10303000FF3F08BFB2F1FF3F35D0D7E90623C7E90C
:1030400004231C4BFB60FB681A464FF00003D7E9D2
:103050000401994208BF904201D202460B46C7E9DB
:103060000623154B1B7883F00103DBB2002B05D040
:103070007B6823F07F43114A136002E00F4A7B68AC
:1030800013600220FFF794FCBA697B68134423F0B5
:103090007F4300201946FFF70FFA054B01221A70F3
:1030A0000220FFF7A5FC2837BD4680BDA002002006
:1030B000490300209BFFFF0048030020400300203D
:1030C000B0B58AB000AF78603960874B07F108046B
:1030D0001D460FCD0FC495E8030084E803007B680C
:1030E000002B01D1814BFBE03B68002B01D1804BD1
:1030F000F6E078680021582201F0B8FA3B681B68B6
:103100007C4A93420AD17B687B4ADA647B687B4ABB
:103110005A627B684FF440229A6221E03B681B6848
:10312000774A93420AD17B68764ADA647B68764AAA
:103130005A627B684FF450229A6211E03B681B6828
:10314000724A93420AD17B68714ADA647B68714A99
:103150005A627B684FF460229A6201E0644BBFE0E0
:103160007A683B6814461D460FCD0FC495E80700EA
:1031700084E807003B685B7D012B01D10123BB750F
:103180003B689B7D002B02D100233B8319E03B6809
:103190009B7D012B03D14FF400733B8311E03B680F
:1031A0009B7D022B03D14FF480733B8309E03B6886
:1031B0009B7D032B03D14FF440733B8301E04C4BC9
:1031C0008EE03B681B7D012B05D100237B754FF4FE
:1031D0007A733B6102E03B689B683B614E4801218A
:1031E000FEF742F84D480121FEF73EF87B68DB6CA4
:1031F00018460121FEF738F83B681A6807F1080302
:1032000010461946FFF7C2FA3B681B7D002B0BD115
:103210003B68DB7D002B07D13B681B683A6812686E
:10322000126842F480321A603B68DB7D002B08D1C3
:103230003B681B683A681279120242F00F025A6525
:1032400007E03B681B683A681279120242F00B02F1
:103250005A657868012100F0D9F878627B6A002B02
:1032600001D07B6A3CE0FEF7CFFB38622C4B1B7829
:1032700083F00103DBB2002B08D0294B01221A7026
:10328000386AFEF7D1FBFFF71DFC02E0386AFEF753
:10329000CBFB3B681B7D012B09D17B68543318465F
:1032A000FFF7CAFB0346002B01D01E4B18E0FDF7C9
:1032B00073FA7B681C3318460021FDF713FA0346A6
:1032C000002B01D0184B0BE07B68203318460021FF
:1032D000FDF708FA0346002B01D0134B00E0002352
:1032E00018462837BD46B0BDB8460000012000F0A2
:1032F000022000F000C000400002040001000C00A9
:1033000000C400400012040001000D0000C800408D
:103310000022040001000E004081040000D20400DD
:103320004B030020042000F0092000F080B588B095
:1033300002AFF860B9607A603B60FB681B7D012BCF
:1033400001D1114B1CE0F868B9683A6800F044FC00
:1033500078617B69002B01D07B6911E07B68002BD1
:1033600001D10A4B0CE00A4B0093F868B9687A68FF
:103370003B6800F06DFBF86800F066FCFB685B6C76
:1033800018461837BD4680BD082000F0022000F026
:10339000E933000080B586B000AFF860B9607A60AC
:1033A000FB681B7D012B01D10D4B15E0F868B96856
:1033B0007A6800F011FC78617B69002B01D07B6991
:1033C0000AE0F868B9687A68064B00F0A3FBF86871
:1033D00000F03AFCFB685B6C18461837BD4680BDB0
:1033E000082000F0E933000080B485B000AFF86039
:1033F000B9607A60FB68BA685A64FB68012283F896
:1034000050201437BD465DF8047B704780B58AB004
:1034100000AF78600B46FB707B681B79FB607B68B4
:103420001B689B4A934240F00B81FB68002B1BD02A
:10343000FB68012B16D0FB68022B11D0FB68032B15
:103440000CD0FB68042B07D0FB68052B01D10223AD
:103450000BE04FF0FF3308E0012306E0042304E013
:10346000022302E0042300E00423BB61FB68002B7D
:103470001BD0FB68012B16D0FB68022B11D0FB6818
:10348000032B0CD0FB68042B07D0FB68052B01D164
:1034900002230BE04FF0FF3308E0012306E0042392
:1034A00004E0022302E0042300E004237B61FB68C4
:1034B000002B1BD0FB68012B16D0FB68022B11D010
:1034C000FB68032B0CD0FB68042B07D0FB68052B93
:1034D00001D101230BE04FF0FF3308E0012306E0A8
:1034E000022304E0022302E0042300E004233B6102
:1034F000FB68002B1BD0FB68012B16D0FB68022B4E
:1035000011D0FB68032B0CD0FB68042B07D0FB68A1
:10351000052B01D101230BE04FF0FF3308E001231D
:1035200006E0022304E0022302E0042300E0042377
:103530007A68D363FB68002B1BD0FB68012B16D085
:10354000FB68022B11D0FB68032B0CD0FB68042B0B
:1035500007D0FB68052B01D100230BE04FF0FF33B0
:1035600008E0072306E00D2304E00B2302E0072315
:1035700000E00A237B62FB68002B1BD0FB68012B59
:1035800016D0FB68022B11D0FB68032B0CD0FB6814
:10359000042B07D0FB68052B01D101230BE04FF072
:1035A000FF3308E0082306E00C2304E00A2302E0CE
:1035B000062300E00B233B62FB68002B1BD0FB685B
:1035C000012B16D0FB68022B11D0FB68032B0CD00B
:1035D000FB68042B07D0FB68052B01D10D230BE002
:1035E0004FF0FF3308E00D2306E00F2304E009232A
:1035F00002E0052300E00C23FB61FB68002B1BD0DD
:10360000FB68012B16D0FB68022B11D0FB68032B43
:103610000CD0FB68042B07D0FB68052B01D10E23CF
:103620000BE04FF0FF3308E00E2306E00E2304E02A
:10363000082302E0042300E00D237A6813640EE1FE
:103640007B681B68134A934240F09780FB68002B0D
:103650000CD0FB68012B07D0FB68022B01D10323A0
:1036600005E04FF0FF3302E0032300E00223BB61DB
:10367000FB68002B10D0FB68012B07D0FB68022BE6
:1036800001D1032309E04FF0FF3306E0032304E0F8
:1036900000C0004000C4004002237B61FB68002B97
:1036A0000CD0FB68012B07D0FB68022B01D105234E
:1036B00005E04FF0FF3302E0032300E001233B610C
:1036C000FB68002B0CD0FB68012B07D0FB68022B9A
:1036D00001D1052305E04FF0FF3302E0032300E0B2
:1036E00001237A68D363FB68002B0CD0FB68012BA5
:1036F00007D0FB68022B01D1072305E04FF0FF3311
:1037000002E0002300E000237B62FB68002B0CD06A
:10371000FB68012B07D0FB68022B01D1062305E0D3
:103720004FF0FF3302E0012300E001233B62FB681E
:10373000002B0CD0FB68012B07D0FB68022B01D1BA
:10374000002305E04FF0FF3302E0022300E00723EF
:10375000FB61FB68002B0CD0FB68012B07D0FB68DA
:10376000022B01D1012305E04FF0FF3302E00323D8
:1037700000E008237A68136471E07B681B68994A4B
:1037800093426AD1FB68002B07D0FB68012B01D163
:10379000012303E04FF0FF3300E00223BB61FB682D
:1037A000002B07D0FB68012B01D1012303E04FF070
:1037B000FF3300E002237B61FB68002B07D0FB682E
:1037C000012B01D1012303E04FF0FF3300E002237E
:1037D0003B61FB68002B07D0FB68012B01D1012363
:1037E00003E04FF0FF3300E002237A68D363FB6805
:1037F000002B07D0FB68012B01D1032303E04FF01E
:10380000FF3300E002237B62FB68002B07D0FB68DC
:10381000012B01D1042303E04FF0FF3300E0032329
:103820003B62FB68002B07D0FB68012B01D105230D
:1038300003E04FF0FF3300E00423FB61FB68002B43
:1038400007D0FB68012B01D1062303E04FF0FF33C3
:1038500000E005237A68136401E0634BBEE0FB7867
:10386000002B7ED07B681B7D002B3DD1BB69DAB27B
:103870007B6A1046194604220023FEF763FD7B692C
:10388000DAB23B6A1046194602220023FEF75AFDBF
:103890007B689B7D002B03D07B689B7D012B09D12E
:1038A0003B69DAB2FB691046194604220023FEF791
:1038B00049FD08E03B69DAB2FB691046194604226B
:1038C0000123FEF73FFD7B68DB7D002B40F0858008
:1038D0007B68DB6BDAB27B681B6C104619460422EE
:1038E0000123FEF72FFD78E0BB69DAB27B6A104650
:1038F000194602220023FEF725FD7B69DAB23B6AF6
:103900001046194604220023FEF71CFD7B689B7DB0
:10391000002B03D07B689B7D012B09D13B69DAB278
:10392000FB691046194602220023FEF70BFD08E052
:103930003B69DAB2FB691046194602220123FEF701
:1039400001FD7B68DB7D002B47D17B68DB6BDAB246
:103950007B681B6C1046194602220123FEF7F2FC1D
:103960003BE0BB69DAB27B6A1046194602220023AB
:10397000FEF7E8FC7B69DAB23B6A10461946022280
:103980000023FEF7DFFC7B689B7D002B03D07B6868
:103990009B7D012B09D13B69DAB2FB6910461946C0
:1039A00002220023FEF7CEFC08E03B69DAB2FB6995
:1039B0001046194602220123FEF7C4FC7B68DB7D1A
:1039C000002B0AD17B68DB6BDAB27B681B6C10467C
:1039D000194600220023FEF7B5FC002318462837BD
:1039E000BD4680BD00C80040022000F080B586B012
:1039F00000AFF860B9607A60FEF706F878617B681E
:103A00003B613B6900225A643B69002283F84820ED
:103A10003B6900229A633B691B7D012B04D13B6902
:103A20005B6D1846FFF79EF83B69DB6A002B06D0FA
:103A30003B69DB6A3A69526B3869002198477869BB
:103A4000FDF7F2FF012318461837BD4680BD00BFC1
:103A500080B58EB006AFF860B9607A603B60FB68F5
:103A6000002283F85020FB683A685A63FB681B68A1
:103A70004FF44062DA60FB68BA6ADA62FB68DB68BE
:103A8000082B02D90123FB7501E00023FB75FB68BD
:103A9000DB68082B08D9FB681B682433FB61FB68D3
:103AA0001B683C33BB6107E0FB681B681C33FB6190
:103AB000FB681B683433BB61FB68196AFB689A6A50
:103AC000012300933B680193FB7D0293104B03930A
:103AD000FB680493084611467A68FB69FCF7C2FE4E
:103AE000FB68D969FB685A6A012300933B6801931C
:103AF000FB7D0293002303930023049308461146A1
:103B0000BA69BB68FCF78AFE2037BD4680BD00BF9E
:103B1000ED39000080B58EB006AFF860B9607A600C
:103B20003B60FB68002283F85020FB687A685A6388
:103B3000FB681B684FF44062DA60FB683A68DA623F
:103B4000FB68DB68082B02D90123FB7501E0002329
:103B5000FB75FB68DB68082B08D9FB681B682433FE
:103B6000FB61FB681B683C33BB6107E0FB681B68BB
:103B70001C33FB61FB681B683433BB61FB68186A4C
:103B8000FB68996AFB6803F13002002300937B68AD
:103B90000193FB7D02930F4B0393FB680493FB6936
:103BA000FCF760FEFB68D969FB685A6A0123009341
:103BB0007B680193FB7D029300230393002304930E
:103BC00008461146BA69BB68FCF728FE2037BD4697
:103BD00080BD00BFED39000080B586B000AFF86051
:103BE000B9607A60FB68002B01D1144B21E0BB68FF
:103BF000002B06D07B68002B03D07B68B3F5806F69
:103C000001DD0F4B15E0FDF7FFFE7861FB6893F8CF
:103C10004830DBB2002B04D07869FDF705FF094B73
:103C200007E0FB68012283F848207869FDF7FCFE75
:103C3000002318461837BD4680BD00BF012000F0A4
:103C4000022000F0032000F080B582B000AF786061
:103C50000020FDF7F7FE0346002B0CD001E0FEF735
:103C60005FF87B6893F85030DBB283F00103DBB27E
:103C7000002BF4D109E000BF7B6893F85030DBB231
:103C800083F00103DBB2002BF6D10837BD4680BDBF
:103C9000064880470649074A074B9A42BEBF51F87B
:103CA000040B42F8040BF8E7FCF748FA3D3E00002D
:103CB000E4460000000000207C000020FEE700BF7A
:103CC00080B400AF044BDB6C1B0EDBB21846BD4664
:103CD0005DF8047B704700BFB081E00F80B582B013
:103CE00000AF00F01FF87860074B5B6803F00F032C
:103CF0001A467B68D3407B60044A7B6813607B680C
:103D000018460837BD4680BD00800C400C000020DE
:103D100080B400AF024B1846BD465DF8047B704787
:103D2000006CDC0280B582B000AF334BDB6A03F479
:103D30007053B3F5805F0AD0B3F5005F03D0B3F5DD
:103D4000006F08D00BE02D4B1B687B6047E04FF401
:103D500000437B6043E02A4B1B687B603FE0264BBF
:103D6000DB6803F4E063B3F5007F1BD0B3F5007F9D
:103D700005D8002B24D0B3F5807F16D02BE0B3F507
:103D8000806F09D0B3F5A06F03D0B3F5407F06D0A4
:103D900021E01C4B7B6021E01B4B7B601EE01B4B3A
:103DA0007B601BE01A4B7B6018E0FFF789FF03463E
:103DB000122B02D9174B7B6010E0174B7B600DE094
:103DC000FFF77EFF0346122B02D9144B7B6005E000
:103DD000134B7B6002E000237B6000BF00BF064BFB
:103DE0001B6803F4E0339B0B01337A68B2FBF3F3F7
:103DF00018460837BD4680BD00800C4008000020F2
:103E000004000020003FAB01406F4001809FD500BF
:103E1000C0D8A70040B56400C0CF6A00804F120030
:103E200040420F0080B400AF034B1B681846BD46EC
:103E30005DF8047B704700BF0400002080B400AF31
:103E4000054A054BD3F8883043F47003C2F8883034
:103E5000BD465DF8047B704700ED00E080B400AF24
:103E60004FF400431846BD465DF8047B704700BF21
:103E700080B400AF4FF47A731846BD465DF8047BFA
:103E8000704700BF80B400AF034B1B681846BD46A7
:103E90005DF8047B704700BF0800002080B483B049
:103EA00000AF0346FB71084997F907305B09FA79BF
:103EB00002F01F02012000FA02F241F823200C3721
:103EC000BD465DF8047B704700E100E080B483B03C
:103ED00000AF0346FB71094997F907305B09FA798E
:103EE00002F01F02012000FA02F2603341F82320A1
:103EF0000C37BD465DF8047B704700BF00E100E071
:103F000080B483B000AF7860044A7B68C2F81C318B
:103F10000C37BD465DF8047B704700BF0060004071
:103F200080B483B000AF074BD3F810317B60054BF2
:103F3000D3F814217B68134018460C37BD465DF852
:103F4000047B70470060004080B485B000AF7860AB
:103F50007B68FB60FB6893FAA3F3BB60BB68B3FAB2
:103F600083F318461437BD465DF8047B704700BFE5
:103F700080B500AF0B20FFF7A9FF0B20FFF78EFFE6
:103F80000120FFF7A3FF0120FFF788FF80BD00BFDE
:103F900080B584B000AF03463960FB71FDF734FD96
:103FA000F860FB7904493A6841F82320F868FDF786
:103FB0003BFD1037BD4680BD4C03002080B584B06A
:103FC00000AF786019E07868FFF7BEFFF860FB6823
:103FD000012202FA03F3DB431A467B6813407B603D
:103FE000094AFB6852F82330BB60BB68002B04D041
:103FF000FB68DAB2BB68104698477B68002BE2D1B9
:104000001037BD4680BD00BF4C03002080B582B094
:1040100000AFFFF785FF024645F2555313407B6022
:104020007868FFF76DFF7868FFF7C8FF0837BD466F
:1040300080BD00BF80B582B000AFFFF771FF0246C0
:104040004AF6AA2313407B607868FFF759FF786827
:10405000FFF7B4FF0837BD4680BD00BF53B94AB96A
:10406000002908BF00281CBF4FF0FF314FF0FF3080
:1040700000F03CB882B0EC462DE9005000F01EF88C
:10408000DDF804E002B00CBC704700BF2DE9F04140
:10409000069C154606460F46984600F029F805FB93
:1040A00001F300FB0838A5FB0023B21A434467EB79
:1040B0000303C4E90023BDE8F08100BF2DE9F0410E
:1040C000069C904606460F461D4600F05FF900FB31
:1040D00005F5A0FB082308FB0155B21A2B4467EB3A
:1040E0000303C4E90023BDE8F08100BF704700BFAF
:1040F00000292DE9F043C0F2A6800026002BC0F273
:104100009C80884694469E46154604460F46002BE2
:104110003DD18A4259D9B2FA82F33BB1C3F12002B0
:104120009F4020FA02F29D4017439C40290C220C2C
:10413000B7FBF1FEA8B201FB1E7742EA074700FB7E
:104140000EF3BB420AD97F190EF1FF3280F00581D0
:10415000BB4240F20281AEF1020E2F44FF1AA4B21C
:10416000B7FBF1F301FB137744EA074700FB03F0C9
:10417000B84208D97F1903F1FF3280F0F080B842CD
:1041800040F2ED80023B43EA0E43002203E08B4203
:104190000FD900221346341C18BF012460424FF08F
:1041A000000565EB45015840514000196941BDE8E3
:1041B000F083B3FA83F2002A40F086808B4202D368
:1041C000844500F2DB800123E5E712B90123B3FB4C
:1041D000F2F5B5FA85F000283BD1781B4FEA154E71
:1041E0001FFA85FC0122B0FBFEF8210C0EFB18071C
:1041F00041EA07470CFB08F3BB4207D97F1908F1D6
:10420000FF3102D2BB4200F2BD808846FF1AA4B241
:10421000B7FBFEF30EFB137744EA07470CFB03FCE6
:10422000BC4507D97F1903F1FF3102D2BC4500F22A
:10423000A7800B4643EA0843ADE752426FEA060601
:1042400063EB43035DE7404261EB41014FF0FF3612
:1042500054E7C0F1200224FA02F107FA00F3854086
:104260004FEA154ED7401943B7FBFEF20B0C0EFB7D
:1042700012771FFA85FC43EA07430CFB02F79F42C3
:1042800004FA00F407D95B1902F1FF3074D29F429F
:1042900072D9023A2B44DF1B89B2B7FBFEF80EFB42
:1042A000187341EA03430CFB08F79F4208D95B19D6
:1042B00008F1FF315CD29F425AD9A8F102082B4481
:1042C000D81B48EA02428EE7C2F120032CFA03F120
:1042D0000EFA02FE20FA03F741EA0E0E08FA02F087
:1042E00028FA03F14FEA1E453843B1FBF5F8030CF9
:1042F00005FB18111FFA8EF743EA014107FB08F38B
:104300008B420CFA02FC09D911EB0E0108F1FF39BE
:1043100030D28B422ED9A8F102087144C91A80B25A
:10432000B1FBF5F305FB131140EA014107FB03F76D
:104330008F4208D911EB0E0103F1FF3016D28F42E4
:1043400014D9023B714443EA0843C91BA3FB0C89FF
:10435000494509D305D000221DE79646FEE61346DF
:1043600011E794404445F6D2013BF4E70346EAE7FF
:104370008846A5E7C846D1E702468CE713460AE718
:10438000023B57E7A8F102082F443FE72DE9F0412F
:10439000002B44D18A42154604464FD9B2FA82F71F
:1043A0000E464FB1C7F12003B94020FA03F602FAD6
:1043B00007F50E4300FA07F44FEA154E230CB6FB3F
:1043C000FEF0AFB20EFB106143EA014307FB00F1C0
:1043D000994209D95B1900F1FF3280F0EC809942D3
:1043E00040F2E98002382B445A1AA4B2B2FBFEF321
:1043F0000EFB132244EA024207FB03F7974208D957
:10440000521903F1FF3180F0D880974240F2D580F5
:10441000023B43EA004000263146BDE8F0818B4272
:1044200047D8B3FA83F6002E48D18B4202D382429A
:1044300000F2CD8001203146BDE8F08112B901259E
:10444000B5FBF2F5B5FA85F8B8F1000F77D14A1B44
:104450004FEA154EAFB20126B2FBFEF0230C0EFB65
:10446000102143EA014107FB00F38B4207D94919A8
:1044700000F1FF3202D28B4200F2BA801046C91A14
:10448000A4B2B1FBFEF30EFB131144EA014407FB97
:1044900003F7A74208D9641903F1FF3280F08F8037
:1044A000A74240F28C80023B43EA00403146BDE81F
:1044B000F081002630463146BDE8F081C6F1200487
:1044C00022FA04F5B3402B4320FA04FC01FA06F764
:1044D00021FA04F54FEA134E4CEA0707B5FBFEF844
:1044E000390C0EFB18551FFA83FC41EA05450CFBFD
:1044F00008F1A94202FA06F204D9ED1808F1FF34D6
:1045000067D3A0466D1ABFB2B5FBFEF40EFB14557F
:1045100047EA05410CFB04FC8C4504D9C91804F199
:10452000FF355CD32C4644EA0844CCEB0101A4FBE4
:104530000223994248D344D0204600266CE7C8F1B4
:10454000200401FA08F305FA08F520FA04F7E1401F
:104550004FEA154E1F43B1FBFEF63A0C0EFB161147
:104560001FFA85FC42EA01430CFB06F29A4200FA6C
:1045700008F407D95B1906F1FF3137D29A4235D9D1
:10458000023E2B449B1ABFB2B3FBFEF00EFB10336E
:1045900047EA03430CFB00F1994207D95B1900F18C
:1045A000FF3221D299421FD902382B445A1A40EACD
:1045B0000646674650E7104616E70B4629E71346BE
:1045C00072E7B0409042B7D2601E002624E7304622
:1045D00022E7A94295D9A8F102081D4492E78C452B
:1045E000A0D9023C19449EE71046DFE70E46C9E712
:1045F0000238294443E700BF08B5074B044613B10E
:104600000021AFF30080054B1868836A03B1984717
:10461000204600F033F800BF00000000D446000040
:1046200070B50E4B0E4CE41AA41000251E46A54290
:1046300004D056F8253098470135F8E700F020F807
:10464000084C094BE41AA41000251E46A54204D0CC
:1046500056F8253098470135F8E770BD7000002006
:104660007000002074000020700000200244034607
:10467000934202D003F8011BFAE77047FEE700BF40
:10468000F8B500BFF8BC08BC9E467047F8B500BF3F
:10469000F8BC08BC9E46704700C400400100000002
:1046A00040420F000800000000000000000101006F
:1046B00000000000010000000500000000000000F4
:1046C00040420F0005010000000000000000000053
:0C46D0004300000010000020000000006B
:0846DC0060BAFF7F010000003D
:1046E4008C030020006CDC0200800000809FD50059
:1046F40000000000000000000000000000000000B6
:1047040000000000000000000000000000000000A5
:10471400D04600000000000000000000000000007F
:104724000000000000000000000000000000000085
:104734000000000000000000000000000000000075
:104744000000000000000000000000000000000065
:0C47540005010000E10000000000000072
:0400000300003C912C
:00000001FF
