:1000000000800020B1010000DD010000DD010000E2
:10001000DD010000DD010000DD010000DD01000068
:10002000DD010000DD010000DD010000DD01000058
:10003000DD010000DD010000DD010000DD01000048
:10004000DD01000025190000DD010000DD010000D8
:10005000DD010000DD010000DD010000DD01000028
:10006000DD010000DD010000DD010000DD01000018
:10007000DD010000DD010000DD010000DD01000008
:10008000DD010000DD010000DD010000DD010000F8
:10009000DD010000DD010000DD010000DD010000E8
:1000A000DD010000DD010000DD010000DD010000D8
:1000B000DD010000DD010000DD010000DD010000C8
:1000C000DD010000DD010000DD010000DD010000B8
:1000D000DD010000DD010000DD010000DD010000A8
:1000E00010B5054C237833B9044B13B10448AFF372
:1000F00000800123237010BD780000200000000064
:100100009C1B0000084B10B51BB108480849AFF311
:1001100000800848036803B910BD074B002BFBD0D3
:10012000BDE81040184700BF000000009C1B000005
:100130007C0000207400002000000000154B002B04
:1001400008BF134B9D46A3F5803A00218B460F460E
:100150001348144A121A01F0FBFC0F4B002B00D07D
:1001600098470E4B002B00D0984700200021040038
:100170000D000D48002802D00C48AFF3008001F0BC
:10018000C1FC2000290001F051FC01F0A7FC00BFD8
:1001900000000800008000200000000000000000B7
:1001A00078000020A80000200000000000000000EF
:1001B000064880470649074A074B9A42BEBF51F896
:1001C000040B42F8040BF8E7FFF7B8FF5D030000EB
:1001D000A81B00000000002078000020FEE700BF00
:1001E00080B400AF044BDB6C1B0EDBB21846BD467F
:1001F0005DF8047B704700BFB081E00F80B582B02E
:1002000000AF00F01FF87860074B5B6803F00F0346
:100210001A467B68D3407B60044A7B6813607B6826
:1002200018460837BD4680BD00800C4008000020FD
:1002300080B400AF024B1846BD465DF8047B7047A2
:10024000006CDC0280B582B000AF334BDB6A03F494
:100250007053B3F5805F0AD0B3F5005F03D0B3F5F8
:10026000006F08D00BE02D4B1B687B6047E04FF41C
:1002700000437B6043E02A4B1B687B603FE0264BDA
:10028000DB6803F4E063B3F5007F1BD0B3F5007FB8
:1002900005D8002B24D0B3F5807F16D02BE0B3F522
:1002A000806F09D0B3F5A06F03D0B3F5407F06D0BF
:1002B00021E01C4B7B6021E01B4B7B601EE01B4B55
:1002C0007B601BE01A4B7B6018E0FFF789FF034659
:1002D000122B02D9174B7B6010E0174B7B600DE0AF
:1002E000FFF77EFF0346122B02D9144B7B6005E01B
:1002F000134B7B6002E000237B6000BF00BF064B16
:100300001B6803F4E0339B0B01337A68B2FBF3F311
:1003100018460837BD4680BD00800C400400002010
:1003200000000020003FAB01406F4001809FD500DE
:10033000C0D8A70040B56400C0CF6A00804F12004B
:1003400040420F0080B400AF034B1B681846BD4607
:100350005DF8047B704700BF0000002080B400AF50
:10036000054A054BD3F8883043F47003C2F888304F
:10037000BD465DF8047B704700ED00E080B400AF3F
:100380004FF400431846BD465DF8047B704700BF3C
:1003900080B400AF4FF47A731846BD465DF8047B15
:1003A000704700BF80B400AF034B1B681846BD46C2
:1003B0005DF8047B704700BF0400002080B487B064
:1003C00000AFF860B9607A60FB6803F10473DA008B
:1003D000BB6813449B007B617B697A681A601C3799
:1003E000BD465DF8047B704780B485B000AF78608F
:1003F00039607B6803F10473DA003B6813449B00A7
:10040000FB60FB681B6818461437BD465DF8047B2B
:10041000704700BF80B485B000AF78607B68002B68
:1004200004D07B68B3F5004F00D800BF7B68B3FAF7
:1004300083F3C3F11F03FB60FB6818461437BD4606
:100440005DF8047B704700BF80B400AF044BDB6CE9
:100450001B0EDBB21846BD465DF8047B704700BF3B
:10046000B081E00F80B584B000AF78600123FB60FD
:100470007B68114A934204D80023FB600023BB60D1
:1004800008E07B680D4A934202D80123BB6001E07B
:100490000223BB600A481E21FA68FFF78FFF084954
:1004A000074B5B6823F48072BB681B0213434B60ED
:1004B0001037BD4680BD00BF00366E01006CDC0207
:1004C00000800C4080B582B000AF05481E21FFF7C8
:1004D0008BFF78607B6818460837BD4680BD00BF3B
:1004E00000800C4080B582B000AF214B5B6903F403
:1004F000E063B3F5007F1CD0B3F5007F05D8002B77
:1005000025D0B3F5807F1FD02AE0B3F5C06F24D08B
:10051000B3F5E06F1ED0B3F5407F21D1FFF794FF14
:100520000346122B02D9134B7B601CE0124B7B60FD
:1005300019E0FFF789FF0346122B02D90F4B7B60AE
:1005400011E00F4B7B600EE00E4B7B600BE00E4B1F
:100550007B6008E00D4B7B6005E00D4B7B6002E0AB
:1005600000237B6000BF7B6818460837BD4680BD0E
:1005700000800C40804F120040420F0040B56400E4
:10058000C0CF6A00C0D8A700809FD500406F40014F
:10059000003FAB0180B582B000AF0D4800F096FA85
:1005A0000346FB70FB78072B05D0092B07D1FFF71B
:1005B00049FE786006E0FFF795FF786002E00023CF
:1005C0007B6000BF7B6818460837BD4680BD00BF12
:1005D00006000C0080B485B000AF78603960284B0D
:1005E000DB6B002B14BF01230023BB72244B41F6AD
:1005F0007132DA63224B5B6803F00703FB60FB6830
:10060000012B01D9042B02D10023FB7202E001234C
:10061000FB7200BF7B681B4A934207D9FB7A002B11
:1006200001D0052300E00423FB6016E07B68154A37
:1006300093420BD87B68144A934207D9FB7A002B6C
:1006400001D0032300E00123FB6006E0FB7A002BCE
:1006500001D0022300E00023FB600949084B5B68DE
:1006600023F00702FB6813434B60BB7A002B02D0D8
:10067000034B0022DA631437BD465DF8047B7047F4
:1006800000000C400048E8010024F40080B500AFF1
:10069000FFF7CEFD034618460021FFF79BFF80BD04
:1006A00080B582B000AF7860396078683968FFF74C
:1006B00091FF0837BD4680BD90B585B000AF78602A
:1006C0000023BB607B68344A934203D0334A934291
:1006D00000D000E000BF786800F0F8F90346FB6046
:1006E0007B682D4A934203D02C4A934206D00CE0FB
:1006F0002B4B9B6A03F00303FB6006E0284B9B6ACD
:1007000003F00C039B08FB6000BFFB68032B3AD887
:1007100001A252F823F000BF4F0700002907000094
:100720003107000039070000FFF728FEB8602DE010
:10073000FFF738FEB86029E0FFF760FD0446FFF7D9
:10074000C1FE0346013324FA03F3BB601EE000231D
:10075000BB607B68104A934203D07B680F4A934288
:1007600010D10F4B9A6A7B680B498B4201D1102341
:1007700000E0142322FA03F3002B03D0FFF708FE56
:10078000B86003E002E00023BB6000BFBB6818460E
:100790001437BD4690BD00BF02001A0003001C00C4
:1007A00000800C4080B483B000AF7860094B5B6D73
:1007B00003F00103002B00D006E000BF054B1A6DCB
:1007C0007B681340002BF9D10C37BD465DF8047BE4
:1007D000704700BF00800C4080B582B000AF104869
:1007E00000F074F90346FB70FB78032B07D0092B4C
:1007F00009D0022B0BD1FFF7D5FD78600AE0FFF797
:10080000BDFD786006E0FFF71DFD786002E0002383
:100810007B6000BF7B6818460837BD4680BD00BFBF
:100820000723220080B586B000AF78600B46FB70CE
:1008300000233B617B681B0A03F00F03013B092B7C
:1008400045D801A252F823F0850800008B0800006B
:1008500071080000CF080000CF08000091080000D8
:100860009B080000CF080000CF080000A50800008A
:10087000194B7B61194800F03DF803461846FFF715
:10088000F1FD12E0164B7B610FE0164B7B610CE033
:10089000154B7B6101233B6107E0144B7B61102307
:1008A0003B6102E0124B7B6100BF7B681B0B03F0D6
:1008B0001F03FB603B69002B02D03869FFF772FF12
:1008C000FB787869F9681A46FFF778FD00E000BF09
:1008D0001837BD4680BD00BF40800C400043020079
:1008E00008800C4044800C4058800C4060800C40D4
:1008F00078800C4090B585B000AF78607B6803F4D9
:100900007813B3F5B01F00F0AB80B3F5B01F1AD861
:10091000B3F5402F00F0BF80B3F5402F08D8B3F5F2
:10092000003F3CD0B3F5802F2DD0002B27D0BEE068
:10093000B3F5801F3CD0B3F5A01F47D0B3F5602FAF
:1009400000F0AD80B3E0B3F5081F00F0AC80B3F564
:10095000081F0AD8B3F5D01F25D0B3F5E01F7AD011
:10096000B3F5C01F00F08980A1E0B3F5201F4ED081
:10097000B3F5281F62D0B3F5181F35D097E0FFF705
:1009800061FCF86096E0FFF75DFCF8604C4B9B68FB
:1009900003F00F031A46FB68D340FB608AE0FFF7C1
:1009A0002DFCF86086E04748FFF786FEF86081E09E
:1009B0004448FFF781FEF860414B9B6E03F0F00363
:1009C0001B091A46FB68D340FB6073E03D48FFF704
:1009D00073FEF8603A4B9B6E03F470631B0A1A4671
:1009E000FB68D340FB6065E03648FFF765FEF860C2
:1009F000334B9B6E03F440531C0B1020FFF70AFD92
:100A0000034623441A46FB68D340FB6052E02D485E
:100A1000FFF752FEF8602A4B9B6E03F440531B0B0A
:100A20001A46FB68D340FB60254BDB6F03F00703DE
:100A30000133FA68B2FBF3F3FB603BE02148FFF7B8
:100A40003BFEF8601E4B9B6E03F003031A46FB68E7
:100A5000D340FB602EE01C48FFF72EFEF86029E033
:100A60001948FFF729FEF860154B1B6F03F00303CD
:100A70001A46FB68D340FB601CE01348FFF71CFEDE
:100A8000F8600F4B1B6F03F030031B091A46FB681D
:100A9000D340FB600EE0FFF77DFDF8600AE0FFF752
:100AA00021FDF86006E0FFF797FEF86002E0002302
:100AB000FB6000BFFB6818461437BD4690BD00BF01
:100AC00000800C4002001A0003001C0080B485B0B6
:100AD00000AF78600123FB737B6803F00F03BB60FA
:100AE000BB68013B062B00F2938001A252F823F071
:100AF0000D0B0000430B00007F0B0000110C0000E9
:100B0000110C0000BB0B0000DD0B0000454BDB6A45
:100B100003F47053B3F5805F09D0B3F5005F03D0E1
:100B2000B3F5006F06D008E00223FB7308E003234F
:100B3000FB7305E00423FB7302E00523FB7300BF96
:100B400069E0384B9B6A03F00303022B06D0032BAA
:100B500007D0012B08D10323FB730FE00223FB73A3
:100B60000CE00623FB7309E02E4B9B6A03F48033F1
:100B7000002B02D00A23FB7300E000BF4BE0294B9F
:100B80009B6A03F00C03082B06D00C2B07D0042B18
:100B900008D10323FB730FE00223FB730CE0062351
:100BA000FB7309E01F4B9B6A03F48013002B02D0F8
:100BB0000A23FB7300E000BF2DE01A4B1B6803F013
:100BC0008053002B03D0B3F1805F03D023E00723D1
:100BD000FB7302E00923FB7300BF1CE0114BDB6ACF
:100BE00003F46033B3F5803F08D0B3F5003F08D07D
:100BF000B3F5004F08D10923FB7308E00223FB7310
:100C000005E00323FB7302E00123FB7300BF02E056
:100C10000023FB7300BFFB7B18461437BD465DF80D
:100C2000047B704700800C4080B588B000AF7860CE
:100C30000B46FB700323FB610323FB7600233B6120
:100C40007B6803F00F03FB60FB68013B062B00F29F
:100C5000208101A252F823F0750C00003B0D00002A
:100C60003B0D0000930E0000930E0000010E0000EB
:100C70002B0E0000FB78023B082B00F20C8101A236
:100C800052F823F0A90C0000B30C0000BD0C0000CA
:100C9000F70C0000970E0000970E0000970E000062
:100CA000970E0000970E00000423FB610023FB76E3
:100CB00029E00323FB610123FB7624E00223FB618F
:100CC0000223FB767748FFF7CDFBFFF73BFB02469D
:100CD000754B9A4206D9754A744B1B6843F0600302
:100CE000136010E0714A714B1B6823F0600343F0FE
:100CF0002003136007E00123FB610323FB766948AF
:100D0000FFF7B0FB00BFFB7E18460121012200F077
:100D1000D3F8FFF7BBFC654AFB6953626448FFF7F1
:100D2000E9FD03461846FFF79DFBFFF767FAB86039
:100D3000B8680021FFF7B4FCB0E0FB78013B092B59
:100D400000F2AB8001A252F823F000BF750D000045
:100D50007B0D00008B0D00009B0E00009B0E000021
:100D60009B0D00009B0E00009B0E00009B0E0000E0
:100D7000B70D000000237B6122E000200121012249
:100D800000F09AF802237B611AE001200121012280
:100D900000F092F801237B6112E0FFF72FFAB860B0
:100DA000B868FFF75FFB434804210122FFF706FB09
:100DB00003237B6104E000237B6101233B6100BFCF
:100DC000FB68022B0DD13949384B9B6A23F48033E1
:100DD00023F003037A691A433B691B0413438B62B4
:100DE0005CE03249314B9B6A23F4801323F00C03FF
:100DF0007A6992001A433B691B0513438B624DE0ED
:100E0000FB78072B02D0092B07D047E0274A274B56
:100E10001B6823F08053136006E0244A234B1B68B1
:100E200043F08053136000BF38E0FB78032B14D0ED
:100E3000092B22D0022B00D030E00020012101221A
:100E400000F03AF8194B40225A6200BF174BDB6A98
:100E500003F48033002BF9D01AE001200121012294
:100E600000F02AF8114B60225A6200BF0F4BDB6A78
:100E700003F40033002BF9D00AE00C4B20225A6215
:100E800000BF0A4BDB6A03F40043002BF9D000BF1C
:100E900004E000BF02E000BF00E000BF2037BD4615
:100EA00080BD00BF01366E010048E80100800C40A3
:100EB0000043020040800C4080B586B000AF03467E
:100EC000FB710B46BB7113467B71FB79042B48D831
:100ED00001A252F823F000BF250F0000170F0000F9
:100EE000FB0E0000ED0E0000090F000001233B6126
:100EF0000223FB6001237B611DE004233B61082387
:100F0000FB6003237B6116E010233B612023FB6021
:100F100005237B610FE040233B618023FB600723B7
:100F20007B6108E04FF480733B614FF40073FB601A
:100F300009237B6100BFBB79002B0ED00B4A3B69B4
:100F400013627B79002B0DD000BF09487969FFF748
:100F50004BFA0346002BF8D004E0044AFB68136206
:100F600000E000BF1837BD4680BD00BF00800C40C8
:100F70002C800C4080B487B000AFF860B9607A6014
:100F8000FB6803F10473DA00BB6813449B007B61C8
:100F90007B697A681A601C37BD465DF8047B704730
:100FA00080B485B000AFF860B9607A60FB681A68F9
:100FB000BB68DB431A407B681A43FB681A6014372E
:100FC000BD465DF8047B704780B483B000AF034634
:100FD0003960FB71FB79002B0DD0FB79012B0AD016
:100FE000FB79022B07D0FB79032B04D0FB79042B70
:100FF00001D0FB79052B0949FA793B68012000FAF9
:1010000003F318461346DB0013449B000B441033D4
:1010100058600C37BD465DF8047B704700600040A7
:1010200080B483B000AF03463960FB71FB79002BBD
:101030000DD0FB79012B0AD0FB79022B07D0FB796D
:10104000032B04D0FB79042B01D0FB79052B094934
:10105000FA793B68012000FA03F318461346DB00D7
:1010600013449B000B44103318600C37BD465DF8E9
:10107000047B70470060004080B586B000AFB96067
:101080007A601A460346FB731346BB7300237B61E9
:10109000FB7B002B0DD0FB7B012B0AD0FB7B022BB3
:1010A00007D0FB7B032B04D0FB7B042B01D0FB7B05
:1010B000052B7B68072B0ED87B689B001A460723FD
:1010C00003FA02F1FB7B7A689200934019481A46B2
:1010D000FFF766FF10E07B68083B7B617B699B0044
:1010E0001A46072303FA02F1FB7B7A6992009340C8
:1010F00011481A46FFF754FFBB7B104879681A461F
:10110000FFF738FF97F820300D4879681A46FFF747
:1011100031FF0C4A7B68012101FA03F3C2F81C314C
:1011200097F82430084879681A46FFF723FF1837E4
:10113000BD4680BD00610040046100400861004080
:101140000C610040006000401061004090B585B027
:1011500000AFB9607B600346FB731346BB73FB7B38
:10116000002B0DD0FB7B012B0AD0FB7B022B07D081
:10117000FB7B032B04D0FB7B042B01D0FB7B052BDB
:10118000BB7B002B0DD07B68002B05D0FB7B18466A
:10119000B968FFF745FF04E0FB7B1846B968FFF725
:1011A00013FFBB68072B1CD82A4CFA7B2948F97B14
:1011B0000B46DB000B449B0003445968BB689B0053
:1011C00018460F238340DB430B40B97BB86880008F
:1011D000814019431346DB0013449B0023445960AC
:1011E00024E01C4CFA7B1B48F97B0B46DB000B44CC
:1011F0009B00034408331968BB6803F18043083B34
:101200009B0018460F238340DB431940B87BBB6823
:1012100003F18043083B9B0000FA03F31943134694
:10122000DB0013449B00234408331960BB7B002B75
:101230000DD17B68002B05D0FB7B1846B968FFF702
:10124000EFFE04E0FB7B1846B968FFF7BDFE1437DC
:10125000BD4690BD0060004080B586B000AFF8602C
:10126000B9607A60BB68002B03D10A48FFF742FBE4
:10127000B860BB685A1E7B685B00B2FBF3F37B610E
:101280007B691B027B61FB687A695A611837BD462E
:1012900080BD00BF4081040080B582B000AF78609F
:1012A00039607B682C4A934207D07B682B4A934273
:1012B00003D07B682A4A934200D100BF786800F0CF
:1012C00051F87B681A683B681B8A43F001039BB2A4
:1012D00019463B689B7B002B02D04FF4806300E0F3
:1012E00000230B431A437B681A607B681A683B68CB
:1012F0001B7D002B02D04FF0005300E000231A4367
:101300007B681A603B689B7C002B07D03B68DB7CCA
:1013100043F01003DBB21A467B689A653B681B7B7F
:1013200043F480527B685A603B685A683B689B680C
:10133000786811461A46FFF78FFF3B685B7B002BEE
:1013400002D07B681022DA603B681B781A467B6803
:10135000DA600837BD4680BD00C0004000C40040D0
:1013600000C8004080B483B000AF78607B68244A36
:1013700093420FD07B68234A93420BD07B68224A6A
:10138000934207D07B68214A934203D07B68204A6E
:10139000934200D100BF7B6840F6AA62DA607B68A6
:1013A00000221A607B6841F205025A607B680022C5
:1013B0009A607B6800225A617B680022DA647B684D
:1013C00041F6F9729A647B6800225A657B680C4A80
:1013D000934202D17B6800221A657B6800229A65DD
:1013E0007B68084A934203D07B68074A934202D144
:1013F0007B680022DA650C37BD465DF8047B7047D8
:1014000000C0004000C4004000C8004000E00040B0
:1014100000E4004080B483B000AF78600B46FB70FE
:1014200000BF7B681B6903F04003002BF9D0FA78FA
:101430007B685A6300BF7B681B6903F02003002BA5
:10144000F9D07B68DB69DBB218460C37BD465DF826
:10145000047B704780B483B000AF0346FB7108493A
:1014600097F907305B09FA7902F01F02012000FAB0
:1014700002F241F823200C37BD465DF8047B70472B
:1014800000E100E080B483B000AF0346FB7109497E
:1014900097F907305B09FA7902F01F02012000FA80
:1014A00002F2603341F823200C37BD465DF8047B1F
:1014B000704700BF00E100E080B483B000AF786007
:1014C000044A7B68C2F81C310C37BD465DF8047BCA
:1014D000704700BF0060004080B483B000AF786008
:1014E0000649064BD3F810217B68DB431340C1F853
:1014F00010310C37BD465DF8047B7047006000403A
:1015000080B483B000AF78600649064BD3F8102151
:101510007B681343C1F810310C37BD465DF8047B7E
:10152000704700BF0060004090B585B002AF3960E1
:1015300011461A460346FB710B46BB7113467B717D
:10154000FA79BC797B7900933B7E01931046396828
:101550003A682346FFF790FD0C37BD4690BD00BFAB
:1015600080B400AFBD465DF8047B704780B500AF26
:101570000320032104220023FFF7E8FDB3483821AC
:10158000FFF748FF03461A46B14B1A70AF481421C3
:10159000FFF740FF03461A46AD4B1A70AB481021C7
:1015A000FFF738FF03461A46A94B1A7003200321A0
:1015B00004220123FFF7CAFD032003210422002394
:1015C000FFF7C4FDA1483921FFF724FF03461A465F
:1015D0009F4B1A709D48C121FFF71CFF03461A4616
:1015E0009B4B1A7099480021FFF714FF03461A46D7
:1015F000974B1A700320032104220123FFF7A6FD55
:101600000320032104220023FFF7A0FD8F483A2185
:10161000FFF700FF03461A468D4B1A708B480821CE
:10162000FFF7F8FE03461A46894B1A7087480921CE
:10163000FFF7F0FE03461A46854B1A70032003217C
:1016400004220123FFF782FD03200321042200234B
:10165000FFF77CFD7D483B21FFF7DCFE03461A4681
:101660007B4B1A7079480A21FFF7D4FE03461A46CD
:10167000774B1A7075480B21FFF7CCFE03461A46CC
:10168000734B1A700320032104220123FFF75EFD30
:101690000320032104220023FFF758FD6B483C215F
:1016A000FFF7B8FE03461A46694B1A7067480C21CB
:1016B000FFF7B0FE03461A46654B1A7063480D21CA
:1016C000FFF7A8FE03461A46614B1A700320032158
:1016D00004220123FFF73AFD032003210422002303
:1016E000FFF734FD59483D21FFF794FE03461A46A3
:1016F000574B1A7055480621FFF78CFE03461A46D1
:10170000534B1A7051480321FFF784FE03461A46D3
:101710004F4B1A700320032104220123FFF716FD0B
:101720000320032104220023FFF710FD47483E2138
:10173000FFF770FE03461A46454B1A7043480621D0
:10174000FFF768FE03461A46414B1A703F480321D3
:10175000FFF760FE03461A463D4B1A700320032133
:1017600004220123FFF7F2FC0320032104220023BB
:10177000FFF7ECFC35484121FFF74CFE03461A46C3
:10178000334B1A7031480021FFF744FE03461A46D6
:101790002F4B1A702D48E021FFF73CFE03461A46F6
:1017A0002B4B1A700320032104220123FFF7CEFCE8
:1017B0000320032104220023FFF7C8FC2348422111
:1017C000FFF728FE03461A46214B1A701F480221D4
:1017D000FFF720FE03461A461D4B1A701B487F2157
:1017E000FFF718FE03461A46194B1A70032003210F
:1017F00004220123FFF7AAFC032003210422002373
:10180000FFF7A4FC11480621FFF704FE03461A4621
:101810000F4B1A700320032104220123FFF796FCCB
:101820000320032104220023FFF790FC0748052131
:10183000FFF7F0FD03461A46054B1A7003200321FB
:1018400004220123FFF782FC80BD00BF00C40040DA
:1018500094000020B0B586B000AF11200521FFF73D
:10186000E3F91E480121FEF7DDFF1D480121FEF7C7
:10187000D9FF1C4B3C461D460FCD0FC495E8030015
:1018800084E80300184BBB600123BB734FF4007363
:101890003B823B4615481946FFF7FEFC134B40F2CE
:1018A0000B125A650320002104220023FFF74EFC8F
:1018B0000320012101220023FFF748FC032002211D
:1018C00004220123FFF742FC03200321042200230A
:1018D000FFF73CFC1837BD46B0BD00BF0012040046
:1018E00000D204007C1B0000809FD50000C4004093
:1018F00080B582B002AF0320042101220123FFF74B
:1019000025FC012300930320042101220123FFF77A
:101910000BFE0120FFF7B6FD0120FFF79BFDBD4642
:1019200080BD00BF80B500AF1020FFF7D5FD0320BC
:10193000032104220023FFF709FC3A48FE21FFF7A8
:1019400069FD03461A46384B1A703648A021FFF746
:1019500061FD03461A46344B5A703248A021FFF706
:1019600059FD03461A46304B9A7003200321042286
:101970000123FFF7EBFB2C4B5B7803F01003DBB28A
:10198000002B47D00320032104220023FFF7DEFBB6
:101990002448E221FFF73EFD03461A46224B1A7007
:1019A0002048A021FFF736FD03461A461E4BDA7089
:1019B0001C48A021FFF72EFD03461A461A4B1A7148
:1019C0000320032104220123FFF7C0FB032003218E
:1019D00004220023FFF7BAFB1248E321FFF71AFDA8
:1019E00003461A46104B1A700E48A021FFF712FD4D
:1019F00003461A460C4B5A710A48A021FFF70AFD0C
:101A000003461A46084B9A7103200321042201233E
:101A1000FFF79CFB1020FFF74FFD1020FFF770FD34
:101A200080BD00BF00C400409400002080B582B09B
:101A300000AFFFF795FDFFF70DFFFFF797FDFFF7ED
:101A400057FF1020FFF75CFD032003210422002331
:101A5000FFF77CFB1F480221FFF7DCFC03461A4618
:101A60001D4B1A700320032104220123FFF76EFB94
:101A70000320032104220023FFF768FB1548B0214F
:101A8000FFF7C8FC03461A46134B1A701148A021F1
:101A9000FFF7C0FC03461A460F4BDA710D48A02130
:101AA000FFF7B8FC03461A460B4B1A7203200321BA
:101AB00004220123FFF74AFB00237B6002E07B68DE
:101AC00001337B607B68B3F57A7FF8DB00237B60B2
:101AD000BAE700BF00C400409400002008B5074BDF
:101AE000044613B10021AFF30080054B1868836AE8
:101AF00003B19847204600F033F800BF0000000013
:101B0000981B000070B50E4B0E4CE41AA410002573
:101B10001E46A54204D056F8253098470135F8E70F
:101B200000F020F8084C094BE41AA41000251E46CA
:101B3000A54204D056F8253098470135F8E770BD26
:101B40006C0000206C000020700000206C00002061
:101B500002440346934202D003F8011BFAE77047A0
:101B6000FEE700BFF8B500BFF8BC08BC9E46704752
:101B7000F8B500BFF8BC08BC9E46704705000000E1
:101B80000000000040420F000501000000000000BE
:101B900000000000430000000C00002000000000D6
:081BA0009CE5FF7F010000003D
:101BA800006CDC0200800000809FD500000000006F
:101BB800000000000000000000000000000000001D
:101BC800000000000000000000000000941B00005E
:101BD80000000000000000000000000000000000FD
:101BE80000000000000000000000000000000000ED
:101BF80000000000000000000000000000000000DD
:101C080000000000000000000000000005010000C6
:081C1800E100000000000000E3
:04000003000001B147
:00000001FF
