S01B0000576F6E6465724765636B6F5F4D415833353130332E73333740
S113000000800020C9540000F5540000F55400009D
S1130010F5540000F5540000F5540000F5540000B8
S1130020F5540000F5540000F5540000F5540000A8
S1130030F5540000F5540000F5540000F554000098
S1130040B11D0000A5580000F5540000F55400004F
S1130050F5540000F5540000F5540000F554000078
S1130060F5540000F5540000F5540000CD5800008C
S1130070F5540000F5540000F5540000F554000058
S1130080F5540000F5540000F5540000F554000048
S1130090F5540000F5540000F5540000F554000038
S11300A0F5540000F5540000F5540000F554000028
S11300B0F5540000F55400001D300000F554000014
S11300C0F5540000F5540000F5540000F554000008
S11300D0F5540000F5540000F5540000F5540000F8
S11300E010B5054C237833B9044B13B10448AFF36E
S11300F000800123237010BD0002002000000000D6
S1130100D05F0000084B10B51BB108480849AFF395
S113011000800848036803B910BD074B002BFBD0CF
S1130120BDE81040184700BF00000000D05F000089
S1130130040200207C01002000000000154B002B6D
S113014008BF134B9D46A3F5803A00218B460F460A
S11301501348144A121A05F0E0FE0F4B002B00D08E
S113016098470E4B002B00D0984700200021040034
S11301700D000D48002802D00C48AFF3008005F0B4
S11301809BFE2000290000F093F905F081FE00BFDA
S113019000000800008000200000000000000000B3
S11301A00002002000080020000000000000000001
S11301B080B483B000AF7860044A7B68C2F81C3115
S11301C00C37BD465DF8047B704700BF00600040FB
S11301D080B483B000AF78600649064BD3F8102191
S11301E07B68DB431340C1F810310C37BD465DF822
S11301F0047B70470060004080B483B000AF786037
S11302000649064BD3F810217B681343C1F810311B
S11302100C37BD465DF8047B704700BF00600040AA
S113022080B400AFBD465DF8047B704780B500AF75
S1130230524B38221A70514B0C225A704F4B1022D9
S11302409A704F4B1B6818464C49032203F0C6FAB8
S11302504A4B39221A70494BE1225A70474B00220B
S11302609A70474B1B6818464449032203F0B6FAB8
S1130270424B3A221A70414B05225A703F4B0622D8
S11302809A703F4B1B6818463C49032203F0A6FAB8
S11302903A4B3B221A70394B07225A70374B0822CB
S11302A09A70374B1B6818463449032203F096FAB8
S11302B0324B3C221A70314B09225A702F4B0A22BE
S11302C09A702F4B1B6818462C49032203F086FAB8
S11302D02A4B3D221A70294B23225A70274B0A229B
S11302E09A70274B1B6818462449032203F076FAB8
S11302F0224B3E221A70214B23225A701F4B0A2292
S11303009A701F4B1B6818461C49032203F066FAB7
S11303101A4B41221A70194B00225A70174BC822EB
S11303209A70174B1B6818461449032203F056FAB7
S1130330124B42221A70114B0E225A700F4BFF229D
S11303409A700F4B1B6818460C49032203F046FAB7
S11303500C4B06221A700A4B1B68184609490122E5
S113036003F03CFA074B05221A70054B1B6818462C
S11303700449012203F032FA80BD00BF5405002075
S11303800000002050050020B0B588B000AF094B34
S11303903C1D1D460FCD0FC495E8070084E80700F7
S11303A0054B1A683B1D1046194603F0ADF820377B
S11303B0BD46B0BD485F000000000020B0B588B065
S11303C000AF094B3C461D460FCD0FC495E80F0006
S11303D084E80F00054B1A683B461046194604F0A2
S11303E0F5FD2037BD46B0BD645F00000401002068
S11303F080B485B000AFF860B9607A603B601437B0
S1130400BD465DF8047B704780B582B000AF78606C
S11304103960074B73221A70064B1B68184604494F
S11304200122054B04F0FEFF0837BD4680BD00BF26
S11304301005002004010020F103000080B500AF86
S11304401020FFF7C5FE074BFE221A70064B1B68EF
S113045018460449054A032303F08CF91020FFF7DA
S1130460A7FE80BD5005002000000020FE040020EF
S113047080B582B002AF032004210122012301F0E0
S1130480DDFF0123009301230193032004210422AF
S1130490012301F069FF05F0B7F90420034905F0D1
S11304A0C3F91020FFF7A8FEBD4680BD3D0400003F
S11304B080B584B002AFFFF7B3FEFFF765FFFFF727
S11304C07DFFFFF7B3FEFFF7D3FF02F077FB34485D
S11304D002F02EFB3860324B1A680023009310465A
S11304E0012164222F4B02F0B9FB2F4B02221A7018
S11304F02E4B1B6818462C49012203F06FF92A4B36
S1130500FE221A70294B1B6818462749284A0323E0
S113051003F030F9244BB1221A70244B1B6818469F
S11305202149244A032303F025F9234BDB7803F004
S11305301003DBB2002B25D01B4BE2221A701B4B9D
S11305401B68184618491D4A032303F013F9164B78
S1130550E3221A70154B1B6818461349184A0323E3
S113056003F008F9144B00225A701020FFF744FEE0
S11305700D4B02221A700D4B1B6818460A490122C2
S113058003F02CF900237B6002E07B6801337B607D
S11305907B68B3F57A7FF8DB00237B60BAE700BFA2
S11305A0F804002009040000500500200000002089
S11305B0FE0400200A050020FC040020020500209F
S11305C00605002080B483B000AF03463960FB7198
S11305D097F90730002B0BDA0D49FB7903F00F0371
S11305E0043B3A68D2B25201D2B20B441A7609E003
S11305F0084997F907303A68D2B25201D2B20B4493
S113060083F800230C37BD465DF8047B704700BFB8
S113061000ED00E000E100E080B584B000AF786058
S11306203960254B1B7883F00103DBB2002B01D02A
S1130630224B3DE07B68002B01D1214B38E001F0D7
S11306402BFAB8600023FB602BE01E49FA681346BE
S11306509B0013449B000B4410331B7883F001036D
S1130660DBB2002B1AD0FA687B681A601549FA6865
S113067013469B0013449B000B44103301221A7051
S11306801049FA6813469B0013449B000B44002254
S11306901A60B86801F010FA002309E0FB6801331E
S11306A0FB60FB680B2BD0DDB86801F005FA064B44
S11306B018461037BD4680BD1C020020028000F0A1
S11306C0018000F020020020048000F080B584B096
S11306D000AF01F0E1F9B860194B1B78002B04D08E
S11306E0B86801F0E9F9174B25E0154B01221A709F
S11306F0B86801F0E1F90023FB600CE01249FA68E4
S113070013469B0013449B000B44103300221A70C1
S1130710FB680133FB60FB680B2BEFDD0020042139
S1130720FFF750FF00233B70084B7B603B461846A5
S113073001F0AEFC002318461037BD4680BD00BF53
S11307401C020020038000F020020020000600208C
S113075080B58CB008AFF860B9607A603B607B68A4
S113076000933B680193002302933B7E0393FB6950
S1130770049397F8203005937B6A0693BB6A07932A
S113078000200021FA68BB6800F044F903461846CB
S11307901037BD4680BD00BF80B58CB008AFF8608F
S11307A0B9607A603B607B6800933B6801930023E7
S11307B002933B7E0393FB69049397F820300593DF
S11307C07B6A0693BB6A079300200121FA68BB6821
S11307D000F020F9034618461037BD4680BD00BF1F
S11307E080B582B000AF7860134B1B7883F00103AF
S11307F0DBB2002B01D0114B19E07B680B2B01D924
S11308000F4B14E00F497A6813469B0013449B0076
S11308100B4410331B7883F00103DBB2002B01D0AF
S1130820094B04E07868002101F016FC0023184607
S11308300837BD4680BD00BF1C020020028000F0C6
S1130840018000F020020020078000F080B582B013
S113085000AF7860134B1B7883F00103DBB2002BED
S113086001D0114B19E07B680B2B01D90F4B14E01D
S11308700F497A6813469B0013449B000B441033C2
S11308801B7883F00103DBB2002B01D0094B04E099
S11308907868012101F0E0FB002318460837BD46C3
S11308A080BD00BF1C020020028000F0018000F027
S11308B020020020078000F080B582B000AF78608D
S11308C03960194B1B7883F00103DBB2002B01D094
S11308D0164B25E07B680B2B02D83B68002B01D11B
S11308E0134B1DE013497A6813469B0013449B0085
S11308F00B4410331B7883F00103DBB2002B01D0CF
S11309000D4B0DE0786801F08FFB0346002B03D0FC
S11309103B6801221A7002E03B6800221A7000232F
S113092018460837BD4680BD1C020020028000F036
S1130930018000F020020020078000F080B586B01E
S113094000AFF8600B467A60FB72FA6813469B00AE
S113095013449B000B4A13447B617B691B68002B87
S11309600CD07B699B685A1C7B699A607B691B6805
S11309707A6991687A695268F86898471837BD4669
S113098080BD00BF2002002080B58AB004AFF860AB
S11309900B467A60FB720123FB75FA6813469B00D1
S11309A013449B001A4A13443B613B691B68002BA8
S11309B01AD03B699B685A1C3B699A603B691B6867
S11309C03A6991683A695268F86898470346002B77
S11309D014BF01230023DBB283F00103DBB2FB75F8
S11309E0FB7D03F00103FB753B69DB68013B1946A2
S11309F0FA7A002300930191FB7D029300201146B3
S1130A000022002301F06EFB1837BD4680BD00BFF5
S1130A102002002080B58EB004AFBA607B6003462C
S1130A20FB730B46BB73864B1B7883F00103DBB26D
S1130A30002B01D0834BFEE0BB680B2B0FD83B6B24
S1130A40002B0CD07B6B002B09D03B6CB3F5806F73
S1130A5005DCFB7B012B04D1BB6B002B01D17A4B52
S1130A60E9E0BA6813469B0013449B00774A134499
S1130A707B627B6A1B7C83F00103DBB2002B01D019
S1130A80734BD8E0FB7B002B09D17249BA6813463B
S1130A905B0013449B000B446F4A1A6008E06D49E5
S1130AA0BA6813465B0013449B000B446B4A1A60FC
S1130AB06849BA6813465B0013449B000B44002248
S1130AC05A6000233B76BB6C002B02D1FB7B012BCD
S1130AD002D101237B7601E000237B767B68FB61F6
S1130AE0BA6813465B0013449B005A4A13443B62A2
S1130AF007F11803B868194601F016FABB7B002BFE
S1130B0019D197F83C30002B10D097F84430002BC3
S1130B1002D100237B740BE097F84430012B02D1FF
S1130B2001237B7404E002237B7401E003237B74C0
S1130B3003233B7418E097F83C30002B10D097F84F
S1130B404430002B02D100233B740BE097F844306F
S1130B50012B02D101233B7404E002233B7401E026
S1130B6003233B7403237B7497F84430BB74002342
S1130B70FB7400233B7507F11003B86801211A4682
S1130B8001F01AFAFB7B012B06D107F11003B868B8
S1130B9000211A4601F010FA7B6ABA6C1A607B6A6B
S1130BA0FA6C5A607B6A00229A607B6A3A6CDA605B
S1130BB02B4ABB68012101FA03F3194602F580535D
S1130BC008331960FB7B002B0CD13B6C013B1A46AC
S1130BD07B6B00930192B868012100223B6B01F00A
S1130BE053F927E0BB7B002B12D13B6C013B194628
S1130BF03B6C013B1A4600913B6B0193BB6B029328
S1130C000392B86800213A6B7B6B01F05FF911E045
S1130C103B6C013B19463B6C013B1A4600917B6BD4
S1130C200193BB6B02930392B86800213A6BBB6BD0
S1130C3001F04CF9002318462837BD4680BD00BF9B
S1130C401C020020028000F0018000F0200200203D
S1130C50078000F0100300203D090000890900000E
S1130C6000200C4080B487B000AFF860B9607A60AF
S1130C70FB6803F10473DA00BB6813449B007B61D7
S1130C807B697A681A601C37BD465DF8047B70473F
S1130C9080B485B000AF786039607B6803F1047379
S1130CA0DA003B6813449B00FB60FB681B68184632
S1130CB01437BD465DF8047B704700BF80B485B02F
S1130CC000AF78607B68002B04D07B68B3F5004FDD
S1130CD000D800BF7B68B3FA83F3C3F11F03FB6042
S1130CE0FB6818461437BD465DF8047B704700BFA7
S1130CF080B400AF044BDB6C1B0EDBB21846BD4660
S1130D005DF8047B704700BFB081E00F80B584B00C
S1130D1000AF78600123FB607B68114A934204D8DA
S1130D200023FB600023BB6008E07B680D4A93420C
S1130D3002D80123BB6001E00223BB600A481E21E4
S1130D40FA68FFF78FFF0849074B5B6823F480724A
S1130D50BB681B0213434B601037BD4680BD00BF08
S1130D6000366E01006CDC0200800C4080B582B05D
S1130D7000AF05481E21FFF78BFF78607B6818469B
S1130D800837BD4680BD00BF00800C4080B582B0EE
S1130D9000AF214B5B6903F4E063B3F5007F1CD023
S1130DA0B3F5007F05D8002B25D0B3F5807F1FD085
S1130DB02AE0B3F5C06F24D0B3F5E06F1ED0B3F5CD
S1130DC0407F21D1FFF794FF0346122B02D9134B26
S1130DD07B601CE0124B7B6019E0FFF789FF034640
S1130DE0122B02D90F4B7B6011E00F4B7B600EE09E
S1130DF00E4B7B600BE00E4B7B6008E00D4B7B6081
S1130E0005E00D4B7B6002E000237B6000BF7B6844
S1130E1018460837BD4680BD00800C40804F120044
S1130E2040420F0040B56400C0CF6A00C0D8A7009C
S1130E30809FD500406F4001003FAB0180B582B078
S1130E4000AF0D4800F0ACFB0346FB70FB78072BAA
S1130E5005D0092B07D104F081FB786006E0FFF789
S1130E6095FF786002E000237B6000BF7B68184632
S1130E700837BD4680BD00BF06000C0080B485B0B5
S1130E8000AF78603960284BDB6B002B14BF012363
S1130E900023BB72244B41F67132DA63224B5B6848
S1130EA003F00703FB60FB68012B01D9042B02D17B
S1130EB00023FB7202E00123FB7200BF7B681B4A24
S1130EC0934207D9FB7A002B01D0052300E00423C9
S1130ED0FB6016E07B68154A93420BD87B68144A82
S1130EE0934207D9FB7A002B01D0032300E00123AE
S1130EF0FB6006E0FB7A002B01D0022300E0002314
S1130F00FB600949084B5B6823F00702FB68134345
S1130F104B60BB7A002B02D0034B0022DA631437F8
S1130F20BD465DF8047B704700000C400048E801B2
S1130F300024F40080B500AF04F006FB0346184615
S1130F400021FFF79BFF80BD80B582B000AF7860C1
S1130F50396078683968FFF791FF0837BD4680BD6E
S1130F6090B585B000AF78600023BB607B68344ADD
S1130F70934203D0334A934200D000E000BF786824
S1130F8000F00EFB0346FB607B682D4A934203D0BE
S1130F902C4A934206D00CE02B4B9B6A03F00303CC
S1130FA0FB6006E0284B9B6A03F00C039B08FB6084
S1130FB000BFFB68032B3AD801A252F823F000BF0C
S1130FC0F70F0000D10F0000D90F0000E10F00005F
S1130FD004F060FBB8602DE004F070FBB86029E019
S1130FE004F098FA0446FFF7C1FE0346013324FADD
S1130FF003F3BB601EE00023BB607B68104A93428E
S113100003D07B680F4A934210D10F4B9A6A7B68D6
S11310100B498B4201D1102300E0142322FA03F37D
S1131020002B03D004F040FBB86003E002E000238F
S1131030BB6000BFBB6818461437BD4690BD00BFF7
S113104002001A0003001C0000800C4080B483B02E
S113105000AF7860094B5B6D03F00103002B00D0F7
S113106006E000BF054B1A6D7B681340002BF9D1D5
S11310700C37BD465DF8047B704700BF00800C4010
S113108080B582B000AF104800F08AFA0346FB70C6
S1131090FB78032B07D0092B09D0022B0BD104F0CA
S11310A00DFB78600AE004F0F5FA786006E004F0DD
S11310B055FA786002E000237B6000BF7B68184625
S11310C00837BD4680BD00BF07232200B0B584B0F9
S11310D000AF786039607B681B0903F00F03FB6085
S11310E0FB68013B062B00F2F48001A252F823F0C6
S11310F00D110000D3120000D312000043110000B0
S11311006D110000BB1100007F1200003B68002B32
S113111003D03B68082B00D800BFFFF70BFF6F49D3
S11311206E4B1B6823F4E0323B68013B9B03134383
S11311300B6004F0EFF9B860B8680021FFF704FF12
S1131140C8E03B68002B04D03B68B3F5007F00D8AF
S113115000BF3868FFF7B2FD386060495F4B9B6899
S113116023F00F023B6813438B60B3E03B68002B12
S113117004D03B68B3F5007F00D800BFFFF7DAFE68
S113118004F0ECF902463B68B2FBF3F31846FFF7B0
S1131190BDFD3868FFF792FD386050494F4B5B68DE
S11311A023F00F023B6813434B6004F0B3F9B860BB
S11311B0B8680021FFF7C8FE8CE07B68484A934278
S11311C01ED0474A934203D8464A934207D055E07B
S11311D0454A934225D0454A93423FD04EE00420ED
S11311E0FFF734FF3868FFF769FD38603B493B4B34
S11311F09B6E23F0F0023B681B0113438B663DE0BA
S11312000420FFF723FF3868FFF758FD386033499F
S1131210324B9B6E23F470623B681B0213438B6654
S11312202CE03B680F2B03D93B68802B00D800BF10
S11312300420FFF70BFF3868FFF740FD3860274DA7
S1131240264B9B6E23F440541020FFF737FD0246D3
S11312503B689B1A1B032343AB660FE00420FFF794
S1131260F5FE3868FFF72AFD38601C491B4B9B6E5E
S113127023F003023B6813438B6600BF2AE07B68BC
S11312801B4A934203D01B4A934210D020E04020D3
S1131290FFF7DCFE3868FFF711FD38600F490F4B8C
S11312A01B6F23F003023B6813430B6710E04020DD
S11312B0FFF7CCFE3868FFF701FD38600749074B9C
S11312C01B6F23F030023B681B0113430B6700BF05
S11312D000E000BF1037BD46B0BD00BF00800C4029
S11312E060261400601610006000260060062A00C4
S11312F0700716007017180080B586B000AF7860CC
S11313000B46FB7000233B617B681B0A03F00F0351
S1131310013B092B45D801A252F823F059130000D0
S11313205F13000045130000A3130000A313000083
S1131330651300006F130000A3130000A313000043
S113134079130000194B7B61194800F03DF80346FE
S11313501846FFF7DBFC12E0164B7B610FE0164BDF
S11313607B610CE0154B7B6101233B6107E0144B6F
S11313707B6110233B6102E0124B7B6100BF7B6801
S11313801B0B03F01F03FB603B69002B02D0386981
S1131390FFF75CFEFB787869F9681A46FFF762FC90
S11313A000E000BF1837BD4680BD00BF40800C4040
S11313B00043020008800C4044800C4058800C40DC
S11313C060800C4078800C4090B585B000AF7860A8
S11313D07B6803F47813B3F5B01F00F0AB80B3F56A
S11313E0B01F1AD8B3F5402F00F0BF80B3F5402FDB
S11313F008D8B3F5003F3CD0B3F5802F2DD0002B97
S113140027D0BEE0B3F5801F3CD0B3F5A01F47D072
S1131410B3F5602F00F0AD80B3E0B3F5081F00F022
S1131420AC80B3F5081F0AD8B3F5D01F25D0B3F5A7
S1131430E01F7AD0B3F5C01F00F08980A1E0B3F5B6
S1131440201F4ED0B3F5281F62D0B3F5181F35D036
S113145097E004F083F8F86096E004F07FF8F86011
S11314604C4B9B6803F00F031A46FB68D340FB60A8
S11314708AE004F04FF8F86086E04748FFF770FD13
S1131480F86081E04448FFF76BFDF860414B9B6EC8
S113149003F0F0031B091A46FB68D340FB6073E0BA
S11314A03D48FFF75DFDF8603A4B9B6E03F47063B3
S11314B01B0A1A46FB68D340FB6065E03648FFF719
S11314C04FFDF860334B9B6E03F440531C0B10200C
S11314D0FFF7F4FB034623441A46FB68D340FB6042
S11314E052E02D48FFF73CFDF8602A4B9B6E03F455
S11314F040531B0B1A46FB68D340FB60254BDB6F44
S113150003F007030133FA68B2FBF3F3FB603BE03B
S11315102148FFF725FDF8601E4B9B6E03F0030383
S11315201A46FB68D340FB602EE01C48FFF718FD09
S1131530F86029E01948FFF713FDF860154B1B6F9D
S113154003F003031A46FB68D340FB601CE0134816
S1131550FFF706FDF8600F4B1B6F03F030031B0908
S11315601A46FB68D340FB600EE0FFF767FCF860A7
S11315700AE0FFF70BFCF86006E0FFF781FDF86076
S113158002E00023FB6000BFFB6818461437BD4629
S113159090BD00BF00800C4002001A0003001C0034
S11315A080B485B000AF78600123FB737B6803F0DF
S11315B00F03BB60BB68013B062B00F2938001A2C2
S11315C052F823F0E115000017160000531600002E
S11315D0E5160000E51600008F160000B1160000A5
S11315E0454BDB6A03F47053B3F5805F09D0B3F560
S11315F0005F03D0B3F5006F06D008E00223FB734D
S113160008E00323FB7305E00423FB7302E00523D6
S1131610FB7300BF69E0384B9B6A03F00303022BA2
S113162006D0032B07D0012B08D10323FB730FE053
S11316300223FB730CE00623FB7309E02E4B9B6A29
S113164003F48033002B02D00A23FB7300E000BFB5
S11316504BE0294B9B6A03F00C03082B06D00C2BA0
S113166007D0042B08D10323FB730FE00223FB7381
S11316700CE00623FB7309E01F4B9B6A03F4801301
S1131680002B02D00A23FB7300E000BF2DE01A4BAD
S11316901B6803F08053002B03D0B3F1805F03D0A9
S11316A023E00723FB7302E00923FB7300BF1CE064
S11316B0114BDB6A03F46033B3F5803F08D0B3F514
S11316C0003F08D0B3F5004F08D10923FB7308E0AD
S11316D00223FB7305E00323FB7302E00123FB7386
S11316E000BF02E00023FB7300BFFB7B18461437E6
S11316F0BD465DF8047B704700800C4080B588B01F
S113170000AF78600B46FB700323FB610323FB7679
S113171000233B617B6803F00F03FB60FB68013B24
S1131720062B00F2208101A252F823F04917000091
S11317300F1800000F180000671900006719000057
S1131740D5180000FF180000FB78023B082B00F2BC
S11317500C8101A252F823F07D17000087170000C6
S113176091170000CB1700006B1900006B190000E3
S11317706B1900006B1900006B1900000423FB6156
S11317800023FB7629E00323FB610123FB7624E09D
S11317900223FB610223FB767748FFF7B7FA03F0D5
S11317A05DFF0246754B9A4206D9754A744B1B6815
S11317B043F06003136010E0714A714B1B6823F01F
S11317C0600343F02003136007E00123FB6103235C
S11317D0FB766948FFF79AFA00BFFB7E18460121A1
S11317E0012200F0D3F8FFF7A5FB654AFB695362B9
S11317F06448FFF7E9FD03461846FFF787FA03F04C
S113180089FEB860B8680021FFF79EFBB0E0FB7862
S1131810013B092B00F2AB8001A252F823F000BF78
S1131820491800004F1800005F1800006F190000ED
S11318306F1900006F1800006F1900006F19000085
S11318406F1900008B18000000237B6122E0002048
S11318500121012200F09AF802237B611AE00120A1
S11318600121012200F092F801237B6112E003F0D0
S113187051FEB860B868FFF749FA434804210122D1
S1131880FFF7F0F903237B6104E000237B6101236C
S11318903B6100BFFB68022B0DD13949384B9B6A71
S11318A023F4803323F003037A691A433B691B044E
S11318B013438B625CE03249314B9B6A23F48013FF
S11318C023F00C037A6992001A433B691B05134306
S11318D08B624DE0FB78072B02D0092B07D047E041
S11318E0274A274B1B6823F08053136006E0244AE1
S11318F0234B1B6843F08053136000BF38E0FB7830
S1131900032B14D0092B22D0022B00D030E000206E
S11319100121012200F03AF8194B40225A6200BF1B
S1131920174BDB6A03F48033002BF9D01AE0012053
S11319300121012200F02AF8114B60225A6200BFF3
S11319400F4BDB6A03F40033002BF9D00AE00C4B95
S113195020225A6200BF0A4BDB6A03F40043002BC7
S1131960F9D000BF04E000BF02E000BF00E000BF08
S11319702037BD4680BD00BF01366E010048E80136
S113198000800C400043020040800C4080B586B0CB
S113199000AF0346FB710B46BB7113467B71FB79A9
S11319A0042B48D801A252F823F000BFF919000013
S11319B0EB190000CF190000C1190000DD19000067
S11319C001233B610223FB6001237B611DE00423AF
S11319D03B610823FB6003237B6116E010233B611A
S11319E02023FB6005237B610FE040233B618023C0
S11319F0FB6007237B6108E04FF480733B614FF485
S1131A000073FB6009237B6100BFBB79002B0ED000
S1131A100B4A3B6913627B79002B0DD000BF094848
S1131A207969FFF735F90346002BF8D004E0044A3E
S1131A30FB68136200E000BF1837BD4680BD00BFDD
S1131A4000800C402C800C4080B483B000AF03466F
S1131A50FB7197F90730002B0ADA0D4AFB7903F082
S1131A600F03043B13441B7EDBB25B09DBB208E0CB
S1131A70084A97F90730134493F80033DBB25B0943
S1131A80DBB218460C37BD465DF8047B704700BFD7
S1131A9000ED00E000E100E080B483B000AFEFF3BC
S1131AA010833B603B687B6072B67B6818460C37DA
S1131AB0BD465DF8047B704780B483B000AF7860A6
S1131AC07B68002B00D162B60C37BD465DF8047B01
S1131AD0704700BF80B588B000AF0346FB7197F92B
S1131AE0073013F10C0F04DB97F90730272B00DCC8
S1131AF000BFEFF310833B613B6903F00103002B4C
S1131B0001D0012336E097F90730184600F038F881
S1131B100346002B01D001232CE097F90730184627
S1131B20FFF792FFF861EFF31183FB60FB68BB6181
S1131B30BB69002B06D0BB695A09FB699A4201D8DC
S1131B40012317E00D4B5B68C3F308037B617B69DA
S1131B50002B0ED07B69DBB2103BDBB2DBB25BB295
S1131B601846FFF771FF0246FB699A4201D8012328
S1131B7000E0002318462037BD4680BD00ED00E09C
S1131B8080B485B000AF0346FB7197F90730002B92
S1131B9004DB97F90730272B00DC00BF0D4BFB60FB
S1131BA097F907305B11DBB25AB2FB6853F8223065
S1131BB0FA7902F01F02012101FA02F21340002B0C
S1131BC00CBF01230023DBB218461437BD465DF871
S1131BD0047B704700E100E080B483B000AF0346AB
S1131BE0FB71084997F907305B09FA7902F01F0283
S1131BF0012000FA02F241F823200C37BD465DF8BB
S1131C00047B704700E100E080B483B000AF03467A
S1131C10FB71094997F907305B09FA7902F01F0251
S1131C20012000FA02F2203341F823200C37BD468C
S1131C305DF8047B704700BF00E100E080B483B02E
S1131C4000AF0346FB71094997F907305B09FA793C
S1131C5002F01F02012000FA02F2603341F823204F
S1131C600C37BD465DF8047B704700BF00E100E01F
S1131C7080B487B000AFF860B9607A60FB6803F1A4
S1131C800473DA00BB6813449B007B617B697A6848
S1131C901A601C37BD465DF8047B704780B489B078
S1131CA000AF7860084611461A460346FB700B469F
S1131CB0BB7013467B707B681A013C4B9B681344D2
S1131CC0BB61BB78002B02D0BB69FB6105E07B687C
S1131CD01A01364BDB681344FB61BB69DB687B612B
S1131CE07B69002B02D0BA787B691A72FB6A002BDD
S1131CF014D0FB699B6803F040639B0E3B613B6916
S1131D00032B03D1FB69FA6A1A6007E03B693A6B5B
S1131D109A40FB6A13441A46FB691A60BB6A002B9B
S1131D2012D0FB699B689B0F3B613B69032B03D17A
S1131D30FB69BA6A5A6007E03B693A6B9A40BB6A2E
S1131D4013441A46FB695A607B68012202FA03F3C2
S1131D50FB607B78002B03D0144AFB68936102E09C
S1131D60124AFB68D361BB78002B03D00F4AFB688F
S1131D70536302E00D4AFB681363FB699B6823F419
S1131D807F5323F03703BB603B6B1B01BA681343DB
S1131D90BB60FB78BA681343BB60FB69BA689A609E
S1131DA02437BD465DF8047B704700BF00200C401B
S1131DB080B58AB000AF334B03F580531B68BB6119
S1131DC0304B03F580530C331B68BA691340BB6175
S1131DD02C4B9B6B7B61BA697B6913403B6200238C
S1131DE0FB6149E000237B623BE03B6A03F00103B3
S1131DF0002B30D0234B9B683B6101227B6A02FAA3
S1131E0003F3FB601F4B03F580530833FA681A6031
S1131E107B6A1B013A691344DB68BB60BB68002B17
S1131E2019D0BB681B7A7B60BB681B7A83F0010303
S1131E30DAB2BB681A72BB681B68002B0BD0BB6894
S1131E401B68786A7A68002A14BF01220022D1B282
S1131E50BA68526898473B6A5B083B627B6A013305
S1131E607B623B6A002BC0D17B69DA43BB691340B8
S1131E703B62FB690133FB61FB69012BB2DD28374F
S1131E80BD4680BD00200C4090B589B004AFF86019
S1131E907B600B46FB721346BB72FA7ABC7A7B6892
S1131EA000933B6A01937B6A0293F86801212346FD
S1131EB0FFF7F4FE044AFB68012101FA03F393627D
S1131EC01437BD4690BD00BF00200C4090B589B0CA
S1131ED004AFF8607A603B600B46FB72FC7A7B6A65
S1131EE00093BB6A0193FB6A0293F8680321002202
S1131EF02346FFF7D3FEFC7A7B6800933B6801938B
S1131F003B6A0293F868032101222346FFF7C6FEC9
S1131F10044AFB68012101FA03F393621437BD46B6
S1131F2090BD00BF00200C4080B584B000AF786045
S1131F3039601F4B9B68FB607B681B01FA68134484
S1131F403A689268DA603B681B78002B06D0184A1E
S1131F507B68012101FA03F3936305E0144A7B686B
S1131F60012101FA03F3D36311493B685A687B6882
S1131F7003F5886341F823203B685B78002B0FD07E
S1131F800B4A7B68012101FA03F3194602F58053D9
S1131F9008331960074879680122FFF769FE04E0F5
S1131FA0044879680022FFF763FE1037BD4680BD00
S1131FB000200C400C300C4080B487B000AFF860B7
S1131FC00B467A60FB72FB7A002B03D0154B9B689F
S1131FD07B6102E0134BDB687B61FB681B017A6960
S1131FE013447B617B681B789A077B689B781B078B
S1131FF01A437B685B789B061A437B689B781B06B5
S113200013431A467B681B799B0413437A68D2787E
S113201092031A437B699A601C37BD465DF8047BC2
S1132020704700BF00200C4080B483B000AF7860DC
S1132030084B9A6A7B6822FA03F303F00103002B2E
S113204014BF01230023DBB218460C37BD465DF8EC
S1132050047B704700200C4080B582B000AF7860EC
S11320600B46FB70FB78002B05D0074879680122EA
S1132070FFF7FEFD04E0054879680122FFF7F8FD4B
S11320800837BD4680BD00BF24200C4020200C40F2
S113209080B582B000AF786010480121FFF72CF9B9
S11320A000F09CF80020FFF7C9FD0020FFF794FD25
S11320B00B4B03F580530C334FF000421A60084A6F
S11320C07B685B689360064A7B681B785B0143F01E
S11320D0010353600837BD4680BD00BF0003020002
S11320E000200C4080B48BB000AFF8607B600B46DE
S11320F0FB721346BB7297F83830002B03D00123D0
S113210087F8273002E0032387F82730FB7A002B77
S113211006D0FB681A01304B9B6813443B6205E010
S1132120FB681A012C4BDB6813443B623B6B002BAE
S113213014D03B6A9B6803F040639B0EFB61FB6910
S1132140032B03D13B6A3A6B1A6007E0FB697A6B95
S11321509A403B6B13441A463B6A1A607B68002B17
S113216012D03B6A9B689B0FFB61FB69032B03D175
S11321703B6A7A685A6007E0FB697A6B9A407B682D
S113218013441A463B6A5A60FB68012202FA03F3BD
S1132190BB61BB7A002B03D00F4ABB69936102E099
S11321A00D4ABB69D3613B6A9B6823F47F5323F0D8
S11321B037037B617B6B1B017A6913437B6197F85F
S11321C027307A6913437B613B6A7A699A602C37BA
S11321D0BD465DF8047B704700200C4080B582B09A
S11321E000AF0020FFF710FD1C4B00225A601B4B70
S11321F040F6FF72DA61194B40F6FF725A62174BD0
S113220040F6FF72DA62154B40F6FF725A63134BC5
S113221040F6FF72DA63114B0122DA640F4B03F5C7
S113222080530C3300221A600C4B03F5805308339F
S11322300B4A1A6000237B6009E0084A7B6803F5B7
S11322408863002142F823107B6801337B607B683C
S11322500B2BF2DD0837BD4680BD00BF00200C40CB
S1132260FF0F008080B487B000AFF860B9607A6077
S1132270FB6803F10473DA00BB6813449B007B61C1
S11322807B697A681A601C37BD465DF8047B704729
S113229080B485B000AFF860B9607A60FB681A68F2
S11322A0BB68DB431A407B681A43FB681A60143727
S11322B0BD465DF8047B704780B483B000AF03462D
S11322C03960FB71FB79002B0DD0FB79012B0AD00F
S11322D0FB79022B07D0FB79032B04D0FB79042B69
S11322E001D0FB79052B0949FA793B68012000FAF2
S11322F003F318461346DB0013449B000B441033CE
S113230058600C37BD465DF8047B704700600040A0
S113231080B483B000AF03463960FB71FB79002BB6
S11323200DD0FB79012B0AD0FB79022B07D0FB7966
S1132330032B04D0FB79042B01D0FB79052B09492D
S1132340FA793B68012000FA03F318461346DB00D0
S113235013449B000B44103318600C37BD465DF8E2
S1132360047B70470060004080B586B000AFB96060
S11323707A601A460346FB731346BB7300237B61E2
S1132380FB7B002B0DD0FB7B012B0AD0FB7B022BAC
S113239007D0FB7B032B04D0FB7B042B01D0FB7BFE
S11323A0052B7B68072B0ED87B689B001A460723F6
S11323B003FA02F1FB7B7A689200934019481A46AB
S11323C0FFF766FF10E07B68083B7B617B699B003D
S11323D01A46072303FA02F1FB7B7A6992009340C1
S11323E011481A46FFF754FFBB7B104879681A4618
S11323F0FFF738FF97F820300D4879681A46FFF741
S113240031FF0C4A7B68012101FA03F3C2F81C3145
S113241097F82430084879681A46FFF723FF1837DD
S1132420BD4680BD00610040046100400861004079
S11324300C610040006000401061004090B585B020
S113244000AFB9607B600346FB731346BB73FB7B31
S1132450002B0DD0FB7B012B0AD0FB7B022B07D07A
S1132460FB7B032B04D0FB7B042B01D0FB7B052BD4
S1132470BB7B002B0DD07B68002B05D0FB7B184663
S1132480B968FFF745FF04E0FB7B1846B968FFF71E
S113249013FFBB68072B1CD82A4CFA7B2948F97B0D
S11324A00B46DB000B449B0003445968BB689B004C
S11324B018460F238340DB430B40B97BB868800088
S11324C0814019431346DB0013449B0023445960A5
S11324D024E01C4CFA7B1B48F97B0B46DB000B44C5
S11324E09B00034408331968BB6803F18043083B2D
S11324F09B0018460F238340DB431940B87BBB681D
S113250003F18043083B9B0000FA03F3194313468D
S1132510DB0013449B00234408331960BB7B002B6E
S11325200DD17B68002B05D0FB7B1846B968FFF7FB
S1132530EFFE04E0FB7B1846B968FFF7BDFE1437D5
S1132540BD4690BD0060004080B487B000AFF86025
S1132550B9607A60FB6803F10473DA00BB68134462
S11325609B007B617B697A681A601C37BD465DF805
S1132570047B704780B485B000AF78607B68002B23
S113258002D0012B04D007E0084B9B68FB6006E0F7
S1132590064BDB68FB6002E00023FB6000BFFB68C6
S11325A018461437BD465DF8047B704700000840A8
S11325B080B485B000AF786039607B68002B02D0AE
S11325C0012B03D008E0074BFB6002E0064BFB60E5
S11325D000BFFB683A681A601437BD465DF8047B97
S11325E0704700BF080008400C00084080B582B066
S11325F000AF0346FB71FB79034800211A46FFF73D
S1132600A3FF0837BD4680BD0000084080B485B0F4
S113261000AF78607B681B78002B02D00123FB603D
S113262001E00023FB607B685B78002B03D0FB6830
S113263043F00203FB607B689B78002B03D0FB68AC
S113264043F00403FB60044AFB6813601437BD467F
S11326505DF8047B704700BF0000084080B500AF00
S11326600020FFF7C3FF0120FFF7C0FF80BD00BFBC
S113267080B586B000AFF860B9607A60FB70BB6863
S1132680002B03D12448FEF79FFEB860FB78202B73
S11326900CD0202B02DC002B05D03AE0402B08D0D4
S11326A0602B09D035E010237B6108E008237B61AF
S11326B005E006237B6102E004237B6100BFBB6865
S11326C09A007B69796801FB03F35B0813443B615F
S11326D07B697A6802FB03F33A69B2FBF3F33B616B
S11326E03B69043B3B613B699B013B613A690B4B92
S11326F013403B61FB681B6823F06002FB681A60AF
S1132700FB681A68FB781A43FB681A60FB683A692D
S11327105A611837BD4680BD40810400C0FF1F00C8
S113272080B586B000AFF860B9607A60BB68002BF2
S113273003D10A48FEF748FEB860BB685A1E7B689E
S11327405B00B2FBF3F37B617B691B027B61FB687B
S11327507A695A611837BD4680BD00BF40810400C4
S113276080B485B000AF78600B46FB707B68134A79
S113277093420FD07B68124A93420BD07B68114A74
S1132780934207D07B68104A934203D07B680F4A78
S1132790934200D100BFFB78DB43FB60FB6803F08E
S11327A00503FB60FB685A007B68DA60FA787B6893
S11327B0DA601437BD465DF8047B704700C0004002
S11327C000C4004000C8004000E0004000E40040B5
S11327D080B582B000AF786039607B68244A934248
S11327E00FD07B68234A93420BD07B68224A9342E2
S11327F007D07B68214A934203D07B68204A9342E6
S113280000D100BF786800F0A3F83B689B7C002BE4
S113281005D07B681B6843F080427B681A603B6884
S1132820DB7C002B07D03B681B7D43F01003DBB23D
S11328301A467B689A653B685B7B1A463B681B8A31
S113284013433A68D2891A437B685A603B685968D3
S11328503B689A683B681B7B7868FFF709FF3B6815
S11328601B781A467B68DA600837BD4680BD00BF16
S113287000C0004000C4004000C8004000E0004028
S113288000E4004080B582B000AF786039607B68B6
S11328902C4A934207D07B682B4A934203D07B682F
S11328A02A4A934200D100BF786800F051F87B684F
S11328B01A683B681B8A43F001039BB219463B68C4
S11328C09B7B002B02D04FF4806300E000230B437A
S11328D01A437B681A607B681A683B681B7D002B6F
S11328E002D04FF0005300E000231A437B681A60C3
S11328F03B689B7C002B07D03B68DB7C43F01003D8
S1132900DBB21A467B689A653B681B7B43F48052B2
S11329107B685A603B685A683B689B6878681146D4
S11329201A46FFF7FDFE3B685B7B002B02D07B68F9
S11329301022DA603B681B781A467B68DA60083735
S1132940BD4680BD00C0004000C4004000C8004037
S113295080B483B000AF78607B68244A93420FD080
S11329607B68234A93420BD07B68224A934207D068
S11329707B68214A934203D07B68204A934200D16A
S113298000BF7B6840F6AA62DA607B6800221A60A6
S11329907B6841F205025A607B6800229A607B687A
S11329A000225A617B680022DA647B6841F6F9727E
S11329B09A647B6800225A657B680C4A934202D170
S11329C07B6800221A657B6800229A657B68084A46
S11329D0934203D07B68074A934202D17B6800226A
S11329E0DA650C37BD465DF8047B704700C00040D3
S11329F000C4004000C8004000E0004000E4004083
S1132A0080B483B000AF78600B46FB7000BF7B6876
S1132A101B6903F04003002BF9D0FA787B685A63F2
S1132A200C37BD465DF8047B704700BF80B483B0AB
S1132A3000AF0346FB71084997F907305B09FA793F
S1132A4002F01F02012000FA02F241F823200C37A1
S1132A50BD465DF8047B704700E100E080B483B0BC
S1132A6000AF0346FB71094997F907305B09FA790E
S1132A7002F01F02012000FA02F2603341F8232021
S1132A800C37BD465DF8047B704700BF00E100E0F1
S1132A9080B400AF034B5B681846BD465DF8047B09
S1132AA0704700BF0000084080B483B000AF786076
S1132AB0034A7B6893610C37BD465DF8047B70471D
S1132AC00000084080B483B000AF78600549054B2E
S1132AD0DA697B68DB431340CB610C37BD465DF894
S1132AE0047B70470000084080B483B000AF786076
S1132AF00549054BDA697B681343CB610C37BD4646
S1132B005DF8047B704700BF0000084080B483B0C8
S1132B1000AF064BDB697B60044B1A697B6813408A
S1132B2018460C37BD465DF8047B7047000008402A
S1132B3080B586B000AF786000237B6100233B61E1
S1132B40FEF7AAFFF86002E07B6901337B617B69D1
S1132B50032B0ADC16497A6913469B001344DB00F5
S1132B600B4418339B79002BEED17B69042B02D1E3
S1132B70104B3B6114E07B68002B0FD00C497A6941
S1132B8013469B001344DB000B44183301229A7153
S1132B907A697B681A6000233B6101E0064B3B6164
S1132BA0F868FEF789FF3B6918461837BD4680BDB3
S1132BB0A0030020011000F0041000F080B500AF65
S1132BC01D4B1B78002B01D0002332E01A4B01224D
S1132BD01A701A480121FEF78FFB19480221FEF7EB
S1132BE08DFD18480821FEF771FA16480121FEF7F9
S1132BF083FB1548FFF70AFD0720FFF763FF072053
S1132C00FFF752FFFFF72AFD1E20FFF727FF1E20C4
S1132C10FFF70CFF0D480021A02203F07EF90C4BB6
S1132C2000221A700B4B00221A700B4B00221A6000
S1132C300023184680BD00BF4A0400200043020060
S1132C4002001A0060161000845F0000A003002038
S1132C50480400204904002044040020B0B58EB08C
S1132C6000AFF8607A603B600B46FB720023FB62A6
S1132C70FB68032B01D98D4B8BE1FEF70DFFB86286
S1132C808B49FA6813469B001344DB000B4418334A
S1132C909B7983F00103DBB2002B04D0B86AFEF702
S1132CA00BFF844B75E17B68002B0BD13B68002B39
S1132CB003D03B68F868B96C9847B86AFEF7FCFE25
S1132CC0002366E1FFF7E4FE38637949FA681346A6
S1132CD09B001344DB000B4418333A681A607B688A
S1132CE01A464FF00003DD0345EA5245D40314F5B8
S1132CF07A6245F10003104619464FF4FA524FF038
S1132D00000302F0F7FD02460B4610461946684CD4
S1132D10FA6813469B001344DB0023440833C3E9D9
S1132D200001FB7A012B27D17B684FF47A7202FBF6
S1132D3003F15F48FA6813469B001344DB00034425
S1132D400833D3E90023F42303FB02F3CB1A184618
S1132D505749FA6813469B001344DB000B441033B5
S1132D6018605349FA6813469B001344DB000B4474
S1132D7010337A225A6017E04D49FA6813469B00D3
S1132D801344DB000B440833D3E9002312F1FF3072
S1132D9043F1FF31464CFA6813469B001344DB00B1
S1132DA023440833C3E900014149FA6813469B00F0
S1132DB01344DB000B440833D3E90023501C43F1D4
S1132DC000013B4CFA6813469B001344DB00234488
S1132DD0C3E900013649FA6813469B001344DB003B
S1132DE00B44183301221A713149FA6813469B00C7
S1132DF01344DB000B441833FA7ADA712C49FA686D
S1132E0013469B001344DB000B442033BA6C1A6056
S1132E10294B1B78002B04D0B86AFEF74DFE002323
S1132E20B7E0264B1B68B3F1FF3F04D0234B1B686C
S1132E300133224A1360224B1B7883F00103DBB277
S1132E40002B43D03B6B23F07F431E4A13600220C8
S1132E50FFF72AFE1649FA6813469B001344DB0069
S1132E600B44D3E90023C7E90823174BFB61FB6933
S1132E7018464FF00001D7E908238B4208BF82426D
S1132E8001D2104619460346BB613A6BBB69134431
S1132E9023F07F4300201946FFF78AFB0220FFF747
S1132EA023FE074B01221A7066E000BF021000F0F7
S1132EB0A0030020031000F0480400204404002074
S1132EC049040020400400209BFFFF00334B1B6893
S1132ED0012B51D13249FA6813469B001344DB009D
S1132EE00B44183300221A710220FFF7EBFD3B6BF1
S1132EF01A022C4B1B681B02D31A1B0A7B637B6BC5
S1132F006FF07F42934201D100237B63786B00F022
S1132F10DFF800F041FAFB6A002B09D12049FA6876
S1132F2013469B001344DB000B44183301221A712F
S1132F30FB6A0133FB62386B00F060FAFFF7A8FD0F
S1132F4038633B6B1A02174B1B681B02D31A1B0A0C
S1132F507B630020FFF70EFB03461A02114B1B682C
S1132F601B02D31A1B0A7B610F4B1B78002B03D067
S1132F707A6B7B699A42B7D8084B1B68002B04D044
S1132F80064B1B68013B054A1360B86AFEF794FDC3
S1132F90002318463837BD46B0BD00BF44040020A6
S1132FA0A0030020400400204904002080B584B020
S1132FB000AF78607B68032B01D9154B23E0FEF743
S1132FC06BFDF86013497A6813469B001344DB00D9
S1132FD00B4418339B7983F00103DBB2002B04D03C
S1132FE0F868FEF769FD0C4B0DE00A497A68134650
S1132FF09B001344DB000B44183300221A71F86859
S1133000FEF75AFD002318461037BD4680BD00BFA9
S1133010021000F0A0030020031000F080B586B079
S113302000AFFEF739FD3861FFF770FDF860FB680B
S113303023F003031846FFF737FDFB6803F0020390
S1133040002B39D01F4B01221A70FFF721FD786144
S11330500220FFF737FD7B691A021B4B1B681B021A
S1133060D31A1B0ABB60B86800F032F800F094F978
S1133070786900F0C3F9FFF70BFD78617B691A02E8
S1133080114B1B681B02D31A1B0ABB600020FFF7FD
S113309071FA03461A020C4B1B681B02D31A1B0A53
S11330A07B600A4B1B78002B03D0BA687B689A427A
S11330B0CED8044B00221A703869FEF7FDFC18378D
S11330C0BD4680BD4804002040040020490400207F
S11330D0B0B586B000AF786000237B6153E1AD49A1
S11330E07A6913469B001344DB000B441833002217
S11330F05A71A8497A6913469B001344DB000B44B8
S113310018331B79002B00F03B81A2497A691346DE
S11331109B001344DB000B44D3E900237968084681
S11331204FF00001994208BF904219D299497A6937
S113313013469B001344DB000B44D3E900017B6876
S11331401A464FF00003801A61EB0301914C7A692F
S113315013469B001344DB002344C3E900010FE141
S11331608C497A6913469B001344DB000B441833E3
S1133170DB79002B0AD187497A6913469B001344F3
S1133180DB000B44183300221A71E4E07B68184614
S11331904FF000017F4C7A6913469B001344DB0017
S11331A02344D3E90023821A61EB0303C7E9022312
S11331B078497A6913469B001344DB000B440833B7
S11331C0D3E9004573497A6913469B001344DB0035
S11331D00B440833D3E90023D7E9020102F08AFB48
S11331E020462946801A61EB03016A4C7A6913462A
S11331F09B001344DB002344C3E9000165497A6959
S113320013469B001344DB000B4410331B68002B54
S113321050DD60497A6913469B001344DB000B447C
S1133220103359685B487A6913469B001344DB00EA
S1133230034410331B68194456487A6913469B00AB
S11332401344DB0003441033596052497A6913462E
S11332509B001344DB000B4410335B68F32B7AD9D7
S11332604C497A6913469B001344DB000B44D3E9B1
S11332700023501C43F10001464C7A6913469B001D
S11332801344DB002344C3E9000142497A6913462D
S11332909B001344DB000B4410335B68A3F1F4017F
S11332A03C487A6913469B001344DB000344103303
S11332B0596050E037497A6913469B001344DB0098
S11332C00B441033596833487A6913469B001344FE
S11332D0DB00034410331B68C91A2E487A6913466D
S11332E09B001344DB0003441033596029497A6975
S11332F013469B001344DB000B4410335B68F32B31
S113330029D924497A6913469B001344DB000B44F2
S1133310D3E9002312F1FF3043F1FF311D4C7A69E8
S113332013469B001344DB002344C3E900011949FD
S11333307A6913469B001344DB000B4410335B682B
S1133340A3F1F40113487A6913469B001344DB008C
S11333500344103359600F497A6913469B001344A0
S1133360DB000B4418331B68002B09D009497A6928
S113337013469B001344DB000B44183301225A719B
S11333807B6901337B617B69032B7FF7A8AE183718
S1133390BD46B0BDA003002090B583B000AF0023AC
S11333A07B6022E014497A6813469B001344DB00D7
S11333B00B4418335B79002B14D00F497A681346F9
S11333C09B001344DB000B4418331C6878680A49DB
S11333D07A6813469B001344DB000B4420331B68BC
S11333E01946A0477B6801337B607B68032BD9DDDA
S11333F00C37BD4690BD00BFA003002080B58AB045
S113340000AF78604FF0FF324FF0FF33C7E9062377
S113341000237B6227E037497A6A13469B001344F2
S1133420DB000B4418331B79002B19D031497A6A1D
S113343013469B001344DB000B44D3E90001D7E996
S11334400623994208BF90420AD22A497A6A13464F
S11334509B001344DB000B44D3E90023C7E9062394
S11334607B6A01337B627B6A032BD4DD224B00220F
S11334701A70D7E90623B3F1FF3F08BFB2F1FF3F4B
S113348035D0D7E90623C7E904231C4BFB60FB684E
S11334901A464FF00003D7E90401994208BF90424D
S11334A001D202460B46C7E90623154B1B7883F06D
S11334B00103DBB2002B05D07B6823F07F43114A64
S11334C0136002E00F4A7B6813600220FFF7ECFAF6
S11334D0BA697B68134423F07F4300201946FFF741
S11334E067F8054B01221A700220FFF7FDFA28370E
S11334F0BD4680BDA0030020490400209BFFFF00BF
S11335004804002040040020B0B58AB000AF7860C1
S11335103960874B07F108041D460FCD0FC495E8A9
S1133520030084E803007B68002B01D1814BFBE09E
S11335303B68002B01D1804BF6E0786800215822CB
S113354002F0EBFC3B681B687C4A93420AD17B681F
S11335507B4ADA647B687B4A5A627B684FF4402278
S11335609A6221E03B681B68774A93420AD17B68E0
S1133570764ADA647B68764A5A627B684FF4502252
S11335809A6211E03B681B68724A93420AD17B68D5
S1133590714ADA647B68714A5A627B684FF460222C
S11335A09A6201E0644BBFE07A683B6814461D46AA
S11335B00FCD0FC495E8070084E807003B685B7DE6
S11335C0012B01D10123BB753B689B7D002B02D1EC
S11335D000233B8319E03B689B7D012B03D14FF40F
S11335E000733B8311E03B689B7D022B03D14FF4B6
S11335F080733B8309E03B689B7D032B03D14FF42D
S113360040733B8301E04C4B8EE03B681B7D012BF8
S113361005D100237B754FF47A733B6102E03B686C
S11336209B683B614E480121FDF766FE4D48012130
S1133630FDF762FE7B68DB6C18460121FDF75CFE3A
S11336403B681A6807F1080310461946FFF71AF990
S11336503B681B7D002B0BD13B68DB7D002B07D126
S11336603B681B683A681268126842F480321A6038
S11336703B68DB7D002B08D13B681B683A681279F4
S1133680120242F00F025A6507E03B681B683A6871
S11336901279120242F00B025A657868012100F097
S11336A0D9F878627B6A002B01D07B6A3CE0FEF794
S11336B0F3F938622C4B1B7883F00103DBB2002B47
S11336C008D0294B01221A70386AFEF7F5F9FFF782
S11336D075FA02E0386AFEF7EFF93B681B7D012BAF
S11336E009D17B6854331846FFF722FA0346002BAE
S11336F001D01E4B18E0FCF7E9FF7B681C33184629
S11337000021FCF789FF0346002B01D0184B0BE086
S11337107B68203318460021FCF77EFF0346002B0C
S113372001D0134B00E0002318462837BD46B0BD36
S1133730885F0000012000F0022000F000C000407B
S11337400002040001000C0000C400400012040048
S113375001000D0000C800400022040001000E001A
S11337604081040000D204004B040020042000F037
S1133770092000F080B588B002AFF860B9607A60C3
S11337803B60FB681B7D012B01D1114B1CE0F868E9
S1133790B9683A6800F044FC78617B69002B01D079
S11337A07B6911E07B68002B01D10A4B0CE00A4BCA
S11337B00093F868B9687A683B6800F06DFBF868B4
S11337C000F066FCFB685B6C18461837BD4680BD8C
S11337D0082000F0022000F03138000080B586B0E7
S11337E000AFF860B9607A60FB681B7D012B01D1E2
S11337F00D4B15E0F868B9687A6800F011FC78613F
S11338007B69002B01D07B690AE0F868B9687A68A3
S1133810064B00F0A3FBF86800F03AFCFB685B6C15
S113382018461837BD4680BD082000F03138000026
S113383080B485B000AFF860B9607A60FB68BA689C
S11338405A64FB68012283F850201437BD465DF8A2
S1133850047B704780B58AB000AF78600B46FB707C
S11338607B681B79FB607B681B689B4A934240F032
S11338700B81FB68002B1BD0FB68012B16D0FB6867
S1133880022B11D0FB68032B0CD0FB68042B07D050
S1133890FB68052B01D102230BE04FF0FF3308E056
S11338A0012306E0042304E0022302E0042300E0F1
S11338B00423BB61FB68002B1BD0FB68012B16D0D3
S11338C0FB68022B11D0FB68032B0CD0FB68042B84
S11338D007D0FB68052B01D102230BE04FF0FF3327
S11338E008E0012306E0042304E0022302E00423A9
S11338F000E004237B61FB68002B1BD0FB68012BD9
S113390016D0FB68022B11D0FB68032B0CD0FB688C
S1133910042B07D0FB68052B01D101230BE04FF0EA
S1133920FF3308E0012306E0022304E0022302E05F
S1133930042300E004233B61FB68002B1BD0FB68DD
S1133940012B16D0FB68022B11D0FB68032B0CD083
S1133950FB68042B07D0FB68052B01D101230BE086
S11339604FF0FF3308E0012306E0022304E00223C2
S113397002E0042300E004237A68D363FB68002B8D
S11339801BD0FB68012B16D0FB68022B11D0FB68FF
S1133990032B0CD0FB68042B07D0FB68052B01D14B
S11339A000230BE04FF0FF3308E0072306E00D236C
S11339B004E00B2302E0072300E00A237B62FB6898
S11339C0002B1BD0FB68012B16D0FB68022B11D0F7
S11339D0FB68032B0CD0FB68042B07D0FB68052B7A
S11339E001D101230BE04FF0FF3308E0082306E088
S11339F00C2304E00A2302E0062300E00B233B62CD
S1133A00FB68002B1BD0FB68012B16D0FB68022B34
S1133A1011D0FB68032B0CD0FB68042B07D0FB6888
S1133A20052B01D10D230BE04FF0FF3308E00D23EC
S1133A3006E00F2304E0092302E0052300E00C2341
S1133A40FB61FB68002B1BD0FB68012B16D0FB68C5
S1133A50022B11D0FB68032B0CD0FB68042B07D07E
S1133A60FB68052B01D10E230BE04FF0FF3308E078
S1133A700E2306E00E2304E0082302E0042300E002
S1133A800D237A6813640EE17B681B68134A934222
S1133A9040F09780FB68002B0CD0FB68012B07D00B
S1133AA0FB68022B01D1032305E04FF0FF3302E052
S1133AB0032300E00223BB61FB68002B10D0FB68EA
S1133AC0012B07D0FB68022B01D1032309E04FF03F
S1133AD0FF3306E0032304E000C0004000C40040BC
S1133AE002237B61FB68002B0CD0FB68012B07D001
S1133AF0FB68022B01D1052305E04FF0FF3302E000
S1133B00032300E001233B61FB68002B0CD0FB681E
S1133B10012B07D0FB68022B01D1052305E04FF0F0
S1133B20FF3302E0032300E001237A68D363FB68D8
S1133B30002B0CD0FB68012B07D0FB68022B01D1B2
S1133B40072305E04FF0FF3302E0002300E00023E9
S1133B507B62FB68002B0CD0FB68012B07D0FB6851
S1133B60022B01D1062305E04FF0FF3302E00123CD
S1133B7000E001233B62FB68002B0CD0FB68012BA7
S1133B8007D0FB68022B01D1002305E04FF0FF337F
S1133B9002E0022300E00723FB61FB68002B0CD04A
S1133BA0FB68012B07D0FB68022B01D1012305E040
S1133BB04FF0FF3302E0032300E008237A68136424
S1133BC071E07B681B68994A93426AD1FB68002BB9
S1133BD007D0FB68012B01D1012303E04FF0FF3331
S1133BE000E00223BB61FB68002B07D0FB68012BBC
S1133BF001D1012303E04FF0FF3300E002237B6196
S1133C00FB68002B07D0FB68012B01D1012303E0E3
S1133C104FF0FF3300E002233B61FB68002B07D029
S1133C20FB68012B01D1012303E04FF0FF3300E0D7
S1133C3002237A68D363FB68002B07D0FB68012B4F
S1133C4001D1032303E04FF0FF3300E002237B6242
S1133C50FB68002B07D0FB68012B01D1042303E090
S1133C604FF0FF3300E003233B62FB68002B07D0D7
S1133C70FB68012B01D1052303E04FF0FF3300E083
S1133C800423FB61FB68002B07D0FB68012B01D1E7
S1133C90062303E04FF0FF3300E005237A68136442
S1133CA001E0634BBEE0FB78002B7ED07B681B7D7C
S1133CB0002B3DD1BB69DAB27B6A10461946042257
S1133CC00023FEF7BBFB7B69DAB23B6A1046194658
S1133CD002220023FEF7B2FB7B689B7D002B03D0FE
S1133CE07B689B7D012B09D13B69DAB2FB691046E5
S1133CF0194604220023FEF7A1FB08E03B69DAB26F
S1133D00FB691046194604220123FEF797FB7B68E2
S1133D10DB7D002B40F085807B68DB6BDAB27B684F
S1133D201B6C1046194604220123FEF787FB78E03A
S1133D30BB69DAB27B6A1046194602220023FEF7F9
S1133D407DFB7B69DAB23B6A1046194604220023E4
S1133D50FEF774FB7B689B7D002B03D07B689B7D07
S1133D60012B09D13B69DAB2FB69104619460222DC
S1133D700023FEF763FB08E03B69DAB2FB691046F7
S1133D80194602220123FEF759FB7B68DB7D002BD9
S1133D9047D17B68DB6BDAB27B681B6C1046194633
S1133DA002220123FEF74AFB3BE0BB69DAB27B6ADD
S1133DB01046194602220023FEF740FB7B69DAB263
S1133DC03B6A1046194602220023FEF737FB7B6844
S1133DD09B7D002B03D07B689B7D012B09D13B6924
S1133DE0DAB2FB691046194602220023FEF726FBCD
S1133DF008E03B69DAB2FB69104619460222012346
S1133E00FEF71CFB7B68DB7D002B0AD17B68DB6B38
S1133E10DAB27B681B6C1046194600220023FEF7B9
S1133E200DFB002318462837BD4680BD00C800405E
S1133E30022000F080B586B000AFF860B9607A6007
S1133E40FDF72AFE78617B683B613B6900225A6476
S1133E503B69002283F848203B6900229A633B694E
S1133E601B7D012B04D13B695B6D1846FFF79EF85F
S1133E703B69DB6A002B06D03B69DB6A3A69526B0B
S1133E803869002198477869FDF716FE0123184622
S1133E901837BD4680BD00BF80B58EB006AFF86050
S1133EA0B9607A603B60FB68002283F85020FB68AD
S1133EB03A685A63FB681B684FF44062DA60FB6837
S1133EC0BA6ADA62FB68DB68082B02D90123FB7546
S1133ED001E00023FB75FB68DB68082B08D9FB684D
S1133EE01B682433FB61FB681B683C33BB6107E040
S1133EF0FB681B681C33FB61FB681B683433BB61C4
S1133F00FB68196AFB689A6A012300933B68019372
S1133F10FB7D0293104B0393FB6804930846114600
S1133F207A68FB69FCF738FCFB68D969FB685A6A54
S1133F30012300933B680193FB7D029300230393C9
S1133F400023049308461146BA69BB68FCF700FCD9
S1133F502037BD4680BD00BF353E000080B58EB021
S1133F6006AFF860B9607A603B60FB68002283F8B2
S1133F705020FB687A685A63FB681B684FF4406200
S1133F80DA60FB683A68DA62FB68DB68082B02D9FE
S1133F900123FB7501E00023FB75FB68DB68082B3C
S1133FA008D9FB681B682433FB61FB681B683C333E
S1133FB0BB6107E0FB681B681C33FB61FB681B6883
S1133FC03433BB61FB68186AFB68996AFB6803F1C8
S1133FD03002002300937B680193FB7D02930F4B17
S1133FE00393FB680493FB69FCF7D6FBFB68D96970
S1133FF0FB685A6A012300937B680193FB7D02935B
S1134000002303930023049308461146BA69BB684E
S1134010FCF79EFB2037BD4680BD00BF353E000047
S113402080B586B000AFF860B9607A60FB68002B99
S113403001D1144B21E0BB68002B06D07B68002B18
S113404003D07B68B3F5806F01DD0F4B15E0FDF7FE
S113405023FD7861FB6893F84830DBB2002B04D071
S11340607869FDF729FD094B07E0FB68012283F815
S113407048207869FDF720FD002318461837BD460F
S113408080BD00BF012000F0022000F0032000F0FA
S113409080B582B000AF78600020FDF71BFD0346B9
S11340A0002B0CD001E0FDF783FE7B6893F85030C1
S11340B0DBB283F00103DBB2002BF4D109E000BFD3
S11340C07B6893F85030DBB283F00103DBB2002B42
S11340D0F6D10837BD4680BD80B483B000AF7860A8
S11340E039607B683A689A640C37BD465DF8047B96
S11340F0704700BF80B485B000AF786039607B68DA
S113410003F10473DA003B6813449B00FB60FB6813
S11341101B6818461437BD465DF8047B704700BF22
S113412080B582B000AF03463960FB71FB79002B88
S11341300DD0FB79012B0AD0FB79022B07D0FB7938
S1134140032B04D0FB79042B01D0FB79052BFA79DE
S11341501346DB0013449B001C3303F1804303F537
S1134160C04318463968FFF7C5FF034618460837A9
S1134170BD4680BD80B483B000AF03463960FB7197
S1134180FB79002B0DD0FB79012B0AD0FB79022B94
S113419007D0FB79032B04D0FB79042B01D0FB79E6
S11341A0052B0949FA793B68012000FA03F3184604
S11341B01346DB0013449B000B44103358600C3748
S11341C0BD465DF8047B70470060004080B483B056
S11341D000AF03463960FB71FB79002B0DD0FB79EE
S11341E0012B0AD0FB79022B07D0FB79032B04D0D7
S11341F0FB79042B01D0FB79052B0949FA793B683B
S1134200012000FA03F318461346DB0013449B0015
S11342100B44103318600C37BD465DF8047B7047BF
S11342200060004090B585B002AF396011461A466F
S11342300346FB710B46BB7113467B71FA79BC795B
S11342407B7900933B7E0193104639683A68234694
S1134250FEF78AF80C37BD4690BD00BF80B485B028
S113426000AF78600023FB6010E00D4AFB6852F851
S113427023305B7F1A467B689A4204D1084AFB6864
S113428052F8233006E0FB680133FB60FB68032B24
S1134290EBD9002318461437BD465DF8047B7047FC
S11342A05004002080B582B000AF78607B6893F83A
S11342B03130022B0AD17B685A7E7B685B7F1046C3
S11342C01946FFF72DFF0346DBB200E00023184632
S11342D00837BD4680BD00BF80B586B000AF034639
S11342E0FB71FB791846FFF7B9FF78617B69002BF6
S11342F03ED07B6993F83130022B39D17869FFF7CE
S1134300D1FF03461A467B691A757B695B7D022BD4
S11343102ED17B6993F82E30DBB2002B28D10023F9
S1134320FB737B695A6807F10F0310461946FCF7C3
S1134330C3FA38617B691B7D002B04D07B6993F839
S11343402F30002B09D07B69002283F82F207B6952
S11343505B681846FCF77AFA0AE03B69002B07D140
S1134360FB7B002B04D07B695B681846FCF738FAAA
S11343701837BD4680BD00BF80B584B000AF7860FB
S11343807B6893F83130022B2FD17B685B7D002B47
S113439008D17B689A7E7B689B7F10461946FFF79D
S11343A0E9FE4AE07B685B7D012B08D17B689A7E3D
S11343B07B689B7F10461946FFF708FF3DE07B684A
S11343C01B7D002B08D17B689A7E7B689B7F1046FF
S11343D01946FFF7CFFE30E07B689A7E7B689B7FAF
S11343E010461946FFF7F2FE27E07B6893F8313058
S11343F0012B22D17B681B7D002B0FD11123FB7372
S1134400786800F0B1FF07F10F03786819460122BC
S113441000F018FF786800F0D1FF0EE01323FB735F
S1134420786800F0A1FF07F10F03786819460122AC
S113443000F008FF786800F0C1FF00231846103729
S1134440BD4680BD80B586B000AFF860B9607A60C3
S1134450FDF722FB7861FB689B889AB2FB68DB88D6
S11344609A4207D37B6800221A607869FDF724FB1F
S11344701D4B35E0FB681B889BB21A4613469B0014
S113448013449B000833FA6813441846B96814228D
S113449001F038FDFB681B889BB21A4613469B004B
S11344A013449B000833FA681A447B681A60FB685B
S11344B01B889BB20133FA68D28893FBF2F102FBAA
S11344C001F29B1A9AB2FB681A80FB689B889BB224
S11344D001339AB2FB689A807869FDF7EDFA0023FC
S11344E018461837BD4680BD0A7000F080B584B008
S11344F000AF78603960FDF7CFFAF8607B689B887D
S11345009BB2002B07D13B6800221A60F868FDF7C4
S1134510D3FA164B25E07B685B889BB21A46134698
S11345209B0013449B0008337A681A443B681A6062
S11345307B685B889BB201337A68D28893FBF2F183
S113454002FB01F29B1A9AB27B685A807B689B88B3
S11345509BB2013B9AB27B689A80F868FDF7ACFA8B
S1134560002318461037BD4680BD00BF0B7000F015
S113457080B584B000AF78603960FDF78DFAF860DB
S11345807B689B889BB2002B07D13B6800221A6092
S1134590F868FDF791FA0B4B10E07B685B889BB2DF
S11345A01A4613469B0013449B0008337A681A4446
S11345B03B681A60F868FDF77FFA00231846103745
S11345C0BD4680BD0B7000F080B483B000AF78604E
S11345D07B6893F83230002B14D17B681B6804226B
S11345E0DA6000BF7B681B681B6903F00203002BC1
S11345F0F8D07B681B687A681268526D42F0020238
S11346005A6520E07B6893F83230012B1BD100BF40
S11346107B681B685B6C03F00203002BF8D17B689A
S11346201B6804225A6000BF7B681B689B6803F008
S11346300203002BF8D07B681B687A681268526DFD
S113464042F002025A650C37BD465DF8047B7047A0
S113465080B483B000AF78607B6893F83230002B6D
S11346600CD17B681B687A681268526D22F00202D2
S11346705A657B681B680822DA6018E07B6893F847
S11346803230012B13D100BF7B681B685B6C03F0D5
S11346900203002BF8D17B681B687A681268526D9C
S11346A022F002025A657B681B6808225A600C37A4
S11346B0BD465DF8047B704790B58BB006AF78605B
S11346C039600023FB607B68012283F82D207B681E
S11346D093F83230002B04D17B681B683433FB60C1
S11346E00EE07B6893F83230012B04D17B681B68A1
S11346F02833FB6004E07B68002283F82D2017E058
S11347007B6859687B68DA683B681C683B685B684F
S1134710184601230093019000230293064B039350
S11347207B68049308461146FA682346FCF710F8A0
S11347301437BD4690BD00BF3D47000090B589B019
S113474000AFF860B9607A607B68FB61FB699A6AC4
S113475007F1100310461946FFF70AFFB861BB6959
S1134760214A934201D1012339E03B6900221A61B5
S11347703B6900229A60FDF78FF978613B69DB6839
S1134780002B08D03B69DC683B691A683B695B68AD
S1134790F8690021A047FB699A6A07F110031046E3
S11347A01946FFF7A3FEFB699B6A9B889BB2002B0B
S11347B00DD0FB699A6A07F1100310461946FFF7FA
S11347C0D7FE3B69F8691946FFF776FF03E0FB69FA
S11347D0002283F82D207869FDF76EF9012318462D
S11347E02437BD4690BD00BF0B7000F080B485B087
S11347F000AFF860B9607A60FB68002B01D10A4B06
S11348000CE0BB68002B06D07B68002B03D07B68D0
S1134810B3F5806F01D9054B00E000231846143727
S1134820BD465DF8047B7047027000F0037000F031
S113483080B483B000AF786039607B681B689B4AA2
S1134840934240F09D803B681B7A002B1FD03B684D
S11348501B7A012B19D03B681B7A022B13D03B68BF
S11348601B7A032B0DD03B681B7A042B07D03B68C3
S11348701B7A052B01D102230AE0FF2308E0012360
S113488006E0042304E0022302E0042300E00423FE
S11348907A68D3753B681B7A002B1FD03B681B7A60
S11348A0012B19D03B681B7A022B13D03B681B7A6F
S11348B0032B0DD03B681B7A042B07D03B681B7A73
S11348C0052B01D102230AE0FF2308E0012306E0BF
S11348D0042304E0022302E0042300E004237A68B2
S11348E013763B681B7A002B1FD03B681B7A012B85
S11348F019D03B681B7A022B13D03B681B7A032B1D
S11349000DD03B681B7A042B07D03B681B7A052B20
S113491001D100230AE0FF2308E0072306E00D236A
S113492004E00B2302E0072300E00A237A68D3762D
S11349303B681B7A002B1FD03B681B7A012B19D0D4
S11349403B681B7A022B13D03B681B7A032B0DD0D8
S11349503B681B7A042B07D03B681B7A052B01D1DB
S113496001230AE0FF2308E0082306E00C2304E007
S11349700A2302E0062300E00B237A68137787E119
S11349807B681B684A4A934254D13B681B7A002BCC
S11349900DD03B681B7A012B07D03B681B7A022B96
S11349A001D1032304E0FF2302E0032300E00223F8
S11349B07A68D3753B681B7A002B0DD03B681B7A51
S11349C0012B07D03B681B7A022B01D1032304E09F
S11349D0FF2302E0032300E002237A6813763B6896
S11349E01B7A002B0DD03B681B7A012B07D03B6848
S11349F01B7A022B01D1072304E0FF2302E00023EA
S1134A0000E000237A68D3763B681B7A002B0DD034
S1134A103B681B7A012B07D03B681B7A022B01D120
S1134A20062304E0FF2302E0012300E001237A6867
S1134A3013772DE17B681B681E4A934242D13B6881
S1134A401B7A002B07D03B681B7A012B01D1012371
S1134A5002E0FF2300E002237A68D3753B681B7AE7
S1134A60002B07D03B681B7A012B01D1012302E004
S1134A70FF2300E002237A6813763B681B7A002B3D
S1134A8007D03B681B7A012B01D1032302E0FF23EB
S1134A9000E002237A68D3763B681B7A002B0DD0A2
S1134AA03B681B7A012B07D1042308E000C00040B7
S1134AB000C4004000C80040FF2300E003237A68DC
S1134AC01377E5E07B681B687D4A93426CD13B68B1
S1134AD01B7A002B13D03B681B7A012B0DD03B684B
S1134AE01B7A022B07D03B681B7A032B01D10223CC
S1134AF006E0FF2304E0002302E0042300E0052392
S1134B007A68D3753B681B7A002B13D03B681B7AF9
S1134B10012B0DD03B681B7A022B07D03B681B7A14
S1134B20032B01D1022306E0FF2304E0002302E06B
S1134B30042300E005237A6813763B681B7A002B74
S1134B4013D03B681B7A012B0DD03B681B7A022BD8
S1134B5007D03B681B7A032B01D10E2306E0FF2309
S1134B6004E0032302E0002300E006237A68D376FE
S1134B703B681B7A002B13D03B681B7A012B0DD0AA
S1134B803B681B7A022B07D03B681B7A032B01D1AD
S1134B900F2306E0FF2304E0042302E0012300E0E6
S1134BA007237A68137773E07B681B68454A93424E
S1134BB06CD13B681B7A002B13D03B681B7A012B0A
S1134BC00DD03B681B7A022B07D03B681B7A032B62
S1134BD001D1042306E0FF2304E0012302E00523BE
S1134BE000E002237A68D3753B681B7A002B13D04C
S1134BF03B681B7A012B0DD03B681B7A022B07D034
S1134C003B681B7A032B01D1042306E0FF2304E055
S1134C10012302E0052300E002237A6813763B684F
S1134C201B7A002B13D03B681B7A012B0DD03B68F9
S1134C301B7A022B07D03B681B7A032B01D102237A
S1134C4006E0FF2304E0092302E00A2300E00C232A
S1134C507A68D3763B681B7A002B13D03B681B7AA7
S1134C60012B0DD03B681B7A022B07D03B681B7AC3
S1134C70032B01D1032306E0FF2304E00A2302E00F
S1134C800B2300E00D237A68137701E00E4B10E04C
S1134C903B685A7C7B685A763B689A7C7B685A7777
S1134CA03B68DA7C7B689A763B681A7D7B689A77E6
S1134CB0002318460C37BD465DF8047B704700BFDF
S1134CC000E0004000E40040037000F080B584B0D0
S1134CD002AF78600B46FB70FB78002B53D07B68E7
S1134CE0DA7D7B68DB7E1046194604220123FDF73A
S1134CF0A5FB7B681A7E7B681B7F1046194602223F
S1134D000123FDF79BFB7B6893F83130022B20D104
S1134D107B685A7E7B685B7F10461946012200231C
S1134D20FDF78CFB7B689A7E7B689B7F1046194657
S1134D3004220023FDF782FB7B685A7E7B685B7F3D
S1134D40194601230093104601220123FFF76AFA52
S1134D506CE07B6893F83130032B67D17B685A7E13
S1134D607B685B7F1046194601220023FDF766FB32
S1134D707B689A7E7B689B7F104619460422002339
S1134D80FDF75CFB52E07B68DA7D7B68DB7E1046D6
S1134D90194600220023FDF751FB7B681A7E7B68CD
S1134DA01B7F1046194600220023FDF747FB7B6852
S1134DB093F83130022B20D17B685A7E7B685B7F6D
S1134DC01046194600220023FDF738FB7B689A7EC3
S1134DD07B689B7F1046194600220023FDF72EFBBB
S1134DE07B685A7E7B685B7F1946002300931046DC
S1134DF001220123FFF716FA18E07B6893F831309B
S1134E00032B13D17B685A7E7B685B7F104619465F
S1134E1000220023FDF712FB7B689A7E7B689B7F50
S1134E201046194600220023FDF708FB002318460C
S1134E300837BD4680BD00BF80B485B000AF786040
S1134E40234B1B7883F00103DBB2002B10D000232B
S1134E50BB6007E01F4ABB68002142F82310BB680F
S1134E600133BB60BB68032BF4D9194B01221A70C0
S1134E700023FB730023BB6017E0164ABB6852F89B
S1134E802330002B06D0134ABB6852F823207B68DA
S1134E909A4207D10F49BB687A6841F8232001235D
S1134EA0FB7305E0BB680133BB60BB68032BE4D92B
S1134EB0FB7B83F00103DBB2002B01D0064B00E047
S1134EC0002318461437BD465DF8047B704700BFC5
S1134ED04C04002050040020027000F080B485B01F
S1134EE000AFF860B9607A60FB68BA685A62FB6820
S1134EF05B6A00221A80FB685B6A00225A80FB68A6
S1134F005B6A00229A80FB68002283F82C20FB68ED
S1134F107A689A62FB689B6A00221A80FB689B6A23
S1134F2000225A80FB689B6A00229A80FB68002258
S1134F3083F82D20FB68002283F82F201437BD4608
S1134F405DF8047B704700BF80B582B000AF786025
S1134F5000F05AFC7B685B7F1846094900F064FC4A
S1134F607B6800229A757B6800221A757B6802228E
S1134F705A757868FFF700FA0837BD4680BD00BF50
S1134F80D942000080B582B000AF7860FBF79EFB89
S1134F907B68043318460021FBF73EFB0346002BD5
S1134FA001D0094B0BE07B68083318460021FBF75E
S1134FB033FB0346002B01D0034B00E000231846CB
S1134FC00837BD4680BD00BF0E7000F0B0B58AB092
S1134FD000AF78603960874B07F108041D460FCD98
S1134FE00FC495E8030084E803007B68002B01D11B
S1134FF0814BFBE03B68002B01D1804BF6E07868E5
S11350000021342200F089FF7868FFF715FF7862E9
S11350107B6A002B01D07B6AE8E03B681A7C7B68E2
S113502083F831203B681A687B681A607B68002229
S113503083F832203B681B68714A93420AD17B682B
S1135040704A1A627B68704ADA607B684FF44022C7
S11350501A6141E03B681B686C4A93420AD17B6841
S11350606B4A1A627B686B4ADA607B684FF45022A1
S11350701A6131E03B681B68674A93420AD17B6836
S1135080664A1A627B68664ADA607B684FF460227B
S11350901A6121E03B681B68624A93420AD17B682B
S11350A0614A1A627B68614ADA607B684FF43012A5
S11350B01A6111E03B681B685D4A93420AD17B6820
S11350C05C4A1A627B685C4ADA607B684FF434128B
S11350D01A6101E0494B89E03B689A693B68DB69E6
S11350E0786811461A46FFF7F9FE3B685B683B6136
S11350F03B685B893B833B689B89FB823B689B7B6A
S11351003B753B68DB7BBB7605237B754B480121F4
S1135110FCF7F2F84A480121FCF7EEF87B681B6AB9
S113512018460121FCF7E8F800233B723B681A6833
S113513007F1080310461946FDF74AFB3B681B6854
S11351403A68127A120242F003025A6578683968A2
S1135150FFF76EFB78627B6A002B01D07B6A45E027
S113516078680121FFF7B2FD78627B6A002B01D0D9
S11351707B6A3BE0FCF790FC38623B681B7C032BAA
S113518001D11E4B32E03B681B7C022B02D17868B4
S1135190FFF7DAFE3B681B6818464FF0FF31FEF755
S11351A09BFF3B681B7C032B06D13B681B6818469E
S11351B00521FDF7D5FA05E03B681B681846042174
S11351C0FDF7CEFA3B681B684FF44062DA60FBF7E8
S11351D07DFA7868FFF7D6FE7862386AFCF76CFCD3
S11351E07B6A002B01D07B6A00E000231846283735
S11351F0BD46B0BDA05F0000027000F0037000F077
S113520000C000400002040001000C0000C4004083
S11352100012040001000D0000C800400022040038
S113522001000E0000E000400032040001002C00E8
S113523000E400400042040001002D00408104000D
S113524000D2040080B588B000AFF860B9607A601D
S1135250F868B9687A68FFF7C9FAB861BB69002BC6
S113526001D0BB697CE00020FCF734FC0346FB75ED
S113527004E0FB7D002B01D0FCF79AFDFB689B6AE0
S11352809B889BB2002B05D0FB6893F82E30DBB2D1
S1135290002BEED0FB6893F83230002B06D1FB686C
S11352A01B681B6903F00203FB610DE0FB6893F8C4
S11352B03230012B06D1FB681B689B6803F00203A4
S11352C0FB6101E00023FB61FB69002B02D1F8685C
S11352D0FFF77AF9FB68012283F83020FB6893F822
S11352E03230002B18D109E0FB681968BB685A1CDE
S11352F0BA601B7808461946FDF782FB7B685A1E84
S11353007A60002BF0D100BFFB681B681B6903F0B7
S11353102003002BF8D01CE0FB6893F83230012BFB
S113532017D109E0FB681968BB685A1CBA601B787E
S11353300846194600F0E6F97B685A1E7A60002B8D
S1135340F0D100BFFB681B689B6803F00803002BC7
S1135350F8D0FB69002B02D1F868FFF779F9002334
S113536018462037BD4680BD80B582B000AF786056
S11353707B68002B01D1104B1AE07B6893F82E3028
S1135380DBB2002B0AD17868FEF78CFF0346002BB2
S113539004D17B685B681846FBF722FA7B6893F8B4
S11353A02E30DBB20133DAB27B6883F82E2000237F
S11353B018460837BD4680BD027000F080B582B043
S11353C000AF78607B68002B01D1144B22E07B682E
S11353D093F82E30DBB2002B1BD07B6893F82E3071
S11353E0DBB2012B0AD17868FEF75CFF0346002B81
S11353F004D17B685B681846FBF728FA7B6893F84E
S11354002E30DBB2013BDAB27B6883F82E20002316
S113541000E0034B18460837BD4680BD027000F01B
S1135420057000F080B58CB000AFF860B9607A60A8
S11354303B60F868B9687A68FFF7D8F9F862FB6AE4
S1135440002B01D0FB6A39E0BB687B617B68BB61E0
S11354507B68FB613B683B621A4B7B62FB68996A21
S113546007F1140207F11003084611461A46FEF725
S1135470E9FFF862FB6A002B01D0FB6A1EE0FB68BF
S113548093F82D30DBB283F00103DBB2002B14D090
S1135490FCF702FBB862FB689B6A9B889BB2002BFB
S11354A008D03B69F8681946FFF706F9FB68012242
S11354B083F83020B86AFCF7FFFA00231846303727
S11354C0BD4680BD017000F0064880470649074A82
S11354D0074B9A42BEBF51F8040B42F8040BF8E79D
S11354E0FAF72CFE75560000DC5F00000000002077
S11354F080010020FEE700BF80B400AF044BDB6CEA
S11355001B0EDBB21846BD465DF8047B704700BF36
S1135510B081E00F80B582B000AF00F01FF8786072
S1135520074B5B6803F00F031A467B68D3407B602C
S1135530044A7B6813607B6818460837BD4680BD03
S113554000800C401001002080B400AF024B1846CC
S1135550BD465DF8047B7047006CDC0280B582B008
S113556000AF334BDB6A03F47053B3F5805F0AD0AA
S1135570B3F5005F03D0B3F5006F08D00BE02D4BFB
S11355801B687B6047E04FF400437B6043E02A4B99
S11355901B687B603FE0264BDB6803F4E063B3F5F4
S11355A0007F1BD0B3F5007F05D8002B24D0B3F5C2
S11355B0807F16D02BE0B3F5806F09D0B3F5A06FD0
S11355C003D0B3F5407F06D021E01C4B7B6021E083
S11355D01B4B7B601EE01B4B7B601BE01A4B7B600C
S11355E018E0FFF789FF0346122B02D9174B7B60A3
S11355F010E0174B7B600DE0FFF77EFF0346122B94
S113560002D9144B7B6005E0134B7B6002E000235E
S11356107B6000BF00BF064B1B6803F4E0339B0BA9
S113562001337A68B2FBF3F318460837BD4680BDF0
S113563000800C400C01002008010020003FAB0159
S1135640406F4001809FD500C0D8A70040B56400DA
S1135650C0CF6A00804F120040420F0080B400AFF8
S1135660034B1B681846BD465DF8047B704700BFBA
S11356700801002080B400AF054A054BD3F88830F8
S113568043F47003C2F88830BD465DF8047B70476C
S113569000ED00E080B400AF4FF400431846BD466F
S11356A05DF8047B704700BF80B400AF4FF47A7399
S11356B01846BD465DF8047B704700BF80B400AF58
S11356C0034B1B681846BD465DF8047B704700BF5A
S11356D00C01002080B483B000AF786039607B682F
S11356E01B6C03F00103002B00D006E000BF7B68B5
S11356F05A6C3B681340002BF9D10C37BD465DF85A
S1135700047B704780B582B000AF78600B46FB70B5
S113571000BF7B689B6803F01003002BF9D0786806
S11357204021FFF7D7FFFA787B689A620837BD46B5
S113573080BD00BF80B483B000AF0346FB7108494D
S113574097F907305B09FA7902F01F02012000FA89
S113575002F241F823200C37BD465DF8047B704704
S113576000E100E080B483B000AF0346FB71094957
S113577097F907305B09FA7902F01F02012000FA59
S113578002F2603341F823200C37BD465DF8047BF8
S1135790704700BF00E100E080B483B000AF7860E0
S11357A0044A7B68C2F81C310C37BD465DF8047BA3
S11357B0704700BF0060004080B483B000AF074B67
S11357C0D3F810317B60054BD3F814217B68134068
S11357D018460C37BD465DF8047B704700600040F6
S11357E080B485B000AF78607B68FB60FB6893FA97
S11357F0A3F3BB60BB68B3FA83F318461437BD4602
S11358005DF8047B704700BF80B500AF0B20FFF745
S1135810A9FF0B20FFF78EFF0120FFF7A3FF012054
S1135820FFF788FF80BD00BF80B584B000AF03469A
S11358303960FB71FCF730F9F860FB7904493A6888
S113584041F82320F868FCF737F91037BD4680BDCE
S11358506004002080B584B000AF786019E07868F7
S1135860FFF7BEFFF860FB68012202FA03F3DB4393
S11358701A467B6813407B60094AFB6852F8233060
S1135880BB60BB68002B04D0FB68DAB2BB6810466F
S113589098477B68002BE2D11037BD4680BD00BF1E
S11358A06004002080B582B000AFFFF785FF024698
S11358B045F2555313407B607868FFF76DFF7868B5
S11358C0FFF7C8FF0837BD4680BD00BF80B582B072
S11358D000AFFFF771FF02464AF6AA2313407B602C
S11358E07868FFF759FF7868FFF7B4FF0837BD46BB
S11358F080BD00BF53B94AB9002908BF00281CBFA6
S11359004FF0FF314FF0FF3000F03CB882B0EC466E
S11359102DE9005000F01EF8DDF804E002B00CBCE4
S1135920704700BF2DE9F041069C154606460F4618
S1135930984600F029F805FB01F300FB0838A5FBA5
S11359400023B21A434467EB0303C4E90023BDE810
S1135950F08100BF2DE9F041069C904606460F46B3
S11359601D4600F05FF900FB05F5A0FB082308FBCA
S11359700155B21A2B4467EB0303C4E90023BDE8C5
S1135980F08100BF704700BF00292DE9F043C0F249
S1135990A6800026002BC0F29C80884694469E4632
S11359A0154604460F46002B3DD18A4259D9B2FA16
S11359B082F33BB1C3F120029F4020FA02F29D40E2
S11359C017439C40290C220CB7FBF1FEA8B201FB43
S11359D01E7742EA074700FB0EF3BB420AD97F1940
S11359E00EF1FF3280F00581BB4240F20281AEF13C
S11359F0020E2F44FF1AA4B2B7FBF1F301FB137795
S1135A0044EA074700FB03F0B84208D97F1903F1C1
S1135A10FF3280F0F080B84240F2ED80023B43EA6E
S1135A200E43002203E08B420FD900221346341C9C
S1135A3018BF012460424FF0000565EB4501584052
S1135A40514000196941BDE8F083B3FA83F2002A9A
S1135A5040F086808B4202D3844500F2DB80012330
S1135A60E5E712B90123B3FBF2F5B5FA85F0002896
S1135A703BD1781B4FEA154E1FFA85FC0122B0FB7F
S1135A80FEF8210C0EFB180741EA07470CFB08F34C
S1135A90BB4207D97F1908F1FF3102D2BB4200F2A1
S1135AA0BD808846FF1AA4B2B7FBFEF30EFB137742
S1135AB044EA07470CFB03FCBC4507D97F1903F1F3
S1135AC0FF3102D2BC4500F2A7800B4643EA0843EB
S1135AD0ADE752426FEA060663EB43035DE74042DB
S1135AE061EB41014FF0FF3654E7C0F1200224FA84
S1135AF002F107FA00F385404FEA154ED7401943E7
S1135B00B7FBFEF20B0C0EFB12771FFA85FC43EA7F
S1135B1007430CFB02F79F4204FA00F407D95B1910
S1135B2002F1FF3074D29F4272D9023A2B44DF1B38
S1135B3089B2B7FBFEF80EFB187341EA03430CFB72
S1135B4008F79F4208D95B1908F1FF315CD29F42E4
S1135B505AD9A8F102082B44D81B48EA02428EE71E
S1135B60C2F120032CFA03F10EFA02FE20FA03F725
S1135B7041EA0E0E08FA02F028FA03F14FEA1E4534
S1135B803843B1FBF5F8030C05FB18111FFA8EF727
S1135B9043EA014107FB08F38B420CFA02FC09D9E2
S1135BA011EB0E0108F1FF3930D28B422ED9A8F146
S1135BB002087144C91A80B2B1FBF5F305FB131155
S1135BC040EA014107FB03F78F4208D911EB0E01AC
S1135BD003F1FF3016D28F4214D9023B714443EAD9
S1135BE00843C91BA3FB0C89494509D305D00022EE
S1135BF01DE79646FEE6134611E794404445F6D267
S1135C00013BF4E70346EAE78846A5E7C846D1E73F
S1135C1002468CE713460AE7023B57E7A8F102085D
S1135C202F443FE72DE9F041002B44D18A42154629
S1135C3004464FD9B2FA82F70E464FB1C7F120039A
S1135C40B94020FA03F602FA07F50E4300FA07F406
S1135C504FEA154E230CB6FBFEF0AFB20EFB1061FB
S1135C6043EA014307FB00F1994209D95B1900F1AA
S1135C70FF3280F0EC80994240F2E98002382B44F4
S1135C805A1AA4B2B2FBFEF30EFB132244EA0242F8
S1135C9007FB03F7974208D9521903F1FF3180F04B
S1135CA0D880974240F2D580023B43EA0040002668
S1135CB03146BDE8F0818B4247D8B3FA83F6002E13
S1135CC048D18B4202D3824200F2CD80012031467A
S1135CD0BDE8F08112B90125B5FBF2F5B5FA85F8F6
S1135CE0B8F1000F77D14A1B4FEA154EAFB2012627
