S01B0000576F6E6465724765636B6F5F4D415833353130332E73333740
S113000000800020712300009D2300009D23000038
S11300109D2300009D2300009D2300009D230000DC
S11300209D2300009D2300009D2300009D230000CC
S11300309D2300009D2300009D2300009D230000BC
S1130040B5150000850700009D2300009D230000D6
S11300509D2300009D2300009D2300009D2300009C
S11300609D2300009D2300009D2300009D2300008C
S11300709D2300009D2300009D2300009D2300007C
S11300809D2300009D2300009D2300009D2300006C
S11300909D2300009D2300009D2300009D2300005C
S11300A09D2300009D2300009D2300009D2300004C
S11300B09D2300009D230000851E00009D23000059
S11300C09D2300009D2300009D2300009D2300002C
S11300D09D2300009D2300009D2300009D2300001C
S11300E010B5054C237833B9044B13B10448AFF36E
S11300F000800123237010BD780000200000000060
S1130100D82B0000084B10B51BB108480849AFF3C1
S113011000800848036803B910BD074B002BFBD0CF
S1130120BDE81040184700BF00000000D82B0000B5
S11301307C0000207400002000000000154B002B00
S113014008BF134B9D46A3F5803A00218B460F460A
S11301501348144A121A02F019FD0F4B002B00D059
S113016098470E4B002B00D0984700200021040034
S11301700D000D48002802D00C48AFF3008002F0B7
S1130180DFFC2000290000F02FFB02F0C5FC00BFBB
S113019000000800008000200000000000000000B3
S11301A0780000205401002000000000000000003E
S11301B080B483B000AF0346FB71084997F9073058
S11301C05B09FA7902F01F02012000FA02F241F8F9
S11301D023200C37BD465DF8047B704700E100E046
S11301E080B483B000AF0346FB71094997F9073027
S11301F05B09FA7902F01F02012000FA02F260336F
S113020041F823200C37BD465DF8047B704700BFDE
S113021000E100E080B483B000AF03463960FB71B5
S113022097F90730002B0BDA0D49FB7903F00F0324
S1130230043B3A68D2B25201D2B20B441A7609E0B6
S1130240084997F907303A68D2B25201D2B20B4446
S113025083F800230C37BD465DF8047B704700BF6C
S113026000ED00E000E100E080B483B000AF78600E
S1130270044A7B68C2F81C310C37BD465DF8047B28
S1130280704700BF0060004080B483B000AF786066
S11302900649064BD3F810217B68DB431340C1F8B1
S11302A010310C37BD465DF8047B70470060004098
S11302B080B483B000AF78600649064BD3F81021B0
S11302C07B681343C1F810310C37BD465DF8047BDD
S11302D0704700BF0060004090B585B002AF396040
S11302E011461A460346FB710B46BB7113467B71DC
S11302F0FA79BC797B7900933B7E01931046396887
S11303003A68234601F044FA0C37BD4690BD00BF5D
S113031080B400AFBD465DF8047B704780B500AF84
S1130320032003210422002301F09CFAB34838215E
S113033001F022FD03461A46B14B1A70AF480C2156
S113034001F01AFD03461A46AD4B1A70AB48102152
S113035001F012FD03461A46A94B1A70032003212B
S11303600422012301F07EFA032003210422002346
S113037001F078FAA148392101F0FEFC03461A463F
S11303809F4B1A709D48E12101F0F6FC03461A4682
S11303909B4B1A709948002101F0EEFC03461A4663
S11303A0974B1A70032003210422012301F05AFA07
S11303B0032003210422002301F054FA8F483A2138
S11303C001F0DAFC03461A468D4B1A708B4805215E
S11303D001F0D2FC03461A46894B1A70874806215D
S11303E001F0CAFC03461A46854B1A700320032108
S11303F00422012301F036FA0320032104220023FE
S113040001F030FA7D483B2101F0B6FC03461A4660
S11304107B4B1A707948072101F0AEFC03461A465B
S1130420774B1A707548082101F0A6FC03461A465A
S1130430734B1A70032003210422012301F012FAE2
S1130440032003210422002301F00CFA6B483C2111
S113045001F092FC03461A46694B1A706748092159
S113046001F08AFC03461A46654B1A7063480A2158
S113047001F082FC03461A46614B1A7003200321E3
S11304800422012301F0EEF90320032104220023B6
S113049001F0E8F959483D2101F06EFC03461A4683
S11304A0574B1A705548232101F066FC03461A463F
S11304B0534B1A7051480A2101F05EFC03461A4658
S11304C04F4B1A70032003210422012301F0CAF9BF
S11304D0032003210422002301F0C4F947483E21EC
S11304E001F04AFC03461A46454B1A70434823213F
S11304F001F042FC03461A46414B1A703F480A2158
S113050001F03AFC03461A463D4B1A7003200321BE
S11305100422012301F0A6F903200321042200236D
S113052001F0A0F93548412101F026FC03461A46A2
S1130530334B1A703148002101F01EFC03461A4661
S11305402F4B1A702D48C82101F016FC03461A4699
S11305502B4B1A70032003210422012301F082F99A
S1130560032003210422002301F07CF923484221C3
S113057001F002FC03461A46214B1A701F480E2153
S113058001F0FAFB03461A461D4B1A701B48FF2163
S113059001F0F2FB03461A46194B1A70032003219B
S11305A00422012301F05EF9032003210422002325
S11305B001F058F91148062101F0DEFB03461A4602
S11305C00F4B1A70032003210422012301F04AF97E
S11305D0032003210422002301F044F907480521E4
S11305E001F0CAFB03461A46054B1A700320032187
S11305F00422012301F036F980BD00BF00C400408D
S113060040010020B0B586B000AF1120052100F0F4
S11306100DFE1E48012100F007FC1D48012100F0D9
S113062003FC1C4B3C461D460FCD0FC495E803004C
S113063084E80300184BBB600123BB734FF40073C1
S11306403B823B461548194601F0D8FA134B40F259
S11306500B125A65032000210422002301F002F941
S1130660032001210122002301F0FCF803200221D0
S11306700422012301F0F6F80320032104220023BD
S113068001F0F0F81837BD46B0BD00BF00120400F9
S113069000D20400B82B0000809FD50000C40040A5
S11306A080B586B000AF2648012100F0BDFB254887
S11306B0012100F0B9FB2448012100F0B5FB022020
S11306C000210422012301F0CDF80220012101229E
S11306D0002301F0C7F83B4600221A6004330022CD
S11306E01A60043300221A60043300221A600433AF
S11306F000221A60043300221A6004334FF4E133F9
S1130700BB6005237B734FF480533B823B460F4809
S1130710194601F019FA0D4B40F203525A650420B0
S1130720FFF75EFD0420FFF743FD0848052101F0B3
S1130730D3F904200121FFF76DFD1837BD4680BDB4
S1130740408104000002040000D2040000C0004004
S113075080B582B002AF032004210122012301F0FD
S113076081F8012300930320042101220123FFF7D0
S1130770B3FD0120FFF734FD0120FFF719FDBD464D
S113078080BD00BF80B500AF1020FFF77DFD0320C2
S113079003210422002301F065F81148FE2101F031
S11307A0EBFA03461A460F4B1A700D48A02101F0CC
S11307B0E3FA03461A460B4B5A700948A02101F08C
S11307C0DBFA03461A46074B9A70032003210422DE
S11307D0012301F047F81020FFF746FD80BD00BF5C
S11307E000C400404001002080B582B000AFFFF794
S11307F08FFDFFF707FFFFF753FFFFF78FFDFFF7AD
S1130800A7FF1020FFF754FD032003210422002337
S113081001F028F86748022101F0AEFA03461A46AF
S1130820654B1A70032003210422012301F01AF8F6
S1130830032003210422002301F014F85D48FE2163
S113084001F09AFA03461A465B4B1A705948A021E4
S113085001F092FA03461A46574B5A705548A021A4
S113086001F08AFA03461A46534B9A700320032177
S11308700422012300F0F6FF0320032104220023B5
S113088000F0F0FF4B48B02101F076FA03461A4617
S1130890494B1A704748A02101F06EFA03461A46E4
S11308A0454BDA714348A02101F066FA03461A4623
S11308B0414B1A72032003210422012300F0D2FFCA
S11308C03D4B5B7803F01003DBB2002B65D00320B3
S11308D003210422002300F0C5FF3648E22101F081
S11308E04BFA03461A46344B1A703248A02101F0E1
S11308F043FA03461A46304BDA702E48A02101F021
S11309003BFA03461A462C4B1A7103200321042296
S1130910012300F0A7FF032003210422002300F099
S1130920A1FF2448E32101F027FA03461A46224B8B
S11309301A702048A02101F01FFA03461A461E4BE4
S11309405A711C48A02101F017FA03461A461A4BA3
S11309509A71032003210422012300F083FF174826
S1130960462101F029FA144B00225A701020FFF797
S11309709FFC032003210422002300F073FF0D4891
S1130980022101F0F9F903461A460B4B1A700320B1
S113099003210422012300F065FF00237B6002E0B1
S11309A07B6801337B607B68B3F57A7FF8DB0023D7
S11309B07B6061E700C400404001002000C00040AB
S11309C080B487B000AFF860B9607A60FB6803F167
S11309D00473DA00BB6813449B007B617B697A680B
S11309E01A601C37BD465DF8047B704780B485B03F
S11309F000AF786039607B6803F10473DA003B6808
S1130A0013449B00FB60FB681B6818461437BD4603
S1130A105DF8047B704700BF80B485B000AF786098
S1130A207B68002B04D07B68B3F5004F00D800BF6F
S1130A307B68B3FA83F3C3F11F03FB60FB681846BA
S1130A401437BD465DF8047B704700BF80B400AF27
S1130A50044BDB6C1B0EDBB21846BD465DF8047B11
S1130A60704700BFB081E00F80B584B000AF7860FC
S1130A700123FB607B68114A934204D80023FB6086
S1130A800023BB6008E07B680D4A934202D801232F
S1130A90BB6001E00223BB600A481E21FA68FFF72D
S1130AA08FFF0849074B5B6823F48072BB681B0205
S1130AB013434B601037BD4680BD00BF00366E0146
S1130AC0006CDC0200800C4080B582B000AF0548A9
S1130AD01E21FFF78BFF78607B6818460837BD46F8
S1130AE080BD00BF00800C4080B582B000AF214BB8
S1130AF05B6903F4E063B3F5007F1CD0B3F5007FBA
S1130B0005D8002B25D0B3F5807F1FD02AE0B3F59C
S1130B10C06F24D0B3F5E06F1ED0B3F5407F21D170
S1130B20FFF794FF0346122B02D9134B7B601CE0A2
S1130B30124B7B6019E0FFF789FF0346122B02D9A1
S1130B400F4B7B6011E00F4B7B600EE00E4B7B6024
S1130B500BE00E4B7B6008E00D4B7B6005E00D4B1A
S1130B607B6002E000237B6000BF7B681846083787
S1130B70BD4680BD00800C40804F120040420F00F3
S1130B8040B56400C0CF6A00C0D8A700809FD500DC
S1130B90406F4001003FAB0180B582B000AF0D480B
S1130BA000F096FA0346FB70FB78072B05D0092B5F
S1130BB007D101F027FC786006E0FFF795FF786025
S1130BC002E000237B6000BF7B6818460837BD46FF
S1130BD080BD00BF06000C0080B485B000AF786013
S1130BE03960284BDB6B002B14BF01230023BB723D
S1130BF0244B41F67132DA63224B5B6803F007033E
S1130C00FB60FB68012B01D9042B02D10023FB728A
S1130C1002E00123FB7200BF7B681B4A934207D9A1
S1130C20FB7A002B01D0052300E00423FB6016E0CF
S1130C307B68154A93420BD87B68144A934207D9C0
S1130C40FB7A002B01D0032300E00123FB6006E0C4
S1130C50FB7A002B01D0022300E00023FB6009494A
S1130C60084B5B6823F00702FB6813434B60BB7AB5
S1130C70002B02D0034B0022DA631437BD465DF823
S1130C80047B704700000C400048E8010024F40095
S1130C9080B500AF01F0ACFB034618460021FFF716
S1130CA09BFF80BD80B582B000AF78603960786802
S1130CB03968FFF791FF0837BD4680BD90B585B010
S1130CC000AF78600023BB607B68344A934203D052
S1130CD0334A934200D000E000BF786800F0F8F98E
S1130CE00346FB607B682D4A934203D02C4A93420F
S1130CF006D00CE02B4B9B6A03F00303FB6006E079
S1130D00284B9B6A03F00C039B08FB6000BFFB6845
S1130D10032B3AD801A252F823F000BF530D000070
S1130D202D0D0000350D00003D0D000001F006FC06
S1130D30B8602DE001F016FCB86029E001F03EFB3C
S1130D400446FFF7C1FE0346013324FA03F3BB60F4
S1130D501EE00023BB607B68104A934203D07B688B
S1130D600F4A934210D10F4B9A6A7B680B498B420E
S1130D7001D1102300E0142322FA03F3002B03D043
S1130D8001F0E6FBB86003E002E00023BB6000BFB3
S1130D90BB6818461437BD4690BD00BF02001A0058
S1130DA003001C0000800C4080B483B000AF786066
S1130DB0094B5B6D03F00103002B00D006E000BF7C
S1130DC0054B1A6D7B681340002BF9D10C37BD46D7
S1130DD05DF8047B704700BF00800C4080B582B092
S1130DE000AF104800F074F90346FB70FB78032B46
S1130DF007D0092B09D0022B0BD101F0B3FB78608B
S1130E000AE001F09BFB786006E001F0FBFA7860F1
S1130E1002E000237B6000BF7B6818460837BD46AC
S1130E2080BD00BF0723220080B586B000AF786084
S1130E300B46FB7000233B617B681B0A03F00F0326
S1130E40013B092B45D801A252F823F0890E00007A
S1130E508F0E0000750E0000D30E0000D30E0000AC
S1130E60950E00009F0E0000D30E0000D30E00006C
S1130E70A90E0000194B7B61194800F03DF80346A8
S1130E801846FFF7F1FD12E0164B7B610FE0164B9D
S1130E907B610CE0154B7B6101233B6107E0144B44
S1130EA07B6110233B6102E0124B7B6100BF7B68D6
S1130EB01B0B03F01F03FB603B69002B02D0386956
S1130EC0FFF772FFFB787869F9681A46FFF778FD37
S1130ED000E000BF1837BD4680BD00BF40800C4015
S1130EE00043020008800C4044800C4058800C40B1
S1130EF060800C4078800C4090B585B000AF78607D
S1130F007B6803F47813B3F5B01F00F0AB80B3F53E
S1130F10B01F1AD8B3F5402F00F0BF80B3F5402FAF
S1130F2008D8B3F5003F3CD0B3F5802F2DD0002B6B
S1130F3027D0BEE0B3F5801F3CD0B3F5A01F47D047
S1130F40B3F5602F00F0AD80B3E0B3F5081F00F0F7
S1130F50AC80B3F5081F0AD8B3F5D01F25D0B3F57C
S1130F60E01F7AD0B3F5C01F00F08980A1E0B3F58B
S1130F70201F4ED0B3F5281F62D0B3F5181F35D00B
S1130F8097E001F03FFAF86096E001F03BFAF86070
S1130F904C4B9B6803F00F031A46FB68D340FB607D
S1130FA08AE001F00BFAF86086E04748FFF786FE16
S1130FB0F86081E04448FFF781FEF860414B9B6E86
S1130FC003F0F0031B091A46FB68D340FB6073E08F
S1130FD03D48FFF773FEF8603A4B9B6E03F4706371
S1130FE01B0A1A46FB68D340FB6065E03648FFF7EE
S1130FF065FEF860334B9B6E03F440531C0B1020CA
S1131000FFF70AFD034623441A46FB68D340FB60FE
S113101052E02D48FFF752FEF8602A4B9B6E03F412
S113102040531B0B1A46FB68D340FB60254BDB6F18
S113103003F007030133FA68B2FBF3F3FB603BE010
S11310402148FFF73BFEF8601E4B9B6E03F0030341
S11310501A46FB68D340FB602EE01C48FFF72EFEC7
S1131060F86029E01948FFF729FEF860154B1B6F5B
S113107003F003031A46FB68D340FB601CE01348EB
S1131080FFF71CFEF8600F4B1B6F03F030031B09C6
S11310901A46FB68D340FB600EE0FFF77DFDF86065
S11310A00AE0FFF721FDF86006E0FFF797FEF8601D
S11310B002E00023FB6000BFFB6818461437BD46FE
S11310C090BD00BF00800C4002001A0003001C0009
S11310D080B485B000AF78600123FB737B6803F0B4
S11310E00F03BB60BB68013B062B00F2938001A297
S11310F052F823F011110000471100008311000081
S11311001512000015120000BF110000E1110000CB
S1131110454BDB6A03F47053B3F5805F09D0B3F534
S1131120005F03D0B3F5006F06D008E00223FB7321
S113113008E00323FB7305E00423FB7302E00523AB
S1131140FB7300BF69E0384B9B6A03F00303022B77
S113115006D0032B07D0012B08D10323FB730FE028
S11311600223FB730CE00623FB7309E02E4B9B6AFE
S113117003F48033002B02D00A23FB7300E000BF8A
S11311804BE0294B9B6A03F00C03082B06D00C2B75
S113119007D0042B08D10323FB730FE00223FB7356
S11311A00CE00623FB7309E01F4B9B6A03F48013D6
S11311B0002B02D00A23FB7300E000BF2DE01A4B82
S11311C01B6803F08053002B03D0B3F1805F03D07E
S11311D023E00723FB7302E00923FB7300BF1CE039
S11311E0114BDB6A03F46033B3F5803F08D0B3F5E9
S11311F0003F08D0B3F5004F08D10923FB7308E082
S11312000223FB7305E00323FB7302E00123FB735A
S113121000BF02E00023FB7300BFFB7B18461437BA
S1131220BD465DF8047B704700800C4080B588B0F3
S113123000AF78600B46FB700323FB610323FB764E
S113124000233B617B6803F00F03FB60FB68013BF9
S1131250062B00F2208101A252F823F0791200003B
S11312603F1300003F130000971400009714000080
S1131270051400002F140000FB78023B082B00F239
S11312800C8101A252F823F0AD120000B712000045
S1131290C1120000FB1200009B1400009B1400000C
S11312A09B1400009B1400009B1400000423FB61AA
S11312B00023FB7629E00323FB610123FB7624E072
S11312C00223FB610223FB767748FFF7CDFB01F095
S11312D019F90246754B9A4206D9754A744B1B6834
S11312E043F06003136010E0714A714B1B6823F0F4
S11312F0600343F02003136007E00123FB61032331
S1131300FB766948FFF7B0FB00BFFB7E184601215E
S1131310012200F0D3F8FFF7BBFC654AFB69536276
S11313206448FFF7E9FD03461846FFF79DFB01F00B
S113133045F8B860B8680021FFF7B4FCB0E0FB786A
S1131340013B092B00F2AB8001A252F823F000BF4D
S1131350791300007F1300008F1300009F14000016
S11313609F1400009F1300009F1400009F140000AE
S11313709F140000BB13000000237B6122E00020C7
S11313800121012200F09AF802237B611AE0012076
S11313900121012200F092F801237B6112E001F0A7
S11313A00DF8B860B868FFF75FFB434804210122D9
S11313B0FFF706FB03237B6104E000237B61012329
S11313C03B6100BFFB68022B0DD13949384B9B6A46
S11313D023F4803323F003037A691A433B691B0423
S11313E013438B625CE03249314B9B6A23F48013D4
S11313F023F00C037A6992001A433B691B051343DB
S11314008B624DE0FB78072B02D0092B07D047E015
S1131410274A274B1B6823F08053136006E0244AB5
S1131420234B1B6843F08053136000BF38E0FB7804
S1131430032B14D0092B22D0022B00D030E0002043
S11314400121012200F03AF8194B40225A6200BFF0
S1131450174BDB6A03F48033002BF9D01AE0012028
S11314600121012200F02AF8114B60225A6200BFC8
S11314700F4BDB6A03F40033002BF9D00AE00C4B6A
S113148020225A6200BF0A4BDB6A03F40043002B9C
S1131490F9D000BF04E000BF02E000BF00E000BFDD
S11314A02037BD4680BD00BF01366E010048E8010B
S11314B000800C400043020040800C4080B586B0A0
S11314C000AF0346FB710B46BB7113467B71FB797E
S11314D0042B48D801A252F823F000BF29150000BC
S11314E01B150000FF140000F11400000D1500008E
S11314F001233B610223FB6001237B611DE0042384
S11315003B610823FB6003237B6116E010233B61EE
S11315102023FB6005237B610FE040233B61802394
S1131520FB6007237B6108E04FF480733B614FF459
S11315300073FB6009237B6100BFBB79002B0ED0D5
S11315400B4A3B6913627B79002B0DD000BF09481D
S11315507969FFF74BFA0346002BF8D004E0044AFC
S1131560FB68136200E000BF1837BD4680BD00BFB2
S113157000800C402C800C4080B483B000AFEFF3AB
S113158010833B603B687B6072B67B6818460C37FF
S1131590BD465DF8047B704780B483B000AF7860CB
S11315A07B68002B00D162B60C37BD465DF8047B26
S11315B0704700BF80B58AB000AF334B03F580534A
S11315C01B68BB61304B03F580530C331B68BA694D
S11315D01340BB612C4B9B6B7B61BA697B691340E5
S11315E03B620023FB6149E000237B623BE03B6AF2
S11315F003F00103002B30D0234B9B683B61012295
S11316007B6A02FA03F3FB601F4B03F58053083334
S1131610FA681A607B6A1B013A691344DB68BB6091
S1131620BB68002B19D0BB681B7A7B60BB681B7A34
S113163083F00103DAB2BB681A72BB681B68002B23
S11316400BD0BB681B68786A7A68002A14BF012231
S11316500022D1B2BA68526898473B6A5B083B6281
S11316607B6A01337B623B6A002BC0D17B69DA431E
S1131670BB6913403B62FB690133FB61FB69012BCE
S1131680B2DD2837BD4680BD00200C4080B487B051
S113169000AFF860B9607A60FB6803F10473DA00A4
S11316A0BB6813449B007B617B697A681A601C37B2
S11316B0BD465DF8047B704780B485B000AFF86028
S11316C0B9607A60FB681A68BB68DB431A407B68C0
S11316D01A43FB681A601437BD465DF8047B7047F3
S11316E080B483B000AF03463960FB71FB79002BF3
S11316F00DD0FB79012B0AD0FB79022B07D0FB79A3
S1131700032B04D0FB79042B01D0FB79052B094969
S1131710FA793B68012000FA03F318461346DB000C
S113172013449B000B44103358600C37BD465DF8DE
S1131730047B70470060004080B483B000AF034670
S11317403960FB71FB79002B0DD0FB79012B0AD09A
S1131750FB79022B07D0FB79032B04D0FB79042BF4
S113176001D0FB79052B0949FA793B68012000FA7D
S113177003F318461346DB0013449B000B44103359
S113178018600C37BD465DF8047B7047006000406C
S113179080B586B000AFB9607A601A460346FB7321
S11317A01346BB7300237B61FB7B002B0DD0FB7BBB
S11317B0012B0AD0FB7B022B07D0FB7B032B04D02D
S11317C0FB7B042B01D0FB7B052B7B68072B0ED8FE
S11317D07B689B001A46072303FA02F1FB7B7A68B5
S11317E09200934019481A46FFF766FF10E07B68A1
S11317F0083B7B617B699B001A46072303FA02F1CD
S1131800FB7B7A699200934011481A46FFF754FF14
S1131810BB7B104879681A46FFF738FF97F82030E9
S11318200D4879681A46FFF731FF0C4A7B6801219D
S113183001FA03F3C2F81C3197F824300848796898
S11318401A46FFF723FF1837BD4680BD00610040EC
S113185004610040086100400C61004000600040E9
S11318601061004090B585B000AFB9607B6003465D
S1131870FB731346BB73FB7B002B0DD0FB7B012B4F
S11318800AD0FB7B022B07D0FB7B032B04D0FB7B12
S1131890042B01D0FB7B052BBB7B002B0DD07B687D
S11318A0002B05D0FB7B1846B968FFF745FF04E021
S11318B0FB7B1846B968FFF713FFBB68072B1CD8DE
S11318C02A4CFA7B2948F97B0B46DB000B449B002E
S11318D003445968BB689B0018460F238340DB43CD
S11318E00B40B97BB8688000814019431346DB0084
S11318F013449B002344596024E01C4CFA7B1B488E
S1131900F97B0B46DB000B449B0003440833196846
S1131910BB6803F18043083B9B0018460F238340B8
S1131920DB431940B87BBB6803F18043083B9B0051
S113193000FA03F319431346DB0013449B002344CA
S113194008331960BB7B002B0DD17B68002B05D0BD
S1131950FB7B1846B968FFF7EFFE04E0FB7B1846F3
S1131960B968FFF7BDFE1437BD4690BD0060004066
S113197080B485B000AF78607B68002B02D0012B67
S113198004D007E0084B9B68FB6006E0064BDB686D
S1131990FB6002E00023FB6000BFFB6818461437BD
S11319A0BD465DF8047B70470000084080B485B0F4
S11319B000AF786039607B68002B02D0012B03D024
S11319C008E0074BFB6002E0064BFB6000BFFB68CE
S11319D03A681A601437BD465DF8047B704700BF4F
S11319E0080008400C00084080B586B000AFF860DD
S11319F0B9607A60FB70BB68002B03D12448FFF701
S1131A007BFAB860FB78202B0CD0202B02DC002B57
S1131A1005D03AE0402B08D0602B09D035E01023E4
S1131A207B6108E008237B6105E006237B6102E01B
S1131A3004237B6100BFBB689A007B69796801FB62
S1131A4003F35B0813443B617B697A6802FB03F38D
S1131A503A69B2FBF3F33B613B69043B3B613B698D
S1131A609B013B613A690B4B13403B61FB681B686C
S1131A7023F06002FB681A60FB681A68FB781A435B
S1131A80FB681A60FB683A695A611837BD4680BD25
S1131A9040810400C0FF1F0080B586B000AFF8602D
S1131AA0B9607A60BB68002B03D10A48FFF724FAB7
S1131AB0B860BB685A1E7B685B00B2FBF3F37B61C2
S1131AC07B691B027B61FB687A695A611837BD46E2
S1131AD080BD00BF4081040080B485B000AF786051
S1131AE00B46FB707B68134A93420FD07B68124A03
S1131AF093420BD07B68114A934207D07B68104A0B
S1131B00934203D07B680F4A934200D100BFFB7815
S1131B10DB43FB60FB6803F00503FB60FB685A00D2
S1131B207B68DA60FA787B68DA601437BD465DF862
S1131B30047B704700C0004000C4004000C800405F
S1131B4000E0004000E4004080B582B000AF78605F
S1131B5039607B68244A93420FD07B68234A9342BE
S1131B600BD07B68224A934207D07B68214A934278
S1131B7003D07B68204A934200D100BF786800F00C
S1131B80A3F83B689B7C002B05D07B681B6843F063
S1131B9080427B681A603B68DB7C002B07D03B6883
S1131BA01B7D43F01003DBB21A467B689A653B68E1
S1131BB05B7B1A463B681B8A13433A68D2891A43F3
S1131BC07B685A603B6859683B689A683B681B7B32
S1131BD07868FFF709FF3B681B781A467B68DA6070
S1131BE00837BD4680BD00BF00C0004000C40040AF
S1131BF000C8004000E0004000E4004080B582B02E
S1131C0000AF786039607B682C4A934207D07B68C8
S1131C102B4A934203D07B682A4A934200D100BFE7
S1131C20786800F051F87B681A683B681B8A43F0B7
S1131C3001039BB219463B689B7B002B02D04FF4F7
S1131C40806300E000230B431A437B681A607B68BF
S1131C501A683B681B7D002B02D04FF0005300E054
S1131C6000231A437B681A603B689B7C002B07D0D7
S1131C703B68DB7C43F01003DBB21A467B689A6551
S1131C803B681B7B43F480527B685A603B685A680C
S1131C903B689B68786811461A46FFF7FDFE3B686F
S1131CA05B7B002B02D07B681022DA603B681B78D8
S1131CB01A467B68DA600837BD4680BD00C0004024
S1131CC000C4004000C8004080B483B000AF786016
S1131CD07B68244A93420FD07B68234A93420BD0FB
S1131CE07B68224A934207D07B68214A934203D0FF
S1131CF07B68204A934200D100BF7B6840F6AA6209
S1131D00DA607B6800221A607B6841F205025A603F
S1131D107B6800229A607B6800225A617B680022FB
S1131D20DA647B6841F6F9729A647B6800225A652A
S1131D307B680C4A934202D17B6800221A657B6857
S1131D4000229A657B68084A934203D07B68074A5D
S1131D50934202D17B680022DA650C37BD465DF8F8
S1131D60047B704700C0004000C4004000C800402D
S1131D7000E0004000E4004080B483B000AF78602D
S1131D800B46FB7000BF7B681B6903F04003002B0C
S1131D90F9D0FA787B685A6300BF7B681B6903F04B
S1131DA02003002BF9D07B68DB69DBB218460C37C3
S1131DB0BD465DF8047B704780B483B000AF7860A3
S1131DC00B46FB7000BF7B681B6903F04003002BCC
S1131DD0F9D0FA787B685A630C37BD465DF8047B0A
S1131DE0704700BF80B400AF034B5B681846BD4624
S1131DF05DF8047B704700BF0000084080B483B0E6
S1131E0000AF7860034A7B6893610C37BD465DF888
S1131E10047B70470000084080B483B000AF786052
S1131E200549054BDA697B68DB431340CB610C370A
S1131E30BD465DF8047B70470000084080B483B061
S1131E4000AF78600549054BDA697B681343CB61C1
S1131E500C37BD465DF8047B704700BF00000840A6
S1131E6080B483B000AF064BDB697B60044B1A6916
S1131E707B68134018460C37BD465DF8047B7047F9
S1131E800000084080B586B000AFFFF775FB3861ED
S1131E90FFF7E6FFF860FB6823F003031846FFF73B
S1131EA0ADFFFB6803F00203002B39D01F4B012266
S1131EB01A70FFF797FF78610220FFF7ADFF7B6987
S1131EC01A021B4B1B681B02D31A1B0ABB60B8689F
S1131ED000F032F800F094F9786900F0C3F9FFF7E4
S1131EE081FF78617B691A02114B1B681B02D31AAC
S1131EF01B0ABB600020FFF73BFD03461A020C4B94
S1131F001B681B02D31A1B0A7B600A4B1B78002B2D
S1131F1003D0BA687B689A42CED8044B00221A7068
S1131F203869FFF739FB1837BD4680BD3C010020F6
S1131F30380100203D010020B0B586B000AF7860C4
S1131F4000237B6153E1AD497A6913469B00134436
S1131F50DB000B44183300225A71A8497A691346EE
S1131F609B001344DB000B4418331B79002B00F057
S1131F703B81A2497A6913469B001344DB000B445E
S1131F80D3E90023796808464FF00001994208BF5D
S1131F90904219D299497A6913469B001344DB0095
S1131FA00B44D3E900017B681A464FF00003801A02
S1131FB061EB0301914C7A6913469B001344DB00E7
S1131FC02344C3E900010FE18C497A6913469B005D
S1131FD01344DB000B441833DB79002B0AD1874907
S1131FE07A6913469B001344DB000B441833002228
S1131FF01A71E4E07B6818464FF000017F4C7A695F
S113200013469B001344DB002344D3E90023821AC4
S113201061EB0303C7E9022378497A6913469B00FD
S11320201344DB000B440833D3E9004573497A6950
S113203013469B001344DB000B440833D3E900230D
S1132040D7E9020100F09AFA20462946801A61EB8A
S113205003016A4C7A6913469B001344DB00234452
S1132060C3E9000165497A6913469B001344DB0008
S11320700B4410331B68002B50DD60497A6913460A
S11320809B001344DB000B44103359685B487A69A6
S113209013469B001344DB00034410331B681944AC
S11320A056487A6913469B001344DB0003441033FB
S11320B0596052497A6913469B001344DB000B4470
S11320C010335B68F32B7AD94C497A6913469B0029
S11320D01344DB000B44D3E90023501C43F10001FB
S11320E0464C7A6913469B001344DB002344C3E93E
S11320F0000142497A6913469B001344DB000B44F8
S113210010335B68A3F1F4013C487A6913469B00E1
S11321101344DB0003441033596050E037497A69B3
S113212013469B001344DB000B44103359683348B7
S11321307A6913469B001344DB00034410331B6885
S1132140C91A2E487A6913469B001344DB000344E2
S11321501033596029497A6913469B001344DB0004
S11321600B4410335B68F32B29D924497A6913464D
S11321709B001344DB000B44D3E9002312F1FF302E
S113218043F1FF311D4C7A6913469B001344DB0075
S11321902344C3E9000119497A6913469B00134497
S11321A0DB000B4410335B68A3F1F40113487A6934
S11321B013469B001344DB000344103359600F495A
S11321C07A6913469B001344DB000B4418331B68E5
S11321D0002B09D009497A6913469B001344DB009C
S11321E00B44183301225A717B6901337B617B698B
S11321F0032B7FF7A8AE1837BD46B0BD980000206A
S113220090B583B000AF00237B6022E014497A6864
S113221013469B001344DB000B4418335B79002BFB
S113222014D00F497A6813469B001344DB000B4417
S113223018331C6878680A497A6813469B0013446B
S1132240DB000B4420331B681946A0477B6801332D
S11322507B607B68032BD9DD0C37BD4690BD00BF86
S11322609800002080B58AB000AF78604FF0FF324C
S11322704FF0FF33C7E9062300237B6227E0374989
S11322807A6A13469B001344DB000B4418331B7912
S1132290002B19D031497A6A13469B001344DB00A2
S11322A00B44D3E90001D7E90623994208BF9042C1
S11322B00AD22A497A6A13469B001344DB000B4472
S11322C0D3E90023C7E906237B6A01337B627B6A77
S11322D0032BD4DD224B00221A70D7E90623B3F175
S11322E0FF3F08BFB2F1FF3F35D0D7E90623C7E966
S11322F004231C4BFB60FB681A464FF00003D7E92C
S11323000401994208BF904201D202460B46C7E934
S11323100623154B1B7883F00103DBB2002B05D099
S11323207B6823F07F43114A136002E00F4A7B6805
S113233013600220FFF762FDBA697B68134423F03F
S11323407F4300201946FFF731FB054B01221A7029
S11323500220FFF773FD2837BD4680BD980000209A
S11323603D0100209BFFFF003C01002038010020BC
S1132370064880470649074A074B9A42BEBF51F8B0
S1132380040B42F8040BF8E7FDF7D8FE1D25000006
S1132390E42B00000000002078000020FEE700BFCE
S11323A080B400AF044BDB6C1B0EDBB21846BD4699
S11323B05DF8047B704700BFB081E00F80B582B048
S11323C000AF00F01FF87860074B5B6803F00F0361
S11323D01A467B68D3407B60044A7B6813607B6841
S11323E018460837BD4680BD00800C400800002018
S11323F080B400AF024B1846BD465DF8047B7047BD
S1132400006CDC0280B582B000AF334BDB6A03F4AE
S11324107053B3F5805F0AD0B3F5005F03D0B3F512
S1132420006F08D00BE02D4B1B687B6047E04FF436
S113243000437B6043E02A4B1B687B603FE0264BF4
S1132440DB6803F4E063B3F5007F1BD0B3F5007FD2
S113245005D8002B24D0B3F5807F16D02BE0B3F53C
S1132460806F09D0B3F5A06F03D0B3F5407F06D0D9
S113247021E01C4B7B6021E01B4B7B601EE01B4B6F
S11324807B601BE01A4B7B6018E0FFF789FF034673
S1132490122B02D9174B7B6010E0174B7B600DE0C9
S11324A0FFF77EFF0346122B02D9144B7B6005E035
S11324B0134B7B6002E000237B6000BF00BF064B30
S11324C01B6803F4E0339B0B01337A68B2FBF3F32C
S11324D018460837BD4680BD00800C40040000202B
S11324E000000020003FAB01406F4001809FD500F9
S11324F0C0D8A70040B56400C0CF6A00804F120066
S113250040420F0080B400AF034B1B681846BD4621
S11325105DF8047B704700BF0000002080B400AF6A
S1132520054A054BD3F8883043F47003C2F8883069
S1132530BD465DF8047B704700ED00E080B400AF59
S11325404FF400431846BD465DF8047B704700BF56
S113255080B400AF4FF47A731846BD465DF8047B2F
S1132560704700BF80B400AF034B1B681846BD46DC
S11325705DF8047B704700BF0400002053B94AB9DA
S1132580002908BF00281CBF4FF0FF314FF0FF3077
S113259000F03CB882B0EC462DE9005000F01EF883
S11325A0DDF804E002B00CBC704700BF2DE9F04137
S11325B0069C154606460F46984600F029F805FB8A
S11325C001F300FB0838A5FB0023B21A434467EB70
S11325D00303C4E90023BDE8F08100BF2DE9F04105
S11325E0069C904606460F461D4600F05FF900FB28
S11325F005F5A0FB082308FB0155B21A2B4467EB31
S11326000303C4E90023BDE8F08100BF704700BFA5
S113261000292DE9F043C0F2A6800026002BC0F269
S11326209C80884694469E46154604460F46002BD9
S11326303DD18A4259D9B2FA82F33BB1C3F12002A7
S11326409F4020FA02F29D4017439C40290C220C23
S1132650B7FBF1FEA8B201FB1E7742EA074700FB75
S11326600EF3BB420AD97F190EF1FF3280F00581C7
S1132670BB4240F20281AEF1020E2F44FF1AA4B213
S1132680B7FBF1F301FB137744EA074700FB03F0C0
S1132690B84208D97F1903F1FF3280F0F080B842C4
S11326A040F2ED80023B43EA0E43002203E08B42FA
S11326B00FD900221346341C18BF012460424FF086
S11326C0000565EB45015840514000196941BDE8DA
S11326D0F083B3FA83F2002A40F086808B4202D35F
S11326E0844500F2DB800123E5E712B90123B3FB43
S11326F0F2F5B5FA85F000283BD1781B4FEA154E68
S11327001FFA85FC0122B0FBFEF8210C0EFB180712
S113271041EA07470CFB08F3BB4207D97F1908F1CC
S1132720FF3102D2BB4200F2BD808846FF1AA4B238
S1132730B7FBFEF30EFB137744EA07470CFB03FCDD
S1132740BC4507D97F1903F1FF3102D2BC4500F221
S1132750A7800B4643EA0843ADE752426FEA0606F8
S113276063EB43035DE7404261EB41014FF0FF3609
S113277054E7C0F1200224FA02F107FA00F385407D
S11327804FEA154ED7401943B7FBFEF20B0C0EFB74
S113279012771FFA85FC43EA07430CFB02F79F42BA
S11327A004FA00F407D95B1902F1FF3074D29F4296
S11327B072D9023A2B44DF1B89B2B7FBFEF80EFB39
S11327C0187341EA03430CFB08F79F4208D95B19CD
S11327D008F1FF315CD29F425AD9A8F102082B4478
S11327E0D81B48EA02428EE7C2F120032CFA03F117
S11327F00EFA02FE20FA03F741EA0E0E08FA02F07E
S113280028FA03F14FEA1E453843B1FBF5F8030CEF
S113281005FB18111FFA8EF743EA014107FB08F381
S11328208B420CFA02FC09D911EB0E0108F1FF39B5
S113283030D28B422ED9A8F102087144C91A80B251
S1132840B1FBF5F305FB131140EA014107FB03F764
S11328508F4208D911EB0E0103F1FF3016D28F42DB
S113286014D9023B714443EA0843C91BA3FB0C89F6
S1132870494509D305D000221DE79646FEE61346D6
S113288011E794404445F6D2013BF4E70346EAE7F6
S11328908846A5E7C846D1E702468CE713460AE70F
S11328A0023B57E7A8F102082F443FE72DE9F04126
S11328B0002B44D18A42154604464FD9B2FA82F716
S11328C00E464FB1C7F12003B94020FA03F602FACD
S11328D007F50E4300FA07F44FEA154E230CB6FB36
S11328E0FEF0AFB20EFB106143EA014307FB00F1B7
S11328F0994209D95B1900F1FF3280F0EC809942CA
S113290040F2E98002382B445A1AA4B2B2FBFEF317
S11329100EFB132244EA024207FB03F7974208D94D
S1132920521903F1FF3180F0D880974240F2D580EC
S1132930023B43EA004000263146BDE8F0818B4269
S113294047D8B3FA83F6002E48D18B4202D3824291
S113295000F2CD8001203146BDE8F08112B9012595
S1132960B5FBF2F5B5FA85F8B8F1000F77D14A1B3B
S11329704FEA154EAFB20126B2FBFEF0230C0EFB5C
S1132980102143EA014107FB00F38B4207D949199F
S113299000F1FF3202D28B4200F2BA801046C91A0B
S11329A0A4B2B1FBFEF30EFB131144EA014407FB8E
S11329B003F7A74208D9641903F1FF3280F08F802E
S11329C0A74240F28C80023B43EA00403146BDE816
S11329D0F081002630463146BDE8F081C6F120047E
S11329E022FA04F5B3402B4320FA04FC01FA06F75B
S11329F021FA04F54FEA134E4CEA0707B5FBFEF83B
S1132A00390C0EFB18551FFA83FC41EA05450CFBF3
S1132A1008F1A94202FA06F204D9ED1808F1FF34CC
S1132A2067D3A0466D1ABFB2B5FBFEF40EFB145576
S1132A3047EA05410CFB04FC8C4504D9C91804F190
S1132A40FF355CD32C4644EA0844CCEB0101A4FBDB
S1132A500223994248D344D0204600266CE7C8F1AB
S1132A60200401FA08F305FA08F520FA04F7E14016
S1132A704FEA154E1F43B1FBFEF63A0C0EFB16113E
S1132A801FFA85FC42EA01430CFB06F29A4200FA63
S1132A9008F407D95B1906F1FF3137D29A4235D9C8
S1132AA0023E2B449B1ABFB2B3FBFEF00EFB103365
S1132AB047EA03430CFB00F1994207D95B1900F183
S1132AC0FF3221D299421FD902382B445A1A40EAC4
S1132AD00646674650E7104616E70B4629E71346B5
S1132AE072E7B0409042B7D2601E002624E7304619
S1132AF022E7A94295D9A8F102081D4492E78C4522
S1132B00A0D9023C19449EE71046DFE70E46C9E708
S1132B100238294443E700BF08B5074B044613B104
S1132B200021AFF30080054B1868836A03B198470E
S1132B30204600F033F800BF00000000D42B000052
S1132B4070B50E4B0E4CE41AA41000251E46A54287
S1132B5004D056F8253098470135F8E700F020F8FE
S1132B60084C094BE41AA41000251E46A54204D0C3
S1132B7056F8253098470135F8E770BD6C00002001
S1132B806C000020700000206C000020024403460A
S1132B90934202D003F8011BFAE77047FEE700BF37
S1132BA0F8B500BFF8BC08BC9E467047F8B500BF36
S1132BB0F8BC08BC9E4670470500000000000000F9
S1132BC040420F000501000000000000000000006A
S10F2BD0430000000C0000200000000086
S10B2BDC60D5FF7F0100000039
S1132BE4006CDC0200800000809FD500000000001F
S1132BF400000000000000000000000000000000CD
S1132C04000000000000000000000000D02B0000C1
S1132C1400000000000000000000000000000000AC
S1132C24000000000000000000000000000000009C
S1132C34000000000000000000000000000000008C
S1132C440000000000000000000000000501000076
S10B2C54E10000000000000093
S903237168
