:1000000000800020B1010000DD010000DD010000E2
:10001000DD010000DD010000DD010000DD01000068
:10002000DD010000DD010000DD010000DD01000058
:10003000DD010000DD010000DD010000DD01000048
:10004000DD010000DD010000DD010000DD01000038
:10005000DD010000DD010000DD010000DD01000028
:10006000DD010000DD010000DD010000DD01000018
:10007000DD010000DD010000DD010000DD01000008
:10008000DD010000DD010000DD010000DD010000F8
:10009000DD010000DD010000DD010000DD010000E8
:1000A000DD010000DD010000DD010000DD010000D8
:1000B000DD010000DD010000DD010000DD010000C8
:1000C000DD010000DD010000DD010000DD010000B8
:1000D000DD010000DD010000DD010000DD010000A8
:1000E00010B5054C237833B9044B13B10448AFF372
:1000F00000800123237010BD780000200000000064
:10010000B00E0000084B10B51BB108480849AFF30A
:1001100000800848036803B910BD074B002BFBD0D3
:10012000BDE81040184700BF00000000B00E0000FE
:100130007C0000207400002000000000154B002B04
:1001400008BF134B9D46A3F5803A00218B460F460E
:100150001348144A121A00F085FE0F4B002B00D0F2
:1001600098470E4B002B00D0984700200021040038
:100170000D000D48002802D00C48AFF3008000F0BD
:100180004BFE2000290000F0DBFD00F031FE00BF37
:1001900000000800008000200000000000000000B7
:1001A0007800002094000020000000000000000003
:1001B000064880470649074A074B9A42BEBF51F896
:1001C000040B42F8040BF8E7FFF7B8FFA1030000A7
:1001D000BC0E00000000002078000020FEE700BFF9
:1001E000294AD36A03F47053B3F5805F2AD0B3F57C
:1001F000005F24D0B3F5006F11D0D36803F4E0633F
:10020000B3F5007F3DD020D9B3F5806F37D0B3F57B
:10021000A06F32D0B3F5407F24D0002301E01B4B08
:100220001B68194A1A4910685268C0F3823002F0FC
:100230000F020130B3FBF0F0D04008607047154B5F
:100240001B68EEE74FF40043EBE76BB1B3F5807F3B
:10025000E3D1114B114AD86C114BB0F1985F28BF14
:100260001346DEE70F4BDCE70B4B0F4AD86C0F4B06
:10027000B0F1985F28BF1346D3E70D4BD1E70D4B84
:10028000CFE70D4BCDE700BF00800C4004000020FD
:100290000800002000000020B081E00F40B564009D
:1002A000C0CF6A00809FD500804F120040420F00EF
:1002B000003FAB01406F4001C0D8A7000048704725
:1002C000006CDC02274AD36A03F47053B3F5805FF5
:1002D00024D0B3F5005F1ED0B3F5006F11D0D36802
:1002E00003F4E063B3F5007F39D01AD9B3F5806F1A
:1002F00033D0B3F5A06F2ED0B3F5407F1FD00020D0
:1003000001E0194B1868174B1B68C3F382330133A4
:10031000B0FBF3F07047154B1868F4E74FF400405A
:10032000F1E773B1B3F5807FE9D1114A114BD06C7D
:10033000114AB0F1985F2CBF18461046E3E70F480A
:10034000E1E70B4A0E4BD06C0E4AB0F1985F2CBF20
:1003500018461046D7E70C48D5E70C48D3E70C48B9
:10036000D1E700BF00800C40040000200000002006
:10037000B081E00F40B56400C0CF6A00809FD50017
:10038000804F120040420F00003FAB01406F400120
:10039000C0D8A700014B1868704700BF04000020B8
:1003A000034AD2F8883043F47003C2F888307047AB
:1003B00000ED00E04FF40040704700BF4FF47A704A
:1003C000704700BF014B1868704700BF0000002055
:1003D00008B500F00F03013B062B65D8DFE803F0FA
:1003E0002539476464550400464BDB6A03F46033E7
:1003F000B3F5803F23D0B3F5003F6DD0B3F5004F88
:100400004AD0414B984262D0404B984209D13D4B73
:100410009B6AC3F38103022B17D0032B62D0012BFD
:1004200048D1BDE80840FFF7C5BF364BDB6A03F48F
:100430007053B3F5805F4FD0B3F5005F2CD1324BD2
:10044000984244D0314B9842E1D0BDE80840FFF7D4
:10045000B9BF2C4A936A03F00303022BEFD0032B9E
:100460001AD0012B38D0936ADA0315D4C9E7254A8C
:10047000936A03F00C03082BE1D00C2B0CD0042B57
:100480002AD0936ADB0207D4BBE71E4B1B6813F02C
:10049000805301D0002BB4D01B4B984217D01B4B7C
:1004A0009842B4D0002008BD174B98420FD0174B8C
:1004B0009842ACD0144B98421BD0144B9842F1D1C7
:1004C000104B9B6A142033FA00F016D108BD0D4B77
:1004D0009B6A03F003039EE70B4B9842F7D00B4B4C
:1004E000984294D0FFF77CFE094B1B680133D8403B
:1004F00008BD044B10209B6AE5E7BDE80840FFF704
:100500005DBF00BF00800C4002001A0003001C0009
:100510007800904300F00F000138062852D8DFE839
:1005200000F014243551514604002B4BDB6A03F4D0
:100530006033B3F5803F49D0B3F5003F44D0B3F505
:10054000004F0CBF092001207047234BDB6A03F4E6
:100550007053B3F5805F37D0B3F5005F36D0B3F595
:10056000006F0CBF0420052070471B4B986A00F0F9
:100570000300022829D003282AD0012824D09B6A0E
:1005800013F4803F0CBF01200A207047124A936A7F
:1005900003F00C03082B19D00C2B19D0042B13D00B
:1005A000936A13F4801F0CBF01200A2070470A4B86
:1005B0001B6813F080530DD0B3F1805F0CBF09208E
:1005C00001207047002070470320704702207047C9
:1005D000062070470720704700800C4000F4781018
:1005E000B0F5B01F08B500F093800ED8B0F5402FDD
:1005F0007ED021D8B0F5003F76D0B0F5802F00F046
:10060000B08000287BD0002008BDB0F5081F00F0A6
:100610009A8039D8B0F5D01F61D0B0F5E01F72D004
:10062000B0F5C01FEFD16448FFF7D2FE634B1B6FDC
:10063000C3F30113D84008BDB0F5801F37D0B0F523
:10064000A01F6ED0B0F5602FDDD15C4B5B6903F469
:10065000E063B3F5007F00F09E8040F28A80B3F53E
:10066000C06F00F0A280B3F5E06F00F0A080B3F59A
:10067000407FC8D1524A534BD06C534AB0F1985F77
:1006800034BF1846104608BDB0F5201F18D0B0F58D
:10069000281F4FD0B0F5181FB5D14C48FFF798FE72
:1006A000464B9B6EC3F301330433D84008BD474823
:1006B000FFF78EFE414B9B6EC3F30313D84008BD7A
:1006C0004248FFF785FE3D4B9A6EDB6FC2F3013265
:1006D00003F00703D0400133B0FBF3F008BD3B4803
:1006E000BDE80840FFF774BEBDE80840FFF778BDDD
:1006F000324A136813F0805346D0002B83D0BDE8F4
:100700000840FFF7DFBD2C48BDE80840FFF760BE9A
:100710002948FFF75DFE294B1B6F03F00303D84008
:1007200008BD2A48FFF754FE244B9B6EC3F30323F6
:10073000D84008BD2548FFF74BFE204B9B6E03F0C9
:100740000303D84008BD2248FFF7E4FE032817D072
:100750000928D4D002287FF456AFBDE80840FFF73F
:1007600031BEFFF7AFFD154B9B6803F00F03D84078
:1007700008BDF3B1B3F5807F7FF445AF154808BDE0
:10078000BDE80840FFF716BE536903F4E063B3F514
:10079000007F7FF462AF0A4A0F4BD06C0F4AB0F172
:1007A000985F34BF1846104608BD0D4808BD0D4877
:1007B00008BD0D4808BD00BF03001C0000800C40B0
:1007C000B081E00F40420F00804F120002001A007B
:1007D00007232200C0D8A700C0CF6A0040B564003C
:1007E000003FAB01406F4001809FD50030B5C0F3A2
:1007F0000323013B83B00446092B0CD8DFE803F048
:100800001C1E200B0B0D190B0B051B4DC4F30434E0
:100810002C44A400216003B030BD184D0120184ABB
:10082000536DDB07C4F30434F2D4136D1842FCD1CA
:10083000EEE7144D1020F2E7134DE7E7134DE5E71F
:100840000191FFF7CDFC124B019998420BD8002083
:100850000546104B0A4A1D6053680F4D23F4807300
:1008600018435060D2E70D4B0125984294BF4FF4D6
:1008700080704FF40070ECE7C003E410C002E41095
:1008800000800C400003E4104000E4102002E4105B
:1008900000366E01780090430002E410006CDC0228
:1008A00038B500F00F04631E062B0ED8DFE803F006
:1008B0002E14140D0D0E0400032900F09880092950
:1008C00000F0CB80022900F0A08038BD072926D097
:1008D000092900F0A98038BD01390929F5D801A3FB
:1008E00053F821F0CF0A0000EB0A00003B0B000098
:1008F000CB080000CB080000030B0000CB08000071
:10090000CB080000CB080000510B0000023903297E
:10091000DBD8DFE811F0C2000A00A900C7009E4A38
:10092000136823F08053136038BD9C4A032440238E
:1009300099490B621368002BFCD0FFF7BFFC984B62
:1009400041F67132DD6BDA635B6803F00703042B59
:1009500006D8012202FA03F313F0130F40F0AD8022
:10096000904B984269D905228D494B6823F00703C3
:1009700013434B600DB10023CB63874B8A485C6205
:10098000FFF72CFE894B984254D9894B012198429C
:1009900094BF4FF480704FF40070864B7E4A19600C
:1009A000536823F4807318435060FFF719FC7C4BA5
:1009B00041F67132DC6BDA635B6803F00703042BEA
:1009C00005D8012202FA03F313F0130F7AD1754B05
:1009D00098423AD9052272494B6823F00703134322
:1009E0004B60002C3FF471AF0023CB6338BD6A4BE2
:1009F0006A4A402119621368002BFCD0664A6023C2
:100A00005362D36A9903FCD538BD634B6A4A4FF4ED
:100A1000807119621368002BFCD05F4A4023536237
:100A2000D36AD803FCD538BD5B4A136843F08053C2
:100A3000136038BD00200146AFE7604B604A0344B5
:100A400093428CBF022203228EE75C4B5C4A034434
:100A500093428CBF02220322BDE74F4A20235362F8
:100A6000D36A1B04FCD538BD524B4B4C01221A6093
:100A7000636843F480736360FFF78CFC494B514A11
:100A80009842236896BF23F0600343F0600343F06D
:100A900020032360022404234AE7474A04244FF436
:100AA000807345E7434B3C49474A01241C604B682F
:100AB00043F480734B6023463AE73A4B984257D948
:100AC000042251E7374B98425AD9042283E7002089
:100AD00002460146022C41D02F498A6A22F4801333
:100AE00023F00C0303438B6238BD2B4B324A4FF487
:100AF000807119621368002BFCD0082000220221AB
:100B0000E8E7FFF76DFB294B984241D9284B0125B7
:100B1000984294BF4FF480724FF40072254B1E49E7
:100B20001D604B68294D23F48073134301224B60F1
:100B30000C202A6003210022CCE7174B174A4021E2
:100B400019621368002BFCD0042000220121C1E7A8
:100B50004FF480104FF480320021BBE70E48836AC7
:100B600023F480330A4323F003031343836238BD25
:100B7000124B134A034493428CBF00220122F3E636
:100B80000E4B0F4A034493428CBF0022012222E7FE
:100B900000221546C2E700BF00800C409C05904330
:100BA00000000C400048E8010043020000366E01DE
:100BB000006CDC0278009043A4059043FFDB0BFF40
:100BC000FF23F4008C059043840590431008904364
:100BD000F0B5C4004AB1B3B32518AD0005F18045A6
:100BE00005F5C04501268E402E612518AD0005F1A2
:100BF0008045072905F5C04515D84FEA810E6F6875
:100C00000F2606FA0EF627EA060702FA0EF63E430C
:100C10006E603AB92044F3B9134B800003440122BB
:100C20008A405A60F0BD01F18046083EAF68B600C8
:100C30004FF00F0E0EFA06FE27EA0E0702FA06F62E
:100C40003E43AE60E5E72618074DB6003544012661
:100C50008E406E60C9E7800000F1804000F5C04022
:100C600001238B400361F0BD106000402B4AF8B5B2
:100C70000446002340F6AA6741F2050641F6F970E2
:100C80009442E7600D4623606660A3606361E3649D
:100C9000A06463653ED0224AA365944237D0214BBD
:100CA0009C4234D02B8AAE7B2268287DA97C43F0FD
:100CB0000103002E9BB243EA020314BF4FF480628B
:100CC0000022134323602368002814BF4FF0005212
:100CD00000221343236019B1EB7C43F01003A3659A
:100CE0002B7B6868AE6843F48053636010B90E488C
:100CF000FFF774FC6B7B01387600B0FBF6F0000266
:100D000060610BB11023E3602B78E360F8BD002332
:100D1000E365C7E72365A365C4E700BF00C00040E3
:100D200000C4004000C800404081040003695A0626
:100D3000FCD5416303699B06FCD5C069C0B270470E
:100D400070B5112086B00521234D244EFFF7A8FD74
:100D500023480121FFF74AFD0FCD6C460FC495E8EB
:100D6000030084E803001F480121FFF73FFD002135
:100D70000B4603200422FFF72BFF01210A46032024
:100D80000023FFF725FF0320022104220123FFF7A0
:100D90001FFF0320014604220123FFF719FF124B16
:100DA000029301224FF4407330466946ADF810308B
:100DB0008DF80E20FFF75AFF40F20B1373650521E3
:100DC0000648FFF7B3FF05480521FFF7AFFF074BC4
:100DD000013BFDD1F3E700BF900E000000C40040CE
:100DE00000D2040000120400809FD50040420F0092
:100DF00008B5074B044613B10021AFF30080054B43
:100E00001868836A03B19847204600F033F800BFA2
:100E100000000000AC0E000070B50E4B0E4CE41A42
:100E2000A41000251E46A54204D056F82530984748
:100E30000135F8E700F020F8084C094BE41AA4103B
:100E400000251E46A54204D056F8253098470135A6
:100E5000F8E770BD6C0000206C00002070000020DE
:100E60006C00002002440346934202D003F8011BA9
:100E7000FAE77047FEE700BFF8B500BFF8BC08BC52
:100E80009E467047F8B500BFF8BC08BC9E46704748
:100E9000050000000000000040420F0005010000B6
:100EA0000000000000000000430000000C000020D3
:040EB000000000003E
:080EB40088F2FF7F010000003D
:100EBC0000800000006CDC02809FD5000000000068
:100ECC000000000000000000000000000000000016
:100EDC00000000000000000000000000A80E000050
:100EEC0000000000000000000000000000000000F6
:100EFC0000000000000000000000000000000000E6
:100F0C0000000000000000000000000000000000D5
:100F1C0000000000000000000000000005010000BF
:080F2C00E100000000000000DC
:04000003000001B147
:00000001FF
